{
  "_format": "hh-sol-artifact-1",
  "contractName": "ArbitrumToken",
  "sourceName": "contracts/ArbitrumToken.sol",
  "abi": [
    {
      "inputs": [
        {
          "internalType": "uint256",
          "name": "initialSupply",
          "type": "uint256"
        }
      ],
      "stateMutability": "nonpayable",
      "type": "constructor"
    },
    {
      "anonymous": false,
      "inputs": [
        {
          "indexed": true,
          "internalType": "address",
          "name": "owner",
          "type": "address"
        },
        {
          "indexed": true,
          "internalType": "address",
          "name": "spender",
          "type": "address"
        },
        {
          "indexed": false,
          "internalType": "uint256",
          "name": "value",
          "type": "uint256"
        }
      ],
      "name": "Approval",
      "type": "event"
    },
    {
      "anonymous": false,
      "inputs": [
        {
          "indexed": true,
          "internalType": "address",
          "name": "delegator",
          "type": "address"
        },
        {
          "indexed": true,
          "internalType": "address",
          "name": "fromDelegate",
          "type": "address"
        },
        {
          "indexed": true,
          "internalType": "address",
          "name": "toDelegate",
          "type": "address"
        }
      ],
      "name": "DelegateChanged",
      "type": "event"
    },
    {
      "anonymous": false,
      "inputs": [
        {
          "indexed": true,
          "internalType": "address",
          "name": "delegate",
          "type": "address"
        },
        {
          "indexed": false,
          "internalType": "uint256",
          "name": "previousBalance",
          "type": "uint256"
        },
        {
          "indexed": false,
          "internalType": "uint256",
          "name": "newBalance",
          "type": "uint256"
        }
      ],
      "name": "DelegateVotesChanged",
      "type": "event"
    },
    {
      "anonymous": false,
      "inputs": [
        {
          "indexed": true,
          "internalType": "address",
          "name": "from",
          "type": "address"
        },
        {
          "indexed": true,
          "internalType": "address",
          "name": "to",
          "type": "address"
        },
        {
          "indexed": false,
          "internalType": "uint256",
          "name": "value",
          "type": "uint256"
        }
      ],
      "name": "Transfer",
      "type": "event"
    },
    {
      "inputs": [],
      "name": "DOMAIN_SEPARATOR",
      "outputs": [
        {
          "internalType": "bytes32",
          "name": "",
          "type": "bytes32"
        }
      ],
      "stateMutability": "view",
      "type": "function"
    },
    {
      "inputs": [
        {
          "internalType": "address",
          "name": "owner",
          "type": "address"
        },
        {
          "internalType": "address",
          "name": "spender",
          "type": "address"
        }
      ],
      "name": "allowance",
      "outputs": [
        {
          "internalType": "uint256",
          "name": "",
          "type": "uint256"
        }
      ],
      "stateMutability": "view",
      "type": "function"
    },
    {
      "inputs": [
        {
          "internalType": "address",
          "name": "spender",
          "type": "address"
        },
        {
          "internalType": "uint256",
          "name": "amount",
          "type": "uint256"
        }
      ],
      "name": "approve",
      "outputs": [
        {
          "internalType": "bool",
          "name": "",
          "type": "bool"
        }
      ],
      "stateMutability": "nonpayable",
      "type": "function"
    },
    {
      "inputs": [
        {
          "internalType": "address",
          "name": "account",
          "type": "address"
        }
      ],
      "name": "balanceOf",
      "outputs": [
        {
          "internalType": "uint256",
          "name": "",
          "type": "uint256"
        }
      ],
      "stateMutability": "view",
      "type": "function"
    },
    {
      "inputs": [
        {
          "internalType": "address",
          "name": "account",
          "type": "address"
        },
        {
          "internalType": "uint32",
          "name": "pos",
          "type": "uint32"
        }
      ],
      "name": "checkpoints",
      "outputs": [
        {
          "components": [
            {
              "internalType": "uint32",
              "name": "fromBlock",
              "type": "uint32"
            },
            {
              "internalType": "uint224",
              "name": "votes",
              "type": "uint224"
            }
          ],
          "internalType": "struct ERC20Votes.Checkpoint",
          "name": "",
          "type": "tuple"
        }
      ],
      "stateMutability": "view",
      "type": "function"
    },
    {
      "inputs": [],
      "name": "decimals",
      "outputs": [
        {
          "internalType": "uint8",
          "name": "",
          "type": "uint8"
        }
      ],
      "stateMutability": "view",
      "type": "function"
    },
    {
      "inputs": [
        {
          "internalType": "address",
          "name": "spender",
          "type": "address"
        },
        {
          "internalType": "uint256",
          "name": "subtractedValue",
          "type": "uint256"
        }
      ],
      "name": "decreaseAllowance",
      "outputs": [
        {
          "internalType": "bool",
          "name": "",
          "type": "bool"
        }
      ],
      "stateMutability": "nonpayable",
      "type": "function"
    },
    {
      "inputs": [
        {
          "internalType": "address",
          "name": "delegatee",
          "type": "address"
        }
      ],
      "name": "delegate",
      "outputs": [],
      "stateMutability": "nonpayable",
      "type": "function"
    },
    {
      "inputs": [
        {
          "internalType": "address",
          "name": "delegatee",
          "type": "address"
        },
        {
          "internalType": "uint256",
          "name": "nonce",
          "type": "uint256"
        },
        {
          "internalType": "uint256",
          "name": "expiry",
          "type": "uint256"
        },
        {
          "internalType": "uint8",
          "name": "v",
          "type": "uint8"
        },
        {
          "internalType": "bytes32",
          "name": "r",
          "type": "bytes32"
        },
        {
          "internalType": "bytes32",
          "name": "s",
          "type": "bytes32"
        }
      ],
      "name": "delegateBySig",
      "outputs": [],
      "stateMutability": "nonpayable",
      "type": "function"
    },
    {
      "inputs": [
        {
          "internalType": "address",
          "name": "account",
          "type": "address"
        }
      ],
      "name": "delegates",
      "outputs": [
        {
          "internalType": "address",
          "name": "",
          "type": "address"
        }
      ],
      "stateMutability": "view",
      "type": "function"
    },
    {
      "inputs": [
        {
          "internalType": "uint256",
          "name": "blockNumber",
          "type": "uint256"
        }
      ],
      "name": "getPastTotalSupply",
      "outputs": [
        {
          "internalType": "uint256",
          "name": "",
          "type": "uint256"
        }
      ],
      "stateMutability": "view",
      "type": "function"
    },
    {
      "inputs": [
        {
          "internalType": "address",
          "name": "account",
          "type": "address"
        },
        {
          "internalType": "uint256",
          "name": "blockNumber",
          "type": "uint256"
        }
      ],
      "name": "getPastVotes",
      "outputs": [
        {
          "internalType": "uint256",
          "name": "",
          "type": "uint256"
        }
      ],
      "stateMutability": "view",
      "type": "function"
    },
    {
      "inputs": [
        {
          "internalType": "address",
          "name": "account",
          "type": "address"
        }
      ],
      "name": "getVotes",
      "outputs": [
        {
          "internalType": "uint256",
          "name": "",
          "type": "uint256"
        }
      ],
      "stateMutability": "view",
      "type": "function"
    },
    {
      "inputs": [
        {
          "internalType": "address",
          "name": "spender",
          "type": "address"
        },
        {
          "internalType": "uint256",
          "name": "addedValue",
          "type": "uint256"
        }
      ],
      "name": "increaseAllowance",
      "outputs": [
        {
          "internalType": "bool",
          "name": "",
          "type": "bool"
        }
      ],
      "stateMutability": "nonpayable",
      "type": "function"
    },
    {
      "inputs": [],
      "name": "name",
      "outputs": [
        {
          "internalType": "string",
          "name": "",
          "type": "string"
        }
      ],
      "stateMutability": "view",
      "type": "function"
    },
    {
      "inputs": [
        {
          "internalType": "address",
          "name": "owner",
          "type": "address"
        }
      ],
      "name": "nonces",
      "outputs": [
        {
          "internalType": "uint256",
          "name": "",
          "type": "uint256"
        }
      ],
      "stateMutability": "view",
      "type": "function"
    },
    {
      "inputs": [
        {
          "internalType": "address",
          "name": "account",
          "type": "address"
        }
      ],
      "name": "numCheckpoints",
      "outputs": [
        {
          "internalType": "uint32",
          "name": "",
          "type": "uint32"
        }
      ],
      "stateMutability": "view",
      "type": "function"
    },
    {
      "inputs": [
        {
          "internalType": "address",
          "name": "owner",
          "type": "address"
        },
        {
          "internalType": "address",
          "name": "spender",
          "type": "address"
        },
        {
          "internalType": "uint256",
          "name": "value",
          "type": "uint256"
        },
        {
          "internalType": "uint256",
          "name": "deadline",
          "type": "uint256"
        },
        {
          "internalType": "uint8",
          "name": "v",
          "type": "uint8"
        },
        {
          "internalType": "bytes32",
          "name": "r",
          "type": "bytes32"
        },
        {
          "internalType": "bytes32",
          "name": "s",
          "type": "bytes32"
        }
      ],
      "name": "permit",
      "outputs": [],
      "stateMutability": "nonpayable",
      "type": "function"
    },
    {
      "inputs": [],
      "name": "symbol",
      "outputs": [
        {
          "internalType": "string",
          "name": "",
          "type": "string"
        }
      ],
      "stateMutability": "view",
      "type": "function"
    },
    {
      "inputs": [],
      "name": "totalSupply",
      "outputs": [
        {
          "internalType": "uint256",
          "name": "",
          "type": "uint256"
        }
      ],
      "stateMutability": "view",
      "type": "function"
    },
    {
      "inputs": [
        {
          "internalType": "address",
          "name": "to",
          "type": "address"
        },
        {
          "internalType": "uint256",
          "name": "amount",
          "type": "uint256"
        }
      ],
      "name": "transfer",
      "outputs": [
        {
          "internalType": "bool",
          "name": "",
          "type": "bool"
        }
      ],
      "stateMutability": "nonpayable",
      "type": "function"
    },
    {
      "inputs": [
        {
          "internalType": "address",
          "name": "from",
          "type": "address"
        },
        {
          "internalType": "address",
          "name": "to",
          "type": "address"
        },
        {
          "internalType": "uint256",
          "name": "amount",
          "type": "uint256"
        }
      ],
      "name": "transferFrom",
      "outputs": [
        {
          "internalType": "bool",
          "name": "",
          "type": "bool"
        }
      ],
      "stateMutability": "nonpayable",
      "type": "function"
    }
  ],
  "bytecode": "0x6101406040523480156200001257600080fd5b50604051620048d4380380620048d4833981810160405281019062000038919062000c65565b6040518060400160405280600d81526020017f417262697472756d546f6b656e00000000000000000000000000000000000000815250806040518060400160405280600181526020017f31000000000000000000000000000000000000000000000000000000000000008152506040518060400160405280600d81526020017f417262697472756d546f6b656e000000000000000000000000000000000000008152506040518060400160405280600481526020017f415242490000000000000000000000000000000000000000000000000000000081525081600390805190602001906200012992919062000b75565b5080600490805190602001906200014292919062000b75565b50505060008280519060200120905060008280519060200120905060007f8b73c3c69bb8fe3d512ecc4cf759cc79239f7b179b0ffacaa9a75d522b39400f90508260e081815250508161010081815250504660a08181525050620001ae8184846200021160201b60201c565b608081815250503073ffffffffffffffffffffffffffffffffffffffff1660c08173ffffffffffffffffffffffffffffffffffffffff16815250508061012081815250505050505050506200020a33826200024d60201b60201c565b5062001155565b600083838346306040516020016200022e95949392919062000d08565b6040516020818303038152906040528051906020012090509392505050565b6200026482826200026860201b62000e7b1760201c565b5050565b6200027f82826200032660201b62000f081760201c565b6200028f6200049f60201b60201c565b7bffffffffffffffffffffffffffffffffffffffffffffffffffffffff16620002bd620004c360201b60201c565b111562000301576040517f08c379a0000000000000000000000000000000000000000000000000000000008152600401620002f89062000dec565b60405180910390fd5b620003206009620004cd60201b620010681783620004e560201b60201c565b50505050565b600073ffffffffffffffffffffffffffffffffffffffff168273ffffffffffffffffffffffffffffffffffffffff16141562000399576040517f08c379a0000000000000000000000000000000000000000000000000000000008152600401620003909062000e5e565b60405180910390fd5b620003ad600083836200079660201b60201c565b8060026000828254620003c1919062000eaf565b92505081905550806000808473ffffffffffffffffffffffffffffffffffffffff1673ffffffffffffffffffffffffffffffffffffffff168152602001908152602001600020600082825462000418919062000eaf565b925050819055508173ffffffffffffffffffffffffffffffffffffffff16600073ffffffffffffffffffffffffffffffffffffffff167fddf252ad1be2c89b69c2b068fc378daa952ba7f163c4a11628f55a4df523b3ef836040516200047f919062000f0c565b60405180910390a36200049b600083836200079b60201b60201c565b5050565b60007bffffffffffffffffffffffffffffffffffffffffffffffffffffffff905090565b6000600254905090565b60008183620004dd919062000eaf565b905092915050565b600080600085805490509050600081146200055a57856001826200050a919062000f29565b815481106200051e576200051d62000f64565b5b9060005260206000200160000160049054906101000a90047bffffffffffffffffffffffffffffffffffffffffffffffffffffffff166200055d565b60005b7bffffffffffffffffffffffffffffffffffffffffffffffffffffffff1692506200058983858760201c565b9150600081118015620005e257504386600183620005a8919062000f29565b81548110620005bc57620005bb62000f64565b5b9060005260206000200160000160009054906101000a900463ffffffff1663ffffffff16145b156200068357620005fe82620007b860201b6200107e1760201c565b866001836200060e919062000f29565b8154811062000622576200062162000f64565b5b9060005260206000200160000160046101000a8154817bffffffffffffffffffffffffffffffffffffffffffffffffffffffff02191690837bffffffffffffffffffffffffffffffffffffffffffffffffffffffff1602179055506200078d565b856040518060400160405280620006a5436200082660201b620010e91760201c565b63ffffffff168152602001620006c685620007b860201b6200107e1760201c565b7bffffffffffffffffffffffffffffffffffffffffffffffffffffffff168152509080600181540180825580915050600190039060005260206000200160009091909190915060008201518160000160006101000a81548163ffffffff021916908363ffffffff16021790555060208201518160000160046101000a8154817bffffffffffffffffffffffffffffffffffffffffffffffffffffffff02191690837bffffffffffffffffffffffffffffffffffffffffffffffffffffffff16021790555050505b50935093915050565b505050565b620007b38383836200087c60201b6200113c1760201c565b505050565b60007bffffffffffffffffffffffffffffffffffffffffffffffffffffffff80168211156200081e576040517f08c379a0000000000000000000000000000000000000000000000000000000008152600401620008159062001009565b60405180910390fd5b819050919050565b600063ffffffff801682111562000874576040517f08c379a00000000000000000000000000000000000000000000000000000000081526004016200086b90620010a1565b60405180910390fd5b819050919050565b62000894838383620008cc60201b620011671760201c565b620008c7620008a984620008d160201b60201c565b620008ba84620008d160201b60201c565b836200093a60201b60201c565b505050565b505050565b6000600760008373ffffffffffffffffffffffffffffffffffffffff1673ffffffffffffffffffffffffffffffffffffffff16815260200190815260200160002060009054906101000a900473ffffffffffffffffffffffffffffffffffffffff169050919050565b8173ffffffffffffffffffffffffffffffffffffffff168373ffffffffffffffffffffffffffffffffffffffff1614158015620009775750600081115b1562000b5857600073ffffffffffffffffffffffffffffffffffffffff168373ffffffffffffffffffffffffffffffffffffffff161462000a6a5760008062000a11600860008773ffffffffffffffffffffffffffffffffffffffff1673ffffffffffffffffffffffffffffffffffffffff16815260200190815260200160002062000b5d60201b6200116c1785620004e560201b60201c565b915091508473ffffffffffffffffffffffffffffffffffffffff167fdec2bacdd2f05b59de34da9b523dff8be42e5e38e818c82fdb0bae774387a724838360405162000a5f929190620010c3565b60405180910390a250505b600073ffffffffffffffffffffffffffffffffffffffff168273ffffffffffffffffffffffffffffffffffffffff161462000b575760008062000afe600860008673ffffffffffffffffffffffffffffffffffffffff1673ffffffffffffffffffffffffffffffffffffffff168152602001908152602001600020620004cd60201b620010681785620004e560201b60201c565b915091508373ffffffffffffffffffffffffffffffffffffffff167fdec2bacdd2f05b59de34da9b523dff8be42e5e38e818c82fdb0bae774387a724838360405162000b4c929190620010c3565b60405180910390a250505b5b505050565b6000818362000b6d919062000f29565b905092915050565b82805462000b83906200111f565b90600052602060002090601f01602090048101928262000ba7576000855562000bf3565b82601f1062000bc257805160ff191683800117855562000bf3565b8280016001018555821562000bf3579182015b8281111562000bf257825182559160200191906001019062000bd5565b5b50905062000c02919062000c06565b5090565b5b8082111562000c2157600081600090555060010162000c07565b5090565b600080fd5b6000819050919050565b62000c3f8162000c2a565b811462000c4b57600080fd5b50565b60008151905062000c5f8162000c34565b92915050565b60006020828403121562000c7e5762000c7d62000c25565b5b600062000c8e8482850162000c4e565b91505092915050565b6000819050919050565b62000cac8162000c97565b82525050565b62000cbd8162000c2a565b82525050565b600073ffffffffffffffffffffffffffffffffffffffff82169050919050565b600062000cf08262000cc3565b9050919050565b62000d028162000ce3565b82525050565b600060a08201905062000d1f600083018862000ca1565b62000d2e602083018762000ca1565b62000d3d604083018662000ca1565b62000d4c606083018562000cb2565b62000d5b608083018462000cf7565b9695505050505050565b600082825260208201905092915050565b7f4552433230566f7465733a20746f74616c20737570706c79207269736b73206f60008201527f766572666c6f77696e6720766f74657300000000000000000000000000000000602082015250565b600062000dd460308362000d65565b915062000de18262000d76565b604082019050919050565b6000602082019050818103600083015262000e078162000dc5565b9050919050565b7f45524332303a206d696e7420746f20746865207a65726f206164647265737300600082015250565b600062000e46601f8362000d65565b915062000e538262000e0e565b602082019050919050565b6000602082019050818103600083015262000e798162000e37565b9050919050565b7f4e487b7100000000000000000000000000000000000000000000000000000000600052601160045260246000fd5b600062000ebc8262000c2a565b915062000ec98362000c2a565b9250827fffffffffffffffffffffffffffffffffffffffffffffffffffffffffffffffff0382111562000f015762000f0062000e80565b5b828201905092915050565b600060208201905062000f23600083018462000cb2565b92915050565b600062000f368262000c2a565b915062000f438362000c2a565b92508282101562000f595762000f5862000e80565b5b828203905092915050565b7f4e487b7100000000000000000000000000000000000000000000000000000000600052603260045260246000fd5b7f53616665436173743a2076616c756520646f65736e27742066697420696e203260008201527f3234206269747300000000000000000000000000000000000000000000000000602082015250565b600062000ff160278362000d65565b915062000ffe8262000f93565b604082019050919050565b60006020820190508181036000830152620010248162000fe2565b9050919050565b7f53616665436173743a2076616c756520646f65736e27742066697420696e203360008201527f3220626974730000000000000000000000000000000000000000000000000000602082015250565b60006200108960268362000d65565b915062001096826200102b565b604082019050919050565b60006020820190508181036000830152620010bc816200107a565b9050919050565b6000604082019050620010da600083018562000cb2565b620010e9602083018462000cb2565b9392505050565b7f4e487b7100000000000000000000000000000000000000000000000000000000600052602260045260246000fd5b600060028204905060018216806200113857607f821691505b602082108114156200114f576200114e620010f0565b5b50919050565b60805160a05160c05160e051610100516101205161372f620011a56000396000611710015260006117520152600061173101526000611666015260006116bc015260006116e5015261372f6000f3fe608060405234801561001057600080fd5b50600436106101425760003560e01c806370a08231116100b8578063a457c2d71161007c578063a457c2d7146103d9578063a9059cbb14610409578063c3cda52014610439578063d505accf14610455578063dd62ed3e14610471578063f1127ed8146104a157610142565b806370a08231146102fb5780637ecebe001461032b5780638e539e8c1461035b57806395d89b411461038b5780639ab24eb0146103a957610142565b80633644e5151161010a5780633644e51514610201578063395093511461021f5780633a46b1a81461024f578063587cde1e1461027f5780635c19a95c146102af5780636fcfff45146102cb57610142565b806306fdde0314610147578063095ea7b31461016557806318160ddd1461019557806323b872dd146101b3578063313ce567146101e3575b600080fd5b61014f6104d1565b60405161015c919061235f565b60405180910390f35b61017f600480360381019061017a919061241a565b610563565b60405161018c9190612475565b60405180910390f35b61019d610586565b6040516101aa919061249f565b60405180910390f35b6101cd60048036038101906101c891906124ba565b610590565b6040516101da9190612475565b60405180910390f35b6101eb6105bf565b6040516101f89190612529565b60405180910390f35b6102096105c8565b604051610216919061255d565b60405180910390f35b6102396004803603810190610234919061241a565b6105d7565b6040516102469190612475565b60405180910390f35b6102696004803603810190610264919061241a565b61060e565b604051610276919061249f565b60405180910390f35b61029960048036038101906102949190612578565b6106a2565b6040516102a691906125b4565b60405180910390f35b6102c960048036038101906102c49190612578565b61070b565b005b6102e560048036038101906102e09190612578565b61071f565b6040516102f291906125ee565b60405180910390f35b61031560048036038101906103109190612578565b610773565b604051610322919061249f565b60405180910390f35b61034560048036038101906103409190612578565b6107bb565b604051610352919061249f565b60405180910390f35b61037560048036038101906103709190612609565b61080b565b604051610382919061249f565b60405180910390f35b610393610861565b6040516103a0919061235f565b60405180910390f35b6103c360048036038101906103be9190612578565b6108f3565b6040516103d0919061249f565b60405180910390f35b6103f360048036038101906103ee919061241a565b610a04565b6040516104009190612475565b60405180910390f35b610423600480360381019061041e919061241a565b610a7b565b6040516104309190612475565b60405180910390f35b610453600480360381019061044e919061268e565b610a9e565b005b61046f600480360381019061046a919061271b565b610ba2565b005b61048b600480360381019061048691906127bd565b610ce4565b604051610498919061249f565b60405180910390f35b6104bb60048036038101906104b69190612829565b610d6b565b6040516104c891906128de565b60405180910390f35b6060600380546104e090612928565b80601f016020809104026020016040519081016040528092919081815260200182805461050c90612928565b80156105595780601f1061052e57610100808354040283529160200191610559565b820191906000526020600020905b81548152906001019060200180831161053c57829003601f168201915b5050505050905090565b60008061056e611182565b905061057b81858561118a565b600191505092915050565b6000600254905090565b60008061059b611182565b90506105a8858285611355565b6105b38585856113e1565b60019150509392505050565b60006012905090565b60006105d2611662565b905090565b6000806105e2611182565b90506106038185856105f48589610ce4565b6105fe9190612989565b61118a565b600191505092915050565b6000438210610652576040517f08c379a000000000000000000000000000000000000000000000000000000000815260040161064990612a2b565b60405180910390fd5b61069a600860008573ffffffffffffffffffffffffffffffffffffffff1673ffffffffffffffffffffffffffffffffffffffff1681526020019081526020016000208361177c565b905092915050565b6000600760008373ffffffffffffffffffffffffffffffffffffffff1673ffffffffffffffffffffffffffffffffffffffff16815260200190815260200160002060009054906101000a900473ffffffffffffffffffffffffffffffffffffffff169050919050565b61071c610716611182565b82611888565b50565b600061076c600860008473ffffffffffffffffffffffffffffffffffffffff1673ffffffffffffffffffffffffffffffffffffffff168152602001908152602001600020805490506110e9565b9050919050565b60008060008373ffffffffffffffffffffffffffffffffffffffff1673ffffffffffffffffffffffffffffffffffffffff168152602001908152602001600020549050919050565b6000610804600560008473ffffffffffffffffffffffffffffffffffffffff1673ffffffffffffffffffffffffffffffffffffffff1681526020019081526020016000206119a2565b9050919050565b600043821061084f576040517f08c379a000000000000000000000000000000000000000000000000000000000815260040161084690612a2b565b60405180910390fd5b61085a60098361177c565b9050919050565b60606004805461087090612928565b80601f016020809104026020016040519081016040528092919081815260200182805461089c90612928565b80156108e95780601f106108be576101008083540402835291602001916108e9565b820191906000526020600020905b8154815290600101906020018083116108cc57829003601f168201915b5050505050905090565b600080600860008473ffffffffffffffffffffffffffffffffffffffff1673ffffffffffffffffffffffffffffffffffffffff168152602001908152602001600020805490509050600081146109db57600860008473ffffffffffffffffffffffffffffffffffffffff1673ffffffffffffffffffffffffffffffffffffffff16815260200190815260200160002060018261098f9190612a4b565b815481106109a05761099f612a7f565b5b9060005260206000200160000160049054906101000a90047bffffffffffffffffffffffffffffffffffffffffffffffffffffffff166109de565b60005b7bffffffffffffffffffffffffffffffffffffffffffffffffffffffff16915050919050565b600080610a0f611182565b90506000610a1d8286610ce4565b905083811015610a62576040517f08c379a0000000000000000000000000000000000000000000000000000000008152600401610a5990612b20565b60405180910390fd5b610a6f828686840361118a565b60019250505092915050565b600080610a86611182565b9050610a938185856113e1565b600191505092915050565b83421115610ae1576040517f08c379a0000000000000000000000000000000000000000000000000000000008152600401610ad890612b8c565b60405180910390fd5b6000610b43610b3b7fe48329057bfd03d55e49b547132e39cffd9c1820ad7b9d4c5307691425d15adf898989604051602001610b209493929190612bac565b604051602081830303815290604052805190602001206119b0565b8585856119ca565b9050610b4e816119f5565b8614610b8f576040517f08c379a0000000000000000000000000000000000000000000000000000000008152600401610b8690612c3d565b60405180910390fd5b610b998188611888565b50505050505050565b83421115610be5576040517f08c379a0000000000000000000000000000000000000000000000000000000008152600401610bdc90612ca9565b60405180910390fd5b60007f6e71edae12b1b97f4d1f60370fef10105fa2faae0126114a169c64845d6126c9888888610c148c6119f5565b89604051602001610c2a96959493929190612cc9565b6040516020818303038152906040528051906020012090506000610c4d826119b0565b90506000610c5d828787876119ca565b90508973ffffffffffffffffffffffffffffffffffffffff168173ffffffffffffffffffffffffffffffffffffffff1614610ccd576040517f08c379a0000000000000000000000000000000000000000000000000000000008152600401610cc490612d76565b60405180910390fd5b610cd88a8a8a61118a565b50505050505050505050565b6000600160008473ffffffffffffffffffffffffffffffffffffffff1673ffffffffffffffffffffffffffffffffffffffff16815260200190815260200160002060008373ffffffffffffffffffffffffffffffffffffffff1673ffffffffffffffffffffffffffffffffffffffff16815260200190815260200160002054905092915050565b610d73612288565b600860008473ffffffffffffffffffffffffffffffffffffffff1673ffffffffffffffffffffffffffffffffffffffff1681526020019081526020016000208263ffffffff1681548110610dca57610dc9612a7f565b5b906000526020600020016040518060400160405290816000820160009054906101000a900463ffffffff1663ffffffff1663ffffffff1681526020016000820160049054906101000a90047bffffffffffffffffffffffffffffffffffffffffffffffffffffffff167bffffffffffffffffffffffffffffffffffffffffffffffffffffffff167bffffffffffffffffffffffffffffffffffffffffffffffffffffffff1681525050905092915050565b610e858282610f08565b610e8d611a53565b7bffffffffffffffffffffffffffffffffffffffffffffffffffffffff16610eb3610586565b1115610ef4576040517f08c379a0000000000000000000000000000000000000000000000000000000008152600401610eeb90612e08565b60405180910390fd5b610f02600961106883611a77565b50505050565b600073ffffffffffffffffffffffffffffffffffffffff168273ffffffffffffffffffffffffffffffffffffffff161415610f78576040517f08c379a0000000000000000000000000000000000000000000000000000000008152600401610f6f90612e74565b60405180910390fd5b610f8460008383611cef565b8060026000828254610f969190612989565b92505081905550806000808473ffffffffffffffffffffffffffffffffffffffff1673ffffffffffffffffffffffffffffffffffffffff1681526020019081526020016000206000828254610feb9190612989565b925050819055508173ffffffffffffffffffffffffffffffffffffffff16600073ffffffffffffffffffffffffffffffffffffffff167fddf252ad1be2c89b69c2b068fc378daa952ba7f163c4a11628f55a4df523b3ef83604051611050919061249f565b60405180910390a361106460008383611cf4565b5050565b600081836110769190612989565b905092915050565b60007bffffffffffffffffffffffffffffffffffffffffffffffffffffffff80168211156110e1576040517f08c379a00000000000000000000000000000000000000000000000000000000081526004016110d890612f06565b60405180910390fd5b819050919050565b600063ffffffff8016821115611134576040517f08c379a000000000000000000000000000000000000000000000000000000000815260040161112b90612f98565b60405180910390fd5b819050919050565b611147838383611167565b611162611153846106a2565b61115c846106a2565b83611d04565b505050565b505050565b6000818361117a9190612a4b565b905092915050565b600033905090565b600073ffffffffffffffffffffffffffffffffffffffff168373ffffffffffffffffffffffffffffffffffffffff1614156111fa576040517f08c379a00000000000000000000000000000000000000000000000000000000081526004016111f19061302a565b60405180910390fd5b600073ffffffffffffffffffffffffffffffffffffffff168273ffffffffffffffffffffffffffffffffffffffff16141561126a576040517f08c379a0000000000000000000000000000000000000000000000000000000008152600401611261906130bc565b60405180910390fd5b80600160008573ffffffffffffffffffffffffffffffffffffffff1673ffffffffffffffffffffffffffffffffffffffff16815260200190815260200160002060008473ffffffffffffffffffffffffffffffffffffffff1673ffffffffffffffffffffffffffffffffffffffff168152602001908152602001600020819055508173ffffffffffffffffffffffffffffffffffffffff168373ffffffffffffffffffffffffffffffffffffffff167f8c5be1e5ebec7d5bd14f71427d1e84f3dd0314c0f7b2291e5b200ac8c7c3b92583604051611348919061249f565b60405180910390a3505050565b60006113618484610ce4565b90507fffffffffffffffffffffffffffffffffffffffffffffffffffffffffffffffff81146113db57818110156113cd576040517f08c379a00000000000000000000000000000000000000000000000000000000081526004016113c490613128565b60405180910390fd5b6113da848484840361118a565b5b50505050565b600073ffffffffffffffffffffffffffffffffffffffff168373ffffffffffffffffffffffffffffffffffffffff161415611451576040517f08c379a0000000000000000000000000000000000000000000000000000000008152600401611448906131ba565b60405180910390fd5b600073ffffffffffffffffffffffffffffffffffffffff168273ffffffffffffffffffffffffffffffffffffffff1614156114c1576040517f08c379a00000000000000000000000000000000000000000000000000000000081526004016114b89061324c565b60405180910390fd5b6114cc838383611cef565b60008060008573ffffffffffffffffffffffffffffffffffffffff1673ffffffffffffffffffffffffffffffffffffffff16815260200190815260200160002054905081811015611552576040517f08c379a0000000000000000000000000000000000000000000000000000000008152600401611549906132de565b60405180910390fd5b8181036000808673ffffffffffffffffffffffffffffffffffffffff1673ffffffffffffffffffffffffffffffffffffffff16815260200190815260200160002081905550816000808573ffffffffffffffffffffffffffffffffffffffff1673ffffffffffffffffffffffffffffffffffffffff16815260200190815260200160002060008282546115e59190612989565b925050819055508273ffffffffffffffffffffffffffffffffffffffff168473ffffffffffffffffffffffffffffffffffffffff167fddf252ad1be2c89b69c2b068fc378daa952ba7f163c4a11628f55a4df523b3ef84604051611649919061249f565b60405180910390a361165c848484611cf4565b50505050565b60007f000000000000000000000000000000000000000000000000000000000000000073ffffffffffffffffffffffffffffffffffffffff163073ffffffffffffffffffffffffffffffffffffffff161480156116de57507f000000000000000000000000000000000000000000000000000000000000000046145b1561170b577f00000000000000000000000000000000000000000000000000000000000000009050611779565b6117767f00000000000000000000000000000000000000000000000000000000000000007f00000000000000000000000000000000000000000000000000000000000000007f0000000000000000000000000000000000000000000000000000000000000000611efd565b90505b90565b6000808380549050905060005b818110156117fb57600061179d8284611f37565b9050848682815481106117b3576117b2612a7f565b5b9060005260206000200160000160009054906101000a900463ffffffff1663ffffffff1611156117e5578092506117f5565b6001816117f29190612989565b91505b50611789565b6000821461185d57846001836118119190612a4b565b8154811061182257611821612a7f565b5b9060005260206000200160000160049054906101000a90047bffffffffffffffffffffffffffffffffffffffffffffffffffffffff16611860565b60005b7bffffffffffffffffffffffffffffffffffffffffffffffffffffffff169250505092915050565b6000611893836106a2565b905060006118a084610773565b905082600760008673ffffffffffffffffffffffffffffffffffffffff1673ffffffffffffffffffffffffffffffffffffffff16815260200190815260200160002060006101000a81548173ffffffffffffffffffffffffffffffffffffffff021916908373ffffffffffffffffffffffffffffffffffffffff1602179055508273ffffffffffffffffffffffffffffffffffffffff168273ffffffffffffffffffffffffffffffffffffffff168573ffffffffffffffffffffffffffffffffffffffff167f3134e8a2e6d97e929a7e54011ea5485d7d196dd5f0ba4d4ef95803e8e3fc257f60405160405180910390a461199c828483611d04565b50505050565b600081600001549050919050565b60006119c36119bd611662565b83611f5d565b9050919050565b60008060006119db87878787611f90565b915091506119e88161209d565b8192505050949350505050565b600080600560008473ffffffffffffffffffffffffffffffffffffffff1673ffffffffffffffffffffffffffffffffffffffff1681526020019081526020016000209050611a42816119a2565b9150611a4d81612272565b50919050565b60007bffffffffffffffffffffffffffffffffffffffffffffffffffffffff905090565b60008060008580549050905060008114611ae55785600182611a999190612a4b565b81548110611aaa57611aa9612a7f565b5b9060005260206000200160000160049054906101000a90047bffffffffffffffffffffffffffffffffffffffffffffffffffffffff16611ae8565b60005b7bffffffffffffffffffffffffffffffffffffffffffffffffffffffff169250611b1683858763ffffffff16565b9150600081118015611b6957504386600183611b329190612a4b565b81548110611b4357611b42612a7f565b5b9060005260206000200160000160009054906101000a900463ffffffff1663ffffffff16145b15611bf657611b778261107e565b86600183611b859190612a4b565b81548110611b9657611b95612a7f565b5b9060005260206000200160000160046101000a8154817bffffffffffffffffffffffffffffffffffffffffffffffffffffffff02191690837bffffffffffffffffffffffffffffffffffffffffffffffffffffffff160217905550611ce6565b856040518060400160405280611c0b436110e9565b63ffffffff168152602001611c1f8561107e565b7bffffffffffffffffffffffffffffffffffffffffffffffffffffffff168152509080600181540180825580915050600190039060005260206000200160009091909190915060008201518160000160006101000a81548163ffffffff021916908363ffffffff16021790555060208201518160000160046101000a8154817bffffffffffffffffffffffffffffffffffffffffffffffffffffffff02191690837bffffffffffffffffffffffffffffffffffffffffffffffffffffffff16021790555050505b50935093915050565b505050565b611cff83838361113c565b505050565b8173ffffffffffffffffffffffffffffffffffffffff168373ffffffffffffffffffffffffffffffffffffffff1614158015611d405750600081115b15611ef857600073ffffffffffffffffffffffffffffffffffffffff168373ffffffffffffffffffffffffffffffffffffffff1614611e1e57600080611dc7600860008773ffffffffffffffffffffffffffffffffffffffff1673ffffffffffffffffffffffffffffffffffffffff16815260200190815260200160002061116c85611a77565b915091508473ffffffffffffffffffffffffffffffffffffffff167fdec2bacdd2f05b59de34da9b523dff8be42e5e38e818c82fdb0bae774387a7248383604051611e139291906132fe565b60405180910390a250505b600073ffffffffffffffffffffffffffffffffffffffff168273ffffffffffffffffffffffffffffffffffffffff1614611ef757600080611ea0600860008673ffffffffffffffffffffffffffffffffffffffff1673ffffffffffffffffffffffffffffffffffffffff16815260200190815260200160002061106885611a77565b915091508373ffffffffffffffffffffffffffffffffffffffff167fdec2bacdd2f05b59de34da9b523dff8be42e5e38e818c82fdb0bae774387a7248383604051611eec9291906132fe565b60405180910390a250505b5b505050565b60008383834630604051602001611f18959493929190613327565b6040516020818303038152906040528051906020012090509392505050565b60006002828418611f4891906133a9565b828416611f559190612989565b905092915050565b60008282604051602001611f72929190613452565b60405160208183030381529060405280519060200120905092915050565b6000807f7fffffffffffffffffffffffffffffff5d576e7357a4501ddfe92f46681b20a08360001c1115611fcb576000600391509150612094565b601b8560ff1614158015611fe35750601c8560ff1614155b15611ff5576000600491509150612094565b60006001878787876040516000815260200160405260405161201a9493929190613489565b6020604051602081039080840390855afa15801561203c573d6000803e3d6000fd5b505050602060405103519050600073ffffffffffffffffffffffffffffffffffffffff168173ffffffffffffffffffffffffffffffffffffffff16141561208b57600060019250925050612094565b80600092509250505b94509492505050565b600060048111156120b1576120b06134ce565b5b8160048111156120c4576120c36134ce565b5b14156120cf5761226f565b600160048111156120e3576120e26134ce565b5b8160048111156120f6576120f56134ce565b5b1415612137576040517f08c379a000000000000000000000000000000000000000000000000000000000815260040161212e90613549565b60405180910390fd5b6002600481111561214b5761214a6134ce565b5b81600481111561215e5761215d6134ce565b5b141561219f576040517f08c379a0000000000000000000000000000000000000000000000000000000008152600401612196906135b5565b60405180910390fd5b600360048111156121b3576121b26134ce565b5b8160048111156121c6576121c56134ce565b5b1415612207576040517f08c379a00000000000000000000000000000000000000000000000000000000081526004016121fe90613647565b60405180910390fd5b60048081111561221a576122196134ce565b5b81600481111561222d5761222c6134ce565b5b141561226e576040517f08c379a0000000000000000000000000000000000000000000000000000000008152600401612265906136d9565b60405180910390fd5b5b50565b6001816000016000828254019250508190555050565b6040518060400160405280600063ffffffff16815260200160007bffffffffffffffffffffffffffffffffffffffffffffffffffffffff1681525090565b600081519050919050565b600082825260208201905092915050565b60005b838110156123005780820151818401526020810190506122e5565b8381111561230f576000848401525b50505050565b6000601f19601f8301169050919050565b6000612331826122c6565b61233b81856122d1565b935061234b8185602086016122e2565b61235481612315565b840191505092915050565b600060208201905081810360008301526123798184612326565b905092915050565b600080fd5b600073ffffffffffffffffffffffffffffffffffffffff82169050919050565b60006123b182612386565b9050919050565b6123c1816123a6565b81146123cc57600080fd5b50565b6000813590506123de816123b8565b92915050565b6000819050919050565b6123f7816123e4565b811461240257600080fd5b50565b600081359050612414816123ee565b92915050565b6000806040838503121561243157612430612381565b5b600061243f858286016123cf565b925050602061245085828601612405565b9150509250929050565b60008115159050919050565b61246f8161245a565b82525050565b600060208201905061248a6000830184612466565b92915050565b612499816123e4565b82525050565b60006020820190506124b46000830184612490565b92915050565b6000806000606084860312156124d3576124d2612381565b5b60006124e1868287016123cf565b93505060206124f2868287016123cf565b925050604061250386828701612405565b9150509250925092565b600060ff82169050919050565b6125238161250d565b82525050565b600060208201905061253e600083018461251a565b92915050565b6000819050919050565b61255781612544565b82525050565b6000602082019050612572600083018461254e565b92915050565b60006020828403121561258e5761258d612381565b5b600061259c848285016123cf565b91505092915050565b6125ae816123a6565b82525050565b60006020820190506125c960008301846125a5565b92915050565b600063ffffffff82169050919050565b6125e8816125cf565b82525050565b600060208201905061260360008301846125df565b92915050565b60006020828403121561261f5761261e612381565b5b600061262d84828501612405565b91505092915050565b61263f8161250d565b811461264a57600080fd5b50565b60008135905061265c81612636565b92915050565b61266b81612544565b811461267657600080fd5b50565b60008135905061268881612662565b92915050565b60008060008060008060c087890312156126ab576126aa612381565b5b60006126b989828a016123cf565b96505060206126ca89828a01612405565b95505060406126db89828a01612405565b94505060606126ec89828a0161264d565b93505060806126fd89828a01612679565b92505060a061270e89828a01612679565b9150509295509295509295565b600080600080600080600060e0888a03121561273a57612739612381565b5b60006127488a828b016123cf565b97505060206127598a828b016123cf565b965050604061276a8a828b01612405565b955050606061277b8a828b01612405565b945050608061278c8a828b0161264d565b93505060a061279d8a828b01612679565b92505060c06127ae8a828b01612679565b91505092959891949750929550565b600080604083850312156127d4576127d3612381565b5b60006127e2858286016123cf565b92505060206127f3858286016123cf565b9150509250929050565b612806816125cf565b811461281157600080fd5b50565b600081359050612823816127fd565b92915050565b600080604083850312156128405761283f612381565b5b600061284e858286016123cf565b925050602061285f85828601612814565b9150509250929050565b612872816125cf565b82525050565b60007bffffffffffffffffffffffffffffffffffffffffffffffffffffffff82169050919050565b6128a981612878565b82525050565b6040820160008201516128c56000850182612869565b5060208201516128d860208501826128a0565b50505050565b60006040820190506128f360008301846128af565b92915050565b7f4e487b7100000000000000000000000000000000000000000000000000000000600052602260045260246000fd5b6000600282049050600182168061294057607f821691505b60208210811415612954576129536128f9565b5b50919050565b7f4e487b7100000000000000000000000000000000000000000000000000000000600052601160045260246000fd5b6000612994826123e4565b915061299f836123e4565b9250827fffffffffffffffffffffffffffffffffffffffffffffffffffffffffffffffff038211156129d4576129d361295a565b5b828201905092915050565b7f4552433230566f7465733a20626c6f636b206e6f7420796574206d696e656400600082015250565b6000612a15601f836122d1565b9150612a20826129df565b602082019050919050565b60006020820190508181036000830152612a4481612a08565b9050919050565b6000612a56826123e4565b9150612a61836123e4565b925082821015612a7457612a7361295a565b5b828203905092915050565b7f4e487b7100000000000000000000000000000000000000000000000000000000600052603260045260246000fd5b7f45524332303a2064656372656173656420616c6c6f77616e63652062656c6f7760008201527f207a65726f000000000000000000000000000000000000000000000000000000602082015250565b6000612b0a6025836122d1565b9150612b1582612aae565b604082019050919050565b60006020820190508181036000830152612b3981612afd565b9050919050565b7f4552433230566f7465733a207369676e61747572652065787069726564000000600082015250565b6000612b76601d836122d1565b9150612b8182612b40565b602082019050919050565b60006020820190508181036000830152612ba581612b69565b9050919050565b6000608082019050612bc1600083018761254e565b612bce60208301866125a5565b612bdb6040830185612490565b612be86060830184612490565b95945050505050565b7f4552433230566f7465733a20696e76616c6964206e6f6e636500000000000000600082015250565b6000612c276019836122d1565b9150612c3282612bf1565b602082019050919050565b60006020820190508181036000830152612c5681612c1a565b9050919050565b7f45524332305065726d69743a206578706972656420646561646c696e65000000600082015250565b6000612c93601d836122d1565b9150612c9e82612c5d565b602082019050919050565b60006020820190508181036000830152612cc281612c86565b9050919050565b600060c082019050612cde600083018961254e565b612ceb60208301886125a5565b612cf860408301876125a5565b612d056060830186612490565b612d126080830185612490565b612d1f60a0830184612490565b979650505050505050565b7f45524332305065726d69743a20696e76616c6964207369676e61747572650000600082015250565b6000612d60601e836122d1565b9150612d6b82612d2a565b602082019050919050565b60006020820190508181036000830152612d8f81612d53565b9050919050565b7f4552433230566f7465733a20746f74616c20737570706c79207269736b73206f60008201527f766572666c6f77696e6720766f74657300000000000000000000000000000000602082015250565b6000612df26030836122d1565b9150612dfd82612d96565b604082019050919050565b60006020820190508181036000830152612e2181612de5565b9050919050565b7f45524332303a206d696e7420746f20746865207a65726f206164647265737300600082015250565b6000612e5e601f836122d1565b9150612e6982612e28565b602082019050919050565b60006020820190508181036000830152612e8d81612e51565b9050919050565b7f53616665436173743a2076616c756520646f65736e27742066697420696e203260008201527f3234206269747300000000000000000000000000000000000000000000000000602082015250565b6000612ef06027836122d1565b9150612efb82612e94565b604082019050919050565b60006020820190508181036000830152612f1f81612ee3565b9050919050565b7f53616665436173743a2076616c756520646f65736e27742066697420696e203360008201527f3220626974730000000000000000000000000000000000000000000000000000602082015250565b6000612f826026836122d1565b9150612f8d82612f26565b604082019050919050565b60006020820190508181036000830152612fb181612f75565b9050919050565b7f45524332303a20617070726f76652066726f6d20746865207a65726f2061646460008201527f7265737300000000000000000000000000000000000000000000000000000000602082015250565b60006130146024836122d1565b915061301f82612fb8565b604082019050919050565b6000602082019050818103600083015261304381613007565b9050919050565b7f45524332303a20617070726f766520746f20746865207a65726f20616464726560008201527f7373000000000000000000000000000000000000000000000000000000000000602082015250565b60006130a66022836122d1565b91506130b18261304a565b604082019050919050565b600060208201905081810360008301526130d581613099565b9050919050565b7f45524332303a20696e73756666696369656e7420616c6c6f77616e6365000000600082015250565b6000613112601d836122d1565b915061311d826130dc565b602082019050919050565b6000602082019050818103600083015261314181613105565b9050919050565b7f45524332303a207472616e736665722066726f6d20746865207a65726f20616460008201527f6472657373000000000000000000000000000000000000000000000000000000602082015250565b60006131a46025836122d1565b91506131af82613148565b604082019050919050565b600060208201905081810360008301526131d381613197565b9050919050565b7f45524332303a207472616e7366657220746f20746865207a65726f206164647260008201527f6573730000000000000000000000000000000000000000000000000000000000602082015250565b60006132366023836122d1565b9150613241826131da565b604082019050919050565b6000602082019050818103600083015261326581613229565b9050919050565b7f45524332303a207472616e7366657220616d6f756e742065786365656473206260008201527f616c616e63650000000000000000000000000000000000000000000000000000602082015250565b60006132c86026836122d1565b91506132d38261326c565b604082019050919050565b600060208201905081810360008301526132f7816132bb565b9050919050565b60006040820190506133136000830185612490565b6133206020830184612490565b9392505050565b600060a08201905061333c600083018861254e565b613349602083018761254e565b613356604083018661254e565b6133636060830185612490565b61337060808301846125a5565b9695505050505050565b7f4e487b7100000000000000000000000000000000000000000000000000000000600052601260045260246000fd5b60006133b4826123e4565b91506133bf836123e4565b9250826133cf576133ce61337a565b5b828204905092915050565b600081905092915050565b7f1901000000000000000000000000000000000000000000000000000000000000600082015250565b600061341b6002836133da565b9150613426826133e5565b600282019050919050565b6000819050919050565b61344c61344782612544565b613431565b82525050565b600061345d8261340e565b9150613469828561343b565b602082019150613479828461343b565b6020820191508190509392505050565b600060808201905061349e600083018761254e565b6134ab602083018661251a565b6134b8604083018561254e565b6134c5606083018461254e565b95945050505050565b7f4e487b7100000000000000000000000000000000000000000000000000000000600052602160045260246000fd5b7f45434453413a20696e76616c6964207369676e61747572650000000000000000600082015250565b60006135336018836122d1565b915061353e826134fd565b602082019050919050565b6000602082019050818103600083015261356281613526565b9050919050565b7f45434453413a20696e76616c6964207369676e6174757265206c656e67746800600082015250565b600061359f601f836122d1565b91506135aa82613569565b602082019050919050565b600060208201905081810360008301526135ce81613592565b9050919050565b7f45434453413a20696e76616c6964207369676e6174757265202773272076616c60008201527f7565000000000000000000000000000000000000000000000000000000000000602082015250565b60006136316022836122d1565b915061363c826135d5565b604082019050919050565b6000602082019050818103600083015261366081613624565b9050919050565b7f45434453413a20696e76616c6964207369676e6174757265202776272076616c60008201527f7565000000000000000000000000000000000000000000000000000000000000602082015250565b60006136c36022836122d1565b91506136ce82613667565b604082019050919050565b600060208201905081810360008301526136f2816136b6565b905091905056fea26469706673582212203ca9a487e3b3b54403b49d57f632256f0b3a847b52aba86f5d604426451520b164736f6c63430008090033",
  "linkReferences": {},
  "deployedLinkReferences": {}
}