{
  "_format": "hh-sol-artifact-1",
  "contractName": "CRAFGovernor",
  "sourceName": "contracts/CRAFGovernor.sol",
  "abi": [
    {
      "inputs": [
        {
          "internalType": "contract IVotes",
          "name": "_token",
          "type": "address"
        }
      ],
      "stateMutability": "nonpayable",
      "type": "constructor"
    },
    {
      "inputs": [],
      "name": "Empty",
      "type": "error"
    },
    {
      "anonymous": false,
      "inputs": [
        {
          "indexed": false,
          "internalType": "uint256",
          "name": "proposalId",
          "type": "uint256"
        }
      ],
      "name": "ProposalCanceled",
      "type": "event"
    },
    {
      "anonymous": false,
      "inputs": [
        {
          "indexed": false,
          "internalType": "uint256",
          "name": "proposalId",
          "type": "uint256"
        },
        {
          "indexed": false,
          "internalType": "address",
          "name": "proposer",
          "type": "address"
        },
        {
          "indexed": false,
          "internalType": "address[]",
          "name": "targets",
          "type": "address[]"
        },
        {
          "indexed": false,
          "internalType": "uint256[]",
          "name": "values",
          "type": "uint256[]"
        },
        {
          "indexed": false,
          "internalType": "string[]",
          "name": "signatures",
          "type": "string[]"
        },
        {
          "indexed": false,
          "internalType": "bytes[]",
          "name": "calldatas",
          "type": "bytes[]"
        },
        {
          "indexed": false,
          "internalType": "uint256",
          "name": "startBlock",
          "type": "uint256"
        },
        {
          "indexed": false,
          "internalType": "uint256",
          "name": "endBlock",
          "type": "uint256"
        },
        {
          "indexed": false,
          "internalType": "string",
          "name": "description",
          "type": "string"
        }
      ],
      "name": "ProposalCreated",
      "type": "event"
    },
    {
      "anonymous": false,
      "inputs": [
        {
          "indexed": false,
          "internalType": "uint256",
          "name": "proposalId",
          "type": "uint256"
        }
      ],
      "name": "ProposalExecuted",
      "type": "event"
    },
    {
      "anonymous": false,
      "inputs": [
        {
          "indexed": false,
          "internalType": "uint256",
          "name": "oldProposalThreshold",
          "type": "uint256"
        },
        {
          "indexed": false,
          "internalType": "uint256",
          "name": "newProposalThreshold",
          "type": "uint256"
        }
      ],
      "name": "ProposalThresholdSet",
      "type": "event"
    },
    {
      "anonymous": false,
      "inputs": [
        {
          "indexed": false,
          "internalType": "uint256",
          "name": "oldQuorumNumerator",
          "type": "uint256"
        },
        {
          "indexed": false,
          "internalType": "uint256",
          "name": "newQuorumNumerator",
          "type": "uint256"
        }
      ],
      "name": "QuorumNumeratorUpdated",
      "type": "event"
    },
    {
      "anonymous": false,
      "inputs": [
        {
          "indexed": true,
          "internalType": "address",
          "name": "voter",
          "type": "address"
        },
        {
          "indexed": false,
          "internalType": "uint256",
          "name": "proposalId",
          "type": "uint256"
        },
        {
          "indexed": false,
          "internalType": "uint8",
          "name": "support",
          "type": "uint8"
        },
        {
          "indexed": false,
          "internalType": "uint256",
          "name": "weight",
          "type": "uint256"
        },
        {
          "indexed": false,
          "internalType": "string",
          "name": "reason",
          "type": "string"
        }
      ],
      "name": "VoteCast",
      "type": "event"
    },
    {
      "anonymous": false,
      "inputs": [
        {
          "indexed": true,
          "internalType": "address",
          "name": "voter",
          "type": "address"
        },
        {
          "indexed": false,
          "internalType": "uint256",
          "name": "proposalId",
          "type": "uint256"
        },
        {
          "indexed": false,
          "internalType": "uint8",
          "name": "support",
          "type": "uint8"
        },
        {
          "indexed": false,
          "internalType": "uint256",
          "name": "weight",
          "type": "uint256"
        },
        {
          "indexed": false,
          "internalType": "string",
          "name": "reason",
          "type": "string"
        },
        {
          "indexed": false,
          "internalType": "bytes",
          "name": "params",
          "type": "bytes"
        }
      ],
      "name": "VoteCastWithParams",
      "type": "event"
    },
    {
      "anonymous": false,
      "inputs": [
        {
          "indexed": false,
          "internalType": "uint256",
          "name": "oldVotingDelay",
          "type": "uint256"
        },
        {
          "indexed": false,
          "internalType": "uint256",
          "name": "newVotingDelay",
          "type": "uint256"
        }
      ],
      "name": "VotingDelaySet",
      "type": "event"
    },
    {
      "anonymous": false,
      "inputs": [
        {
          "indexed": false,
          "internalType": "uint256",
          "name": "oldVotingPeriod",
          "type": "uint256"
        },
        {
          "indexed": false,
          "internalType": "uint256",
          "name": "newVotingPeriod",
          "type": "uint256"
        }
      ],
      "name": "VotingPeriodSet",
      "type": "event"
    },
    {
      "inputs": [],
      "name": "BALLOT_TYPEHASH",
      "outputs": [
        {
          "internalType": "bytes32",
          "name": "",
          "type": "bytes32"
        }
      ],
      "stateMutability": "view",
      "type": "function"
    },
    {
      "inputs": [],
      "name": "COUNTING_MODE",
      "outputs": [
        {
          "internalType": "string",
          "name": "",
          "type": "string"
        }
      ],
      "stateMutability": "pure",
      "type": "function"
    },
    {
      "inputs": [],
      "name": "EXTENDED_BALLOT_TYPEHASH",
      "outputs": [
        {
          "internalType": "bytes32",
          "name": "",
          "type": "bytes32"
        }
      ],
      "stateMutability": "view",
      "type": "function"
    },
    {
      "inputs": [
        {
          "internalType": "uint256",
          "name": "proposalId",
          "type": "uint256"
        },
        {
          "internalType": "uint8",
          "name": "support",
          "type": "uint8"
        }
      ],
      "name": "castVote",
      "outputs": [
        {
          "internalType": "uint256",
          "name": "",
          "type": "uint256"
        }
      ],
      "stateMutability": "nonpayable",
      "type": "function"
    },
    {
      "inputs": [
        {
          "internalType": "uint256",
          "name": "proposalId",
          "type": "uint256"
        },
        {
          "internalType": "uint8",
          "name": "support",
          "type": "uint8"
        },
        {
          "internalType": "uint8",
          "name": "v",
          "type": "uint8"
        },
        {
          "internalType": "bytes32",
          "name": "r",
          "type": "bytes32"
        },
        {
          "internalType": "bytes32",
          "name": "s",
          "type": "bytes32"
        }
      ],
      "name": "castVoteBySig",
      "outputs": [
        {
          "internalType": "uint256",
          "name": "",
          "type": "uint256"
        }
      ],
      "stateMutability": "nonpayable",
      "type": "function"
    },
    {
      "inputs": [
        {
          "internalType": "uint256",
          "name": "proposalId",
          "type": "uint256"
        },
        {
          "internalType": "uint8",
          "name": "support",
          "type": "uint8"
        },
        {
          "internalType": "string",
          "name": "reason",
          "type": "string"
        }
      ],
      "name": "castVoteWithReason",
      "outputs": [
        {
          "internalType": "uint256",
          "name": "",
          "type": "uint256"
        }
      ],
      "stateMutability": "nonpayable",
      "type": "function"
    },
    {
      "inputs": [
        {
          "internalType": "uint256",
          "name": "proposalId",
          "type": "uint256"
        },
        {
          "internalType": "uint8",
          "name": "support",
          "type": "uint8"
        },
        {
          "internalType": "string",
          "name": "reason",
          "type": "string"
        },
        {
          "internalType": "bytes",
          "name": "params",
          "type": "bytes"
        }
      ],
      "name": "castVoteWithReasonAndParams",
      "outputs": [
        {
          "internalType": "uint256",
          "name": "",
          "type": "uint256"
        }
      ],
      "stateMutability": "nonpayable",
      "type": "function"
    },
    {
      "inputs": [
        {
          "internalType": "uint256",
          "name": "proposalId",
          "type": "uint256"
        },
        {
          "internalType": "uint8",
          "name": "support",
          "type": "uint8"
        },
        {
          "internalType": "string",
          "name": "reason",
          "type": "string"
        },
        {
          "internalType": "bytes",
          "name": "params",
          "type": "bytes"
        },
        {
          "internalType": "uint8",
          "name": "v",
          "type": "uint8"
        },
        {
          "internalType": "bytes32",
          "name": "r",
          "type": "bytes32"
        },
        {
          "internalType": "bytes32",
          "name": "s",
          "type": "bytes32"
        }
      ],
      "name": "castVoteWithReasonAndParamsBySig",
      "outputs": [
        {
          "internalType": "uint256",
          "name": "",
          "type": "uint256"
        }
      ],
      "stateMutability": "nonpayable",
      "type": "function"
    },
    {
      "inputs": [
        {
          "internalType": "address[]",
          "name": "targets",
          "type": "address[]"
        },
        {
          "internalType": "uint256[]",
          "name": "values",
          "type": "uint256[]"
        },
        {
          "internalType": "bytes[]",
          "name": "calldatas",
          "type": "bytes[]"
        },
        {
          "internalType": "bytes32",
          "name": "descriptionHash",
          "type": "bytes32"
        }
      ],
      "name": "execute",
      "outputs": [
        {
          "internalType": "uint256",
          "name": "",
          "type": "uint256"
        }
      ],
      "stateMutability": "payable",
      "type": "function"
    },
    {
      "inputs": [
        {
          "internalType": "address",
          "name": "account",
          "type": "address"
        },
        {
          "internalType": "uint256",
          "name": "blockNumber",
          "type": "uint256"
        }
      ],
      "name": "getVotes",
      "outputs": [
        {
          "internalType": "uint256",
          "name": "",
          "type": "uint256"
        }
      ],
      "stateMutability": "view",
      "type": "function"
    },
    {
      "inputs": [
        {
          "internalType": "address",
          "name": "account",
          "type": "address"
        },
        {
          "internalType": "uint256",
          "name": "blockNumber",
          "type": "uint256"
        },
        {
          "internalType": "bytes",
          "name": "params",
          "type": "bytes"
        }
      ],
      "name": "getVotesWithParams",
      "outputs": [
        {
          "internalType": "uint256",
          "name": "",
          "type": "uint256"
        }
      ],
      "stateMutability": "view",
      "type": "function"
    },
    {
      "inputs": [
        {
          "internalType": "uint256",
          "name": "proposalId",
          "type": "uint256"
        },
        {
          "internalType": "address",
          "name": "account",
          "type": "address"
        }
      ],
      "name": "hasVoted",
      "outputs": [
        {
          "internalType": "bool",
          "name": "",
          "type": "bool"
        }
      ],
      "stateMutability": "view",
      "type": "function"
    },
    {
      "inputs": [
        {
          "internalType": "address[]",
          "name": "targets",
          "type": "address[]"
        },
        {
          "internalType": "uint256[]",
          "name": "values",
          "type": "uint256[]"
        },
        {
          "internalType": "bytes[]",
          "name": "calldatas",
          "type": "bytes[]"
        },
        {
          "internalType": "bytes32",
          "name": "descriptionHash",
          "type": "bytes32"
        }
      ],
      "name": "hashProposal",
      "outputs": [
        {
          "internalType": "uint256",
          "name": "",
          "type": "uint256"
        }
      ],
      "stateMutability": "pure",
      "type": "function"
    },
    {
      "inputs": [],
      "name": "name",
      "outputs": [
        {
          "internalType": "string",
          "name": "",
          "type": "string"
        }
      ],
      "stateMutability": "view",
      "type": "function"
    },
    {
      "inputs": [
        {
          "internalType": "address",
          "name": "",
          "type": "address"
        },
        {
          "internalType": "address",
          "name": "",
          "type": "address"
        },
        {
          "internalType": "uint256[]",
          "name": "",
          "type": "uint256[]"
        },
        {
          "internalType": "uint256[]",
          "name": "",
          "type": "uint256[]"
        },
        {
          "internalType": "bytes",
          "name": "",
          "type": "bytes"
        }
      ],
      "name": "onERC1155BatchReceived",
      "outputs": [
        {
          "internalType": "bytes4",
          "name": "",
          "type": "bytes4"
        }
      ],
      "stateMutability": "nonpayable",
      "type": "function"
    },
    {
      "inputs": [
        {
          "internalType": "address",
          "name": "",
          "type": "address"
        },
        {
          "internalType": "address",
          "name": "",
          "type": "address"
        },
        {
          "internalType": "uint256",
          "name": "",
          "type": "uint256"
        },
        {
          "internalType": "uint256",
          "name": "",
          "type": "uint256"
        },
        {
          "internalType": "bytes",
          "name": "",
          "type": "bytes"
        }
      ],
      "name": "onERC1155Received",
      "outputs": [
        {
          "internalType": "bytes4",
          "name": "",
          "type": "bytes4"
        }
      ],
      "stateMutability": "nonpayable",
      "type": "function"
    },
    {
      "inputs": [
        {
          "internalType": "address",
          "name": "",
          "type": "address"
        },
        {
          "internalType": "address",
          "name": "",
          "type": "address"
        },
        {
          "internalType": "uint256",
          "name": "",
          "type": "uint256"
        },
        {
          "internalType": "bytes",
          "name": "",
          "type": "bytes"
        }
      ],
      "name": "onERC721Received",
      "outputs": [
        {
          "internalType": "bytes4",
          "name": "",
          "type": "bytes4"
        }
      ],
      "stateMutability": "nonpayable",
      "type": "function"
    },
    {
      "inputs": [
        {
          "internalType": "uint256",
          "name": "proposalId",
          "type": "uint256"
        }
      ],
      "name": "proposalDeadline",
      "outputs": [
        {
          "internalType": "uint256",
          "name": "",
          "type": "uint256"
        }
      ],
      "stateMutability": "view",
      "type": "function"
    },
    {
      "inputs": [
        {
          "internalType": "uint256",
          "name": "proposalId",
          "type": "uint256"
        }
      ],
      "name": "proposalSnapshot",
      "outputs": [
        {
          "internalType": "uint256",
          "name": "",
          "type": "uint256"
        }
      ],
      "stateMutability": "view",
      "type": "function"
    },
    {
      "inputs": [],
      "name": "proposalThreshold",
      "outputs": [
        {
          "internalType": "uint256",
          "name": "",
          "type": "uint256"
        }
      ],
      "stateMutability": "view",
      "type": "function"
    },
    {
      "inputs": [
        {
          "internalType": "uint256",
          "name": "proposalId",
          "type": "uint256"
        }
      ],
      "name": "proposalVotes",
      "outputs": [
        {
          "internalType": "uint256",
          "name": "againstVotes",
          "type": "uint256"
        },
        {
          "internalType": "uint256",
          "name": "forVotes",
          "type": "uint256"
        },
        {
          "internalType": "uint256",
          "name": "abstainVotes",
          "type": "uint256"
        }
      ],
      "stateMutability": "view",
      "type": "function"
    },
    {
      "inputs": [
        {
          "internalType": "address[]",
          "name": "targets",
          "type": "address[]"
        },
        {
          "internalType": "uint256[]",
          "name": "values",
          "type": "uint256[]"
        },
        {
          "internalType": "bytes[]",
          "name": "calldatas",
          "type": "bytes[]"
        },
        {
          "internalType": "string",
          "name": "description",
          "type": "string"
        }
      ],
      "name": "propose",
      "outputs": [
        {
          "internalType": "uint256",
          "name": "",
          "type": "uint256"
        }
      ],
      "stateMutability": "nonpayable",
      "type": "function"
    },
    {
      "inputs": [
        {
          "internalType": "uint256",
          "name": "blockNumber",
          "type": "uint256"
        }
      ],
      "name": "quorum",
      "outputs": [
        {
          "internalType": "uint256",
          "name": "",
          "type": "uint256"
        }
      ],
      "stateMutability": "view",
      "type": "function"
    },
    {
      "inputs": [],
      "name": "quorumDenominator",
      "outputs": [
        {
          "internalType": "uint256",
          "name": "",
          "type": "uint256"
        }
      ],
      "stateMutability": "view",
      "type": "function"
    },
    {
      "inputs": [
        {
          "internalType": "uint256",
          "name": "blockNumber",
          "type": "uint256"
        }
      ],
      "name": "quorumNumerator",
      "outputs": [
        {
          "internalType": "uint256",
          "name": "",
          "type": "uint256"
        }
      ],
      "stateMutability": "view",
      "type": "function"
    },
    {
      "inputs": [],
      "name": "quorumNumerator",
      "outputs": [
        {
          "internalType": "uint256",
          "name": "",
          "type": "uint256"
        }
      ],
      "stateMutability": "view",
      "type": "function"
    },
    {
      "inputs": [
        {
          "internalType": "address",
          "name": "target",
          "type": "address"
        },
        {
          "internalType": "uint256",
          "name": "value",
          "type": "uint256"
        },
        {
          "internalType": "bytes",
          "name": "data",
          "type": "bytes"
        }
      ],
      "name": "relay",
      "outputs": [],
      "stateMutability": "nonpayable",
      "type": "function"
    },
    {
      "inputs": [
        {
          "internalType": "uint256",
          "name": "newProposalThreshold",
          "type": "uint256"
        }
      ],
      "name": "setProposalThreshold",
      "outputs": [],
      "stateMutability": "nonpayable",
      "type": "function"
    },
    {
      "inputs": [
        {
          "internalType": "uint256",
          "name": "newVotingDelay",
          "type": "uint256"
        }
      ],
      "name": "setVotingDelay",
      "outputs": [],
      "stateMutability": "nonpayable",
      "type": "function"
    },
    {
      "inputs": [
        {
          "internalType": "uint256",
          "name": "newVotingPeriod",
          "type": "uint256"
        }
      ],
      "name": "setVotingPeriod",
      "outputs": [],
      "stateMutability": "nonpayable",
      "type": "function"
    },
    {
      "inputs": [
        {
          "internalType": "uint256",
          "name": "proposalId",
          "type": "uint256"
        }
      ],
      "name": "state",
      "outputs": [
        {
          "internalType": "enum IGovernor.ProposalState",
          "name": "",
          "type": "uint8"
        }
      ],
      "stateMutability": "view",
      "type": "function"
    },
    {
      "inputs": [
        {
          "internalType": "bytes4",
          "name": "interfaceId",
          "type": "bytes4"
        }
      ],
      "name": "supportsInterface",
      "outputs": [
        {
          "internalType": "bool",
          "name": "",
          "type": "bool"
        }
      ],
      "stateMutability": "view",
      "type": "function"
    },
    {
      "inputs": [],
      "name": "token",
      "outputs": [
        {
          "internalType": "contract IVotes",
          "name": "",
          "type": "address"
        }
      ],
      "stateMutability": "view",
      "type": "function"
    },
    {
      "inputs": [
        {
          "internalType": "uint256",
          "name": "newQuorumNumerator",
          "type": "uint256"
        }
      ],
      "name": "updateQuorumNumerator",
      "outputs": [],
      "stateMutability": "nonpayable",
      "type": "function"
    },
    {
      "inputs": [],
      "name": "version",
      "outputs": [
        {
          "internalType": "string",
          "name": "",
          "type": "string"
        }
      ],
      "stateMutability": "view",
      "type": "function"
    },
    {
      "inputs": [],
      "name": "votingDelay",
      "outputs": [
        {
          "internalType": "uint256",
          "name": "",
          "type": "uint256"
        }
      ],
      "stateMutability": "view",
      "type": "function"
    },
    {
      "inputs": [],
      "name": "votingPeriod",
      "outputs": [
        {
          "internalType": "uint256",
          "name": "",
          "type": "uint256"
        }
      ],
      "stateMutability": "view",
      "type": "function"
    },
    {
      "stateMutability": "payable",
      "type": "receive"
    }
  ],
  "bytecode": "0x6101606040523480156200001257600080fd5b5060405162003cfa38038062003cfa83398101604081905262000035916200077e565b600481600161c4e060006040518060400160405280600c81526020016b21a920a323b7bb32b93737b960a11b81525080620000756200016260201b60201c565b815160208084019190912082518383012060e08290526101008190524660a0818152604080517f8b73c3c69bb8fe3d512ecc4cf759cc79239f7b179b0ffacaa9a75d522b39400f81880181905281830187905260608201869052608082019490945230818401528151808203909301835260c00190528051940193909320919290916080523060c05261012052505082516200011b9250600091506020840190620006e2565b50620001299050836200017d565b6200013482620001be565b6200013f8162000265565b5050506001600160a01b0316610140526200015a81620002a6565b505062000829565b6040805180820190915260018152603160f81b602082015290565b60045460408051918252602082018390527fc565b045403dc03c2eea82b81a0465edad9e2e7fc4d97e11421c209da93d7a93910160405180910390a1600455565b60008111620002245760405162461bcd60e51b815260206004820152602760248201527f476f7665726e6f7253657474696e67733a20766f74696e6720706572696f6420604482015266746f6f206c6f7760c81b60648201526084015b60405180910390fd5b60055460408051918252602082018390527f7e3f7f0708a84de9203036abaa450dccc85ad5ff52f78c170f3edb55cf5e8828910160405180910390a1600555565b60065460408051918252602082018390527fccb45da8d5717e6c4544694297c4ba5cf151d455c9bb0ed4fc7a38411bc05461910160405180910390a1600655565b60648111156200032b5760405162461bcd60e51b815260206004820152604360248201527f476f7665726e6f72566f74657351756f72756d4672616374696f6e3a2071756f60448201527f72756d4e756d657261746f72206f7665722071756f72756d44656e6f6d696e616064820152623a37b960e91b608482015260a4016200021b565b6000620003376200041e565b90508015801590620003495750600954155b15620003c45760096000016040518060400160405280600063ffffffff16815260200162000382846200044d60201b62000f521760201c565b6001600160e01b0390811690915282546001810184556000938452602093849020835194909301519091166401000000000263ffffffff909316929092179101555b620003df826009620004bc60201b62000fbf1790919060201c565b505060408051828152602081018490527f0553476bf02ef2726e8ce5ced78d63e26e602e4a2257b1f559418e24b4633997910160405180910390a15050565b6009546000901562000446576200044160096200061860201b620010ea1760201c565b905090565b5060085490565b60006001600160e01b03821115620004b85760405162461bcd60e51b815260206004820152602760248201527f53616665436173743a2076616c756520646f65736e27742066697420696e20326044820152663234206269747360c81b60648201526084016200021b565b5090565b8154600090819081620004cf8662000618565b90506000821180156200051357504386620004ec600185620007b0565b81548110620004ff57620004ff620007d6565b60009182526020909120015463ffffffff16145b1562000587576200052f856200044d60201b62000f521760201c565b866200053d600185620007b0565b81548110620005505762000550620007d6565b9060005260206000200160000160046101000a8154816001600160e01b0302191690836001600160e01b031602179055506200060f565b856000016040518060400160405280620005ac436200067b60201b620011461760201c565b63ffffffff168152602001620005cd886200044d60201b62000f521760201c565b6001600160e01b0390811690915282546001810184556000938452602093849020835194909301519091166401000000000263ffffffff909316929092179101555b95939450505050565b8054600090801562000668578262000632600183620007b0565b81548110620006455762000645620007d6565b60009182526020909120015464010000000090046001600160e01b03166200066b565b60005b6001600160e01b03169392505050565b600063ffffffff821115620004b85760405162461bcd60e51b815260206004820152602660248201527f53616665436173743a2076616c756520646f65736e27742066697420696e203360448201526532206269747360d01b60648201526084016200021b565b828054620006f090620007ec565b90600052602060002090601f0160209004810192826200071457600085556200075f565b82601f106200072f57805160ff19168380011785556200075f565b828001600101855582156200075f579182015b828111156200075f57825182559160200191906001019062000742565b50620004b89291505b80821115620004b8576000815560010162000768565b6000602082840312156200079157600080fd5b81516001600160a01b0381168114620007a957600080fd5b9392505050565b600082821015620007d157634e487b7160e01b600052601160045260246000fd5b500390565b634e487b7160e01b600052603260045260246000fd5b600181811c908216806200080157607f821691505b602082108114156200082357634e487b7160e01b600052602260045260246000fd5b50919050565b60805160a05160c05160e051610100516101205161014051613468620008926000396000818161079e01528181611bb50152611d5c01526000611e7c01526000611ecb01526000611ea601526000611dff01526000611e2901526000611e5301526134686000f3fe60806040526004361061021e5760003560e01c806370b0f66011610123578063c28bc2fa116100ab578063eb9019d41161006f578063eb9019d414610700578063ece40cc114610720578063f23a6e6114610740578063f8ce560a1461076c578063fc0c546a1461078c57600080fd5b8063c28bc2fa14610626578063c59057e414610646578063dd4e2ba514610666578063deaaa7cc146106ac578063ea0217cf146106e057600080fd5b80639a802a6d116100f25780639a802a6d14610590578063a7713a70146105b0578063b58131b0146105c5578063bc197c81146105da578063c01f9e371461060657600080fd5b806370b0f6601461051c5780637b3c71d31461053c5780637d5e81e21461055c57806397c3d3341461057c57600080fd5b80633932abb1116101a6578063544ffc9c11610175578063544ffc9c1461043d57806354fd4d501461049257806356781388146104bc5780635f398a14146104dc57806360c4247f146104fc57600080fd5b80633932abb1146103915780633bccf4fd146103a65780633e4f49e6146103c657806343859632146103f357600080fd5b806306fdde03116101ed57806306fdde03146102c4578063150b7a02146102e65780632656227d1461032a5780632d63f6931461033d5780632fe3e2611461035d57600080fd5b806301ffc9a71461022c57806302a251a314610261578063034201811461028457806306f3f9e6146102a457600080fd5b3661022757005b005b600080fd5b34801561023857600080fd5b5061024c610247366004612690565b6107dd565b60405190151581526020015b60405180910390f35b34801561026d57600080fd5b506102766107ee565b604051908152602001610258565b34801561029057600080fd5b5061027661029f3660046127ce565b6107f9565b3480156102b057600080fd5b506102256102bf366004612874565b6108f1565b3480156102d057600080fd5b506102d9610941565b60405161025891906128e9565b3480156102f257600080fd5b50610311610301366004612913565b630a85bd0160e11b949350505050565b6040516001600160e01b03199091168152602001610258565b610276610338366004612ae9565b6109d3565b34801561034957600080fd5b50610276610358366004612874565b610afa565b34801561036957600080fd5b506102767fb3b3f3b703cd84ce352197dcff232b1b5d3cfb2025ce47cf04742d0651f1af8881565b34801561039d57600080fd5b50610276610b31565b3480156103b257600080fd5b506102766103c1366004612b78565b610b3c565b3480156103d257600080fd5b506103e66103e1366004612874565b610bb2565b6040516102589190612bdc565b3480156103ff57600080fd5b5061024c61040e366004612c04565b60008281526007602090815260408083206001600160a01b038516845260030190915290205460ff1692915050565b34801561044957600080fd5b50610477610458366004612874565b6000908152600760205260409020805460018201546002909201549092565b60408051938452602084019290925290820152606001610258565b34801561049e57600080fd5b506040805180820190915260018152603160f81b60208201526102d9565b3480156104c857600080fd5b506102766104d7366004612c30565b610bbd565b3480156104e857600080fd5b506102766104f7366004612c53565b610be6565b34801561050857600080fd5b50610276610517366004612874565b610c30565b34801561052857600080fd5b50610225610537366004612874565b610cc6565b34801561054857600080fd5b50610276610557366004612cd6565b610d0a565b34801561056857600080fd5b50610276610577366004612d2f565b610d5c565b34801561058857600080fd5b506064610276565b34801561059c57600080fd5b506102766105ab366004612de3565b610d73565b3480156105bc57600080fd5b50610276610d8a565b3480156105d157600080fd5b50610276610da6565b3480156105e657600080fd5b506103116105f5366004612e39565b63bc197c8160e01b95945050505050565b34801561061257600080fd5b50610276610621366004612874565b610db1565b34801561063257600080fd5b50610225610641366004612ec8565b610de0565b34801561065257600080fd5b50610276610661366004612ae9565b610e64565b34801561067257600080fd5b506040805180820190915260208082527f737570706f72743d627261766f2671756f72756d3d666f722c6162737461696e908201526102d9565b3480156106b857600080fd5b506102767f150214d74d59b7d1e90c73fc22ef3d991dd0a76b046543d4d80ab92d2a50328f81565b3480156106ec57600080fd5b506102256106fb366004612874565b610e9e565b34801561070c57600080fd5b5061027661071b366004612f09565b610ee2565b34801561072c57600080fd5b5061022561073b366004612874565b610f03565b34801561074c57600080fd5b5061031161075b366004612f33565b63f23a6e6160e01b95945050505050565b34801561077857600080fd5b50610276610787366004612874565b610f47565b34801561079857600080fd5b506107c07f000000000000000000000000000000000000000000000000000000000000000081565b6040516001600160a01b039091168152602001610258565b905090565b60006107e8826111ab565b92915050565b60006107d860055490565b60008061089d6108957fb3b3f3b703cd84ce352197dcff232b1b5d3cfb2025ce47cf04742d0651f1af888c8c8c8c604051610835929190612f97565b60405180910390208b8051906020012060405160200161087a959493929190948552602085019390935260ff9190911660408401526060830152608082015260a00190565b60405160208183030381529060405280519060200120611216565b868686611264565b90506108e38a828b8b8b8080601f0160208091040260200160405190810160405280939291908181526020018383808284376000920191909152508d9250611282915050565b9a9950505050505050505050565b3330146109195760405162461bcd60e51b815260040161091090612fa7565b60405180910390fd5b610935565b8061092960026113e4565b146109335761091e565b505b61093e81611463565b50565b60606000805461095090612fde565b80601f016020809104026020016040519081016040528092919081815260200182805461097c90612fde565b80156109c95780601f1061099e576101008083540402835291602001916109c9565b820191906000526020600020905b8154815290600101906020018083116109ac57829003601f168201915b5050505050905090565b6000806109e286868686610e64565b905060006109ef82610bb2565b90506004816007811115610a0557610a05612bc6565b1480610a2257506005816007811115610a2057610a20612bc6565b145b610a785760405162461bcd60e51b815260206004820152602160248201527f476f7665726e6f723a2070726f706f73616c206e6f74207375636365737366756044820152601b60fa1b6064820152608401610910565b600082815260016020818152604092839020600201805460ff191690921790915590518381527f712ae1383f79ac853f8d882153778e0260ef8f03b504e2866e0593e04d2b291f910160405180910390a1610ad682888888886115b0565b610ae3828888888861163d565b610af082888888886115b0565b5095945050505050565b60008181526001602090815260408083208151928301909152546001600160401b0316908190525b6001600160401b031692915050565b60006107d860045490565b604080517f150214d74d59b7d1e90c73fc22ef3d991dd0a76b046543d4d80ab92d2a50328f602082015290810186905260ff851660608201526000908190610b8a906108959060800161087a565b9050610ba78782886040518060200160405280600081525061164a565b979650505050505050565b60006107e88261166d565b600080339050610bde8482856040518060200160405280600081525061164a565b949350505050565b600080339050610ba787828888888080601f0160208091040260200160405190810160405280939291908181526020018383808284376000920191909152508a9250611282915050565b60095460009080610c45575050600854919050565b60006009610c5460018461302f565b81548110610c6457610c64613046565b60009182526020918290206040805180820190915291015463ffffffff81168083526401000000009091046001600160e01b03169282019290925291508410610cbb57602001516001600160e01b03169392505050565b610bde600985611779565b333014610ce55760405162461bcd60e51b815260040161091090612fa7565b610d01565b80610cf560026113e4565b14610cff57610cea565b505b61093e81611888565b600080339050610d5286828787878080601f01602080910402602001604051908101604052809392919081815260200183838082843760009201919091525061164a92505050565b9695505050505050565b6000610d6a858585856118c9565b95945050505050565b6000610d80848484611b8c565b90505b9392505050565b60095460009015610d9f576107d860096110ea565b5060085490565b60006107d860065490565b60008181526001602081815260408084208151928301909152909101546001600160401b031690819052610b22565b333014610dff5760405162461bcd60e51b815260040161091090612fa7565b610e1b565b80610e0f60026113e4565b14610e1957610e04565b505b610e5d8483838080601f016020809104026020016040519081016040528093929190818152602001838380828437600092019190915250889250611c31915050565b5050505050565b600084848484604051602001610e7d9493929190613125565b60408051601f19818403018152919052805160209091012095945050505050565b333014610ebd5760405162461bcd60e51b815260040161091090612fa7565b610ed9565b80610ecd60026113e4565b14610ed757610ec2565b505b61093e81611c57565b6000610d838383610efe60408051602081019091526000815290565b611b8c565b333014610f225760405162461bcd60e51b815260040161091090612fa7565b610f3e565b80610f3260026113e4565b14610f3c57610f27565b505b61093e81611cf8565b60006107e882611d39565b60006001600160e01b03821115610fbb5760405162461bcd60e51b815260206004820152602760248201527f53616665436173743a2076616c756520646f65736e27742066697420696e20326044820152663234206269747360c81b6064820152608401610910565b5090565b8154600090819081610fd0866110ea565b905060008211801561100e57504386610fea60018561302f565b81548110610ffa57610ffa613046565b60009182526020909120015463ffffffff16145b1561106e5761101c85610f52565b8661102860018561302f565b8154811061103857611038613046565b9060005260206000200160000160046101000a8154816001600160e01b0302191690836001600160e01b031602179055506110dc565b85600001604051806040016040528061108643611146565b63ffffffff16815260200161109a88610f52565b6001600160e01b0390811690915282546001810184556000938452602093849020835194909301519091166401000000000263ffffffff909316929092179101555b9250839150505b9250929050565b80546000908015611133578261110160018361302f565b8154811061111157611111613046565b60009182526020909120015464010000000090046001600160e01b0316611136565b60005b6001600160e01b03169392505050565b600063ffffffff821115610fbb5760405162461bcd60e51b815260206004820152602660248201527f53616665436173743a2076616c756520646f65736e27742066697420696e203360448201526532206269747360d01b6064820152608401610910565b60006001600160e01b0319821663bf26d89760e01b14806111dc57506001600160e01b031982166379dd796f60e01b145b806111f757506001600160e01b03198216630271189760e51b145b806107e857506301ffc9a760e01b6001600160e01b03198316146107e8565b60006107e8611223611df2565b8360405161190160f01b6020820152602281018390526042810182905260009060620160405160208183030381529060405280519060200120905092915050565b600080600061127587878787611f19565b91509150610af081612006565b600085815260016020819052604082209061129c88610bb2565b60078111156112ad576112ad612bc6565b146113065760405162461bcd60e51b815260206004820152602360248201527f476f7665726e6f723a20766f7465206e6f742063757272656e746c792061637460448201526269766560e81b6064820152608401610910565b604080516020810190915281546001600160401b03169081905260009061132f90889086611b8c565b905061133e88888884886121c1565b835161139057866001600160a01b03167fb8e138887d0aa13bab447e82de9d5c1777041ecd21ca36ba824ff1e6c07ddda4898884896040516113839493929190613170565b60405180910390a2610ba7565b866001600160a01b03167fe2babfbac5889a709b63bb7f598b324e08bc5a4fb9ec647fb3cbc9ec07eb871289888489896040516113d1959493929190613198565b60405180910390a2979650505050505050565b60006113ff8254600f81810b600160801b909204900b131590565b1561141d57604051631ed9509560e11b815260040160405180910390fd5b508054600f0b6000818152600180840160205260408220805492905583546fffffffffffffffffffffffffffffffff191692016001600160801b03169190911790915590565b60648111156114e65760405162461bcd60e51b815260206004820152604360248201527f476f7665726e6f72566f74657351756f72756d4672616374696f6e3a2071756f60448201527f72756d4e756d657261746f72206f7665722071756f72756d44656e6f6d696e616064820152623a37b960e91b608482015260a401610910565b60006114f0610d8a565b905080158015906115015750600954155b156115665760408051808201909152600081526009906020810161152484610f52565b6001600160e01b0390811690915282546001810184556000938452602093849020835194909301519091166401000000000263ffffffff909316929092179101555b611571600983610fbf565b505060408051828152602081018490527f0553476bf02ef2726e8ce5ced78d63e26e602e4a2257b1f559418e24b4633997910160405180910390a15050565b610e5d565b845181101561163557306001600160a01b03168582815181106115da576115da613046565b60200260200101516001600160a01b031614156116255761162583828151811061160657611606613046565b602002602001015180519060200120600261234090919063ffffffff16565b61162e816131de565b90506115b5565b505050505050565b610e5d858585858561237c565b6000610d6a8585858561166860408051602081019091526000815290565b611282565b6000818152600160205260408120600281015460ff16156116915750600792915050565b6002810154610100900460ff16156116ac5750600292915050565b60006116b784610afa565b9050806117065760405162461bcd60e51b815260206004820152601d60248201527f476f7665726e6f723a20756e6b6e6f776e2070726f706f73616c2069640000006044820152606401610910565b438110611717575060009392505050565b600061172285610db1565b905043811061173657506001949350505050565b61173f8561247b565b801561175e575060008581526007602052604090208054600190910154115b1561176e57506004949350505050565b506003949350505050565b60004382106117ca5760405162461bcd60e51b815260206004820181905260248201527f436865636b706f696e74733a20626c6f636b206e6f7420796574206d696e65646044820152606401610910565b825460005b8181101561182f5760006117e382846124b2565b9050848660000182815481106117fb576117fb613046565b60009182526020909120015463ffffffff16111561181b57809250611829565b6118268160016131f9565b91505b506117cf565b8115611873578461184160018461302f565b8154811061185157611851613046565b60009182526020909120015464010000000090046001600160e01b0316611876565b60005b6001600160e01b031695945050505050565b60045460408051918252602082018390527fc565b045403dc03c2eea82b81a0465edad9e2e7fc4d97e11421c209da93d7a93910160405180910390a1600455565b60006118d3610da6565b6118e23361071b60014361302f565b101561194a5760405162461bcd60e51b815260206004820152603160248201527f476f7665726e6f723a2070726f706f73657220766f7465732062656c6f7720706044820152701c9bdc1bdcd85b081d1a1c995cda1bdb19607a1b6064820152608401610910565b600061195f8686868680519060200120610e64565b905084518651146119825760405162461bcd60e51b815260040161091090613211565b83518651146119a35760405162461bcd60e51b815260040161091090613211565b60008651116119f45760405162461bcd60e51b815260206004820152601860248201527f476f7665726e6f723a20656d7074792070726f706f73616c00000000000000006044820152606401610910565b600081815260016020908152604091829020825191820190925281546001600160401b03169081905215611a745760405162461bcd60e51b815260206004820152602160248201527f476f7665726e6f723a2070726f706f73616c20616c72656164792065786973746044820152607360f81b6064820152608401610910565b6000611a86611a81610b31565b6124cd565b611a8f436124cd565b611a999190613252565b90506000611aa8611a816107ee565b611ab29083613252565b835467ffffffffffffffff19166001600160401b038416178455905060018301805467ffffffffffffffff19166001600160401b0383161790557f7d84a6263ae0d98d3329bd7b46bb4e8d6f98cd35a7adb45c274c8b7fd5ebd5e084338b8b8d516001600160401b03811115611b2a57611b2a612711565b604051908082528060200260200182016040528015611b5d57816020015b6060815260200190600190039081611b485790505b508c88888e604051611b779998979695949392919061327d565b60405180910390a15091979650505050505050565b604051630748d63560e31b81526001600160a01b038481166004830152602482018490526000917f000000000000000000000000000000000000000000000000000000000000000090911690633a46b1a89060440160206040518083038186803b158015611bf957600080fd5b505afa158015611c0d573d6000803e3d6000fd5b505050506040513d601f19601f82011682018060405250810190610d80919061336c565b6060610d8084848460405180606001604052806029815260200161340a60299139612535565b60008111611cb75760405162461bcd60e51b815260206004820152602760248201527f476f7665726e6f7253657474696e67733a20766f74696e6720706572696f6420604482015266746f6f206c6f7760c81b6064820152608401610910565b60055460408051918252602082018390527f7e3f7f0708a84de9203036abaa450dccc85ad5ff52f78c170f3edb55cf5e8828910160405180910390a1600555565b60065460408051918252602082018390527fccb45da8d5717e6c4544694297c4ba5cf151d455c9bb0ed4fc7a38411bc05461910160405180910390a1600655565b60006064611d4683610c30565b604051632394e7a360e21b8152600481018590527f00000000000000000000000000000000000000000000000000000000000000006001600160a01b031690638e539e8c9060240160206040518083038186803b158015611da657600080fd5b505afa158015611dba573d6000803e3d6000fd5b505050506040513d601f19601f82011682018060405250810190611dde919061336c565b611de89190613385565b6107e891906133a4565b6000306001600160a01b037f000000000000000000000000000000000000000000000000000000000000000016148015611e4b57507f000000000000000000000000000000000000000000000000000000000000000046145b15611e7557507f000000000000000000000000000000000000000000000000000000000000000090565b50604080517f00000000000000000000000000000000000000000000000000000000000000006020808301919091527f0000000000000000000000000000000000000000000000000000000000000000828401527f000000000000000000000000000000000000000000000000000000000000000060608301524660808301523060a0808401919091528351808403909101815260c0909201909252805191012090565b6000807f7fffffffffffffffffffffffffffffff5d576e7357a4501ddfe92f46681b20a0831115611f505750600090506003611ffd565b8460ff16601b14158015611f6857508460ff16601c14155b15611f795750600090506004611ffd565b6040805160008082526020820180845289905260ff881692820192909252606081018690526080810185905260019060a0016020604051602081039080840390855afa158015611fcd573d6000803e3d6000fd5b5050604051601f1901519150506001600160a01b038116611ff657600060019250925050611ffd565b9150600090505b94509492505050565b600081600481111561201a5761201a612bc6565b14156120235750565b600181600481111561203757612037612bc6565b14156120855760405162461bcd60e51b815260206004820152601860248201527f45434453413a20696e76616c6964207369676e617475726500000000000000006044820152606401610910565b600281600481111561209957612099612bc6565b14156120e75760405162461bcd60e51b815260206004820152601f60248201527f45434453413a20696e76616c6964207369676e6174757265206c656e677468006044820152606401610910565b60038160048111156120fb576120fb612bc6565b14156121545760405162461bcd60e51b815260206004820152602260248201527f45434453413a20696e76616c6964207369676e6174757265202773272076616c604482015261756560f01b6064820152608401610910565b600481600481111561216857612168612bc6565b141561093e5760405162461bcd60e51b815260206004820152602260248201527f45434453413a20696e76616c6964207369676e6174757265202776272076616c604482015261756560f01b6064820152608401610910565b60008581526007602090815260408083206001600160a01b0388168452600381019092529091205460ff16156122495760405162461bcd60e51b815260206004820152602760248201527f476f7665726e6f72566f74696e6753696d706c653a20766f746520616c726561604482015266191e4818d85cdd60ca1b6064820152608401610910565b6001600160a01b03851660009081526003820160205260408120805460ff1916600117905560ff168460ff16141561229a578281600001600082825461228f91906131f9565b909155506116359050565b60ff8416600114156122ba578281600101600082825461228f91906131f9565b60ff8416600214156122da578281600201600082825461228f91906131f9565b60405162461bcd60e51b815260206004820152603560248201527f476f7665726e6f72566f74696e6753696d706c653a20696e76616c69642076616044820152746c756520666f7220656e756d20566f74655479706560581b6064820152608401610910565b8154600160801b90819004600f0b6000818152600180860160205260409091209390935583546001600160801b03908116939091011602179055565b60006040518060600160405280602781526020016133e360279139905060005b8551811015612472576000808783815181106123ba576123ba613046565b60200260200101516001600160a01b03168784815181106123dd576123dd613046565b60200260200101518785815181106123f7576123f7613046565b602002602001015160405161240c91906133c6565b60006040518083038185875af1925050503d8060008114612449576040519150601f19603f3d011682016040523d82523d6000602084013e61244e565b606091505b509150915061245e828286612657565b5050508061246b906131de565b905061239c565b50505050505050565b60008181526007602052604081206002810154600182015461249d91906131f9565b6124a961078785610afa565b11159392505050565b60006124c160028484186133a4565b610d83908484166131f9565b60006001600160401b03821115610fbb5760405162461bcd60e51b815260206004820152602660248201527f53616665436173743a2076616c756520646f65736e27742066697420696e203660448201526534206269747360d01b6064820152608401610910565b6060824710156125965760405162461bcd60e51b815260206004820152602660248201527f416464726573733a20696e73756666696369656e742062616c616e636520666f6044820152651c8818d85b1b60d21b6064820152608401610910565b6001600160a01b0385163b6125ed5760405162461bcd60e51b815260206004820152601d60248201527f416464726573733a2063616c6c20746f206e6f6e2d636f6e74726163740000006044820152606401610910565b600080866001600160a01b0316858760405161260991906133c6565b60006040518083038185875af1925050503d8060008114612646576040519150601f19603f3d011682016040523d82523d6000602084013e61264b565b606091505b5091509150610ba78282865b60608315612666575081610d83565b8251156126765782518084602001fd5b8160405162461bcd60e51b815260040161091091906128e9565b6000602082840312156126a257600080fd5b81356001600160e01b031981168114610d8357600080fd5b803560ff811681146126cb57600080fd5b919050565b60008083601f8401126126e257600080fd5b5081356001600160401b038111156126f957600080fd5b6020830191508360208285010111156110e357600080fd5b634e487b7160e01b600052604160045260246000fd5b604051601f8201601f191681016001600160401b038111828210171561274f5761274f612711565b604052919050565b60006001600160401b0383111561277057612770612711565b612783601f8401601f1916602001612727565b905082815283838301111561279757600080fd5b828260208301376000602084830101529392505050565b600082601f8301126127bf57600080fd5b610d8383833560208501612757565b60008060008060008060008060e0898b0312156127ea57600080fd5b883597506127fa60208a016126ba565b965060408901356001600160401b038082111561281657600080fd5b6128228c838d016126d0565b909850965060608b013591508082111561283b57600080fd5b506128488b828c016127ae565b94505061285760808a016126ba565b925060a0890135915060c089013590509295985092959890939650565b60006020828403121561288657600080fd5b5035919050565b60005b838110156128a8578181015183820152602001612890565b838111156128b7576000848401525b50505050565b600081518084526128d581602086016020860161288d565b601f01601f19169290920160200192915050565b602081526000610d8360208301846128bd565b80356001600160a01b03811681146126cb57600080fd5b6000806000806080858703121561292957600080fd5b612932856128fc565b9350612940602086016128fc565b92506040850135915060608501356001600160401b0381111561296257600080fd5b61296e878288016127ae565b91505092959194509250565b60006001600160401b0382111561299357612993612711565b5060051b60200190565b600082601f8301126129ae57600080fd5b813560206129c36129be8361297a565b612727565b82815260059290921b840181019181810190868411156129e257600080fd5b8286015b84811015612a04576129f7816128fc565b83529183019183016129e6565b509695505050505050565b600082601f830112612a2057600080fd5b81356020612a306129be8361297a565b82815260059290921b84018101918181019086841115612a4f57600080fd5b8286015b84811015612a045780358352918301918301612a53565b600082601f830112612a7b57600080fd5b81356020612a8b6129be8361297a565b82815260059290921b84018101918181019086841115612aaa57600080fd5b8286015b84811015612a045780356001600160401b03811115612acd5760008081fd5b612adb8986838b01016127ae565b845250918301918301612aae565b60008060008060808587031215612aff57600080fd5b84356001600160401b0380821115612b1657600080fd5b612b228883890161299d565b95506020870135915080821115612b3857600080fd5b612b4488838901612a0f565b94506040870135915080821115612b5a57600080fd5b50612b6787828801612a6a565b949793965093946060013593505050565b600080600080600060a08688031215612b9057600080fd5b85359450612ba0602087016126ba565b9350612bae604087016126ba565b94979396509394606081013594506080013592915050565b634e487b7160e01b600052602160045260246000fd5b6020810160088310612bfe57634e487b7160e01b600052602160045260246000fd5b91905290565b60008060408385031215612c1757600080fd5b82359150612c27602084016128fc565b90509250929050565b60008060408385031215612c4357600080fd5b82359150612c27602084016126ba565b600080600080600060808688031215612c6b57600080fd5b85359450612c7b602087016126ba565b935060408601356001600160401b0380821115612c9757600080fd5b612ca389838a016126d0565b90955093506060880135915080821115612cbc57600080fd5b50612cc9888289016127ae565b9150509295509295909350565b60008060008060608587031215612cec57600080fd5b84359350612cfc602086016126ba565b925060408501356001600160401b03811115612d1757600080fd5b612d23878288016126d0565b95989497509550505050565b60008060008060808587031215612d4557600080fd5b84356001600160401b0380821115612d5c57600080fd5b612d688883890161299d565b95506020870135915080821115612d7e57600080fd5b612d8a88838901612a0f565b94506040870135915080821115612da057600080fd5b612dac88838901612a6a565b93506060870135915080821115612dc257600080fd5b508501601f81018713612dd457600080fd5b61296e87823560208401612757565b600080600060608486031215612df857600080fd5b612e01846128fc565b92506020840135915060408401356001600160401b03811115612e2357600080fd5b612e2f868287016127ae565b9150509250925092565b600080600080600060a08688031215612e5157600080fd5b612e5a866128fc565b9450612e68602087016128fc565b935060408601356001600160401b0380821115612e8457600080fd5b612e9089838a01612a0f565b94506060880135915080821115612ea657600080fd5b612eb289838a01612a0f565b93506080880135915080821115612cbc57600080fd5b60008060008060608587031215612ede57600080fd5b612ee7856128fc565b93506020850135925060408501356001600160401b03811115612d1757600080fd5b60008060408385031215612f1c57600080fd5b612f25836128fc565b946020939093013593505050565b600080600080600060a08688031215612f4b57600080fd5b612f54866128fc565b9450612f62602087016128fc565b9350604086013592506060860135915060808601356001600160401b03811115612f8b57600080fd5b612cc9888289016127ae565b8183823760009101908152919050565b60208082526018908201527f476f7665726e6f723a206f6e6c79476f7665726e616e63650000000000000000604082015260600190565b600181811c90821680612ff257607f821691505b6020821081141561301357634e487b7160e01b600052602260045260246000fd5b50919050565b634e487b7160e01b600052601160045260246000fd5b60008282101561304157613041613019565b500390565b634e487b7160e01b600052603260045260246000fd5b600081518084526020808501945080840160005b838110156130955781516001600160a01b031687529582019590820190600101613070565b509495945050505050565b600081518084526020808501945080840160005b83811015613095578151875295820195908201906001016130b4565b600081518084526020808501808196508360051b8101915082860160005b858110156131185782840389526131068483516128bd565b988501989350908401906001016130ee565b5091979650505050505050565b608081526000613138608083018761305c565b828103602084015261314a81876130a0565b9050828103604084015261315e81866130d0565b91505082606083015295945050505050565b84815260ff84166020820152826040820152608060608201526000610d5260808301846128bd565b85815260ff8516602082015283604082015260a0606082015260006131c060a08301856128bd565b82810360808401526131d281856128bd565b98975050505050505050565b60006000198214156131f2576131f2613019565b5060010190565b6000821982111561320c5761320c613019565b500190565b60208082526021908201527f476f7665726e6f723a20696e76616c69642070726f706f73616c206c656e67746040820152600d60fb1b606082015260800190565b60006001600160401b0380831681851680830382111561327457613274613019565b01949350505050565b60006101208b8352602060018060a01b038c16818501528160408501526132a68285018c61305c565b915083820360608501526132ba828b6130a0565b915083820360808501528189518084528284019150828160051b850101838c0160005b8381101561330b57601f198784030185526132f98383516128bd565b948601949250908501906001016132dd565b505086810360a088015261331f818c6130d0565b94505050505061333a60c08401876001600160401b03169052565b6001600160401b03851660e084015282810361010084015261335c81856128bd565b9c9b505050505050505050505050565b60006020828403121561337e57600080fd5b5051919050565b600081600019048311821515161561339f5761339f613019565b500290565b6000826133c157634e487b7160e01b600052601260045260246000fd5b500490565b600082516133d881846020870161288d565b919091019291505056fe476f7665726e6f723a2063616c6c20726576657274656420776974686f7574206d657373616765416464726573733a206c6f772d6c6576656c2063616c6c20776974682076616c7565206661696c6564a2646970667358221220e3ef981505f9a84a39ad5fc617a8e284bef243dcfb48bea4c0bce0151604ee8364736f6c63430008090033",
  "linkReferences": {},
  "deployedLinkReferences": {}
}