{
  "_format": "hh-sol-artifact-1",
  "contractName": "CRAFTreasury",
  "sourceName": "contracts/CRAFTreasury.sol",
  "abi": [
    {
      "inputs": [
        {
          "internalType": "address",
          "name": "governanceAddress",
          "type": "address"
        }
      ],
      "stateMutability": "nonpayable",
      "type": "constructor"
    },
    {
      "anonymous": false,
      "inputs": [
        {
          "indexed": true,
          "internalType": "address",
          "name": "token",
          "type": "address"
        },
        {
          "indexed": true,
          "internalType": "address",
          "name": "from",
          "type": "address"
        },
        {
          "indexed": false,
          "internalType": "uint256",
          "name": "amount",
          "type": "uint256"
        },
        {
          "indexed": false,
          "internalType": "uint256",
          "name": "balance",
          "type": "uint256"
        }
      ],
      "name": "FundTreasury",
      "type": "event"
    },
    {
      "anonymous": false,
      "inputs": [
        {
          "indexed": true,
          "internalType": "address",
          "name": "previousOwner",
          "type": "address"
        },
        {
          "indexed": true,
          "internalType": "address",
          "name": "newOwner",
          "type": "address"
        }
      ],
      "name": "OwnershipTransferred",
      "type": "event"
    },
    {
      "inputs": [
        {
          "internalType": "address",
          "name": "token",
          "type": "address"
        }
      ],
      "name": "balanceOf",
      "outputs": [
        {
          "internalType": "uint256",
          "name": "",
          "type": "uint256"
        }
      ],
      "stateMutability": "view",
      "type": "function"
    },
    {
      "inputs": [
        {
          "internalType": "address",
          "name": "token",
          "type": "address"
        },
        {
          "internalType": "uint256",
          "name": "amount",
          "type": "uint256"
        }
      ],
      "name": "fundTreasury",
      "outputs": [
        {
          "internalType": "bool",
          "name": "",
          "type": "bool"
        }
      ],
      "stateMutability": "nonpayable",
      "type": "function"
    },
    {
      "inputs": [],
      "name": "owner",
      "outputs": [
        {
          "internalType": "address",
          "name": "",
          "type": "address"
        }
      ],
      "stateMutability": "view",
      "type": "function"
    },
    {
      "inputs": [],
      "name": "renounceOwnership",
      "outputs": [],
      "stateMutability": "nonpayable",
      "type": "function"
    },
    {
      "inputs": [
        {
          "internalType": "address",
          "name": "newOwner",
          "type": "address"
        }
      ],
      "name": "transferOwnership",
      "outputs": [],
      "stateMutability": "nonpayable",
      "type": "function"
    },
    {
      "inputs": [
        {
          "internalType": "address",
          "name": "token",
          "type": "address"
        },
        {
          "internalType": "address",
          "name": "receiver",
          "type": "address"
        },
        {
          "internalType": "uint256",
          "name": "amount",
          "type": "uint256"
        }
      ],
      "name": "transferToken",
      "outputs": [
        {
          "internalType": "bool",
          "name": "transferred",
          "type": "bool"
        }
      ],
      "stateMutability": "nonpayable",
      "type": "function"
    },
    {
      "stateMutability": "payable",
      "type": "receive"
    }
  ],
  "bytecode": "0x608060405234801561001057600080fd5b506040516106ce3803806106ce83398101604081905261002f9161008e565b6100383361003e565b506100be565b600080546001600160a01b038381166001600160a01b0319831681178455604051919092169283917f8be0079c531659141344cd1fd0a4f28419497f9722a3daafe3b4186f6b6457e09190a35050565b6000602082840312156100a057600080fd5b81516001600160a01b03811681146100b757600080fd5b9392505050565b610601806100cd6000396000f3fe6080604052600436106100595760003560e01c806370a0823114610068578063715018a61461009b5780638da5cb5b146100b2578063cd88a6a8146100da578063f2fde38b1461010a578063f5537ede1461012a57600080fd5b3661006357600080fd5b600080fd5b34801561007457600080fd5b50610088610083366004610508565b61014a565b6040519081526020015b60405180910390f35b3480156100a757600080fd5b506100b06101ca565b005b3480156100be57600080fd5b506000546040516001600160a01b039091168152602001610092565b3480156100e657600080fd5b506100fa6100f536600461052a565b6101de565b6040519015158152602001610092565b34801561011657600080fd5b506100b0610125366004610508565b610335565b34801561013657600080fd5b506100fa610145366004610554565b6103b3565b6040516370a0823160e01b81523060048201526000906001600160a01b038316906370a082319060240160206040518083038186803b15801561018c57600080fd5b505afa1580156101a0573d6000803e3d6000fd5b505050506040513d601f19601f820116820180604052508101906101c49190610590565b92915050565b6101d2610442565b6101dc600061049c565b565b6040516323b872dd60e01b8152336004820152306024820152604481018290526000906001600160a01b038416906323b872dd90606401602060405180830381600087803b15801561022f57600080fd5b505af1158015610243573d6000803e3d6000fd5b505050506040513d601f19601f8201168201806040525081019061026791906105a9565b506040516370a0823160e01b81523060048201526000906001600160a01b038516906370a082319060240160206040518083038186803b1580156102aa57600080fd5b505afa1580156102be573d6000803e3d6000fd5b505050506040513d601f19601f820116820180604052508101906102e29190610590565b604080518581526020810183905291925033916001600160a01b038716917fb5b121f10ca47791edfa538bc5f469f881c76d1cc887b977c45e8ab263073f5a910160405180910390a35060019392505050565b61033d610442565b6001600160a01b0381166103a75760405162461bcd60e51b815260206004820152602660248201527f4f776e61626c653a206e6577206f776e657220697320746865207a65726f206160448201526564647265737360d01b60648201526084015b60405180910390fd5b6103b08161049c565b50565b604080516001600160a01b03841660248201526044808201849052825180830390910181526064909101909152602080820180516001600160e01b031663a9059cbb60e01b1781528251600093929184919082896127105a03f13d8015610425576020811461042d5760009350610438565b819350610438565b600051158215171593505b5050509392505050565b6000546001600160a01b031633146101dc5760405162461bcd60e51b815260206004820181905260248201527f4f776e61626c653a2063616c6c6572206973206e6f7420746865206f776e6572604482015260640161039e565b600080546001600160a01b038381166001600160a01b0319831681178455604051919092169283917f8be0079c531659141344cd1fd0a4f28419497f9722a3daafe3b4186f6b6457e09190a35050565b80356001600160a01b038116811461050357600080fd5b919050565b60006020828403121561051a57600080fd5b610523826104ec565b9392505050565b6000806040838503121561053d57600080fd5b610546836104ec565b946020939093013593505050565b60008060006060848603121561056957600080fd5b610572846104ec565b9250610580602085016104ec565b9150604084013590509250925092565b6000602082840312156105a257600080fd5b5051919050565b6000602082840312156105bb57600080fd5b8151801515811461052357600080fdfea26469706673582212209070b6af24176aea919186fdf26be34cecffe2b00fa2c72bd67be5f2a4a65afd64736f6c63430008090033",
  "linkReferences": {},
  "deployedLinkReferences": {}
}