{
  "_format": "hh-sol-artifact-1",
  "contractName": "CRAFGovernor",
  "sourceName": "contracts/CRAFGovernor.sol",
  "abi": [
    {
      "inputs": [
        {
          "internalType": "contract IVotes",
          "name": "_token",
          "type": "address"
        }
      ],
      "stateMutability": "nonpayable",
      "type": "constructor"
    },
    {
      "inputs": [],
      "name": "Empty",
      "type": "error"
    },
    {
      "anonymous": false,
      "inputs": [
        {
          "indexed": false,
          "internalType": "uint256",
          "name": "proposalId",
          "type": "uint256"
        }
      ],
      "name": "ProposalCanceled",
      "type": "event"
    },
    {
      "anonymous": false,
      "inputs": [
        {
          "indexed": false,
          "internalType": "uint256",
          "name": "proposalId",
          "type": "uint256"
        },
        {
          "indexed": false,
          "internalType": "address",
          "name": "proposer",
          "type": "address"
        },
        {
          "indexed": false,
          "internalType": "address[]",
          "name": "targets",
          "type": "address[]"
        },
        {
          "indexed": false,
          "internalType": "uint256[]",
          "name": "values",
          "type": "uint256[]"
        },
        {
          "indexed": false,
          "internalType": "string[]",
          "name": "signatures",
          "type": "string[]"
        },
        {
          "indexed": false,
          "internalType": "bytes[]",
          "name": "calldatas",
          "type": "bytes[]"
        },
        {
          "indexed": false,
          "internalType": "uint256",
          "name": "startBlock",
          "type": "uint256"
        },
        {
          "indexed": false,
          "internalType": "uint256",
          "name": "endBlock",
          "type": "uint256"
        },
        {
          "indexed": false,
          "internalType": "string",
          "name": "description",
          "type": "string"
        }
      ],
      "name": "ProposalCreated",
      "type": "event"
    },
    {
      "anonymous": false,
      "inputs": [
        {
          "indexed": false,
          "internalType": "uint256",
          "name": "proposalId",
          "type": "uint256"
        }
      ],
      "name": "ProposalExecuted",
      "type": "event"
    },
    {
      "anonymous": false,
      "inputs": [
        {
          "indexed": false,
          "internalType": "uint256",
          "name": "oldProposalThreshold",
          "type": "uint256"
        },
        {
          "indexed": false,
          "internalType": "uint256",
          "name": "newProposalThreshold",
          "type": "uint256"
        }
      ],
      "name": "ProposalThresholdSet",
      "type": "event"
    },
    {
      "anonymous": false,
      "inputs": [
        {
          "indexed": false,
          "internalType": "uint256",
          "name": "oldQuorumNumerator",
          "type": "uint256"
        },
        {
          "indexed": false,
          "internalType": "uint256",
          "name": "newQuorumNumerator",
          "type": "uint256"
        }
      ],
      "name": "QuorumNumeratorUpdated",
      "type": "event"
    },
    {
      "anonymous": false,
      "inputs": [
        {
          "indexed": true,
          "internalType": "address",
          "name": "voter",
          "type": "address"
        },
        {
          "indexed": false,
          "internalType": "uint256",
          "name": "proposalId",
          "type": "uint256"
        },
        {
          "indexed": false,
          "internalType": "uint8",
          "name": "support",
          "type": "uint8"
        },
        {
          "indexed": false,
          "internalType": "uint256",
          "name": "weight",
          "type": "uint256"
        },
        {
          "indexed": false,
          "internalType": "string",
          "name": "reason",
          "type": "string"
        }
      ],
      "name": "VoteCast",
      "type": "event"
    },
    {
      "anonymous": false,
      "inputs": [
        {
          "indexed": true,
          "internalType": "address",
          "name": "voter",
          "type": "address"
        },
        {
          "indexed": false,
          "internalType": "uint256",
          "name": "proposalId",
          "type": "uint256"
        },
        {
          "indexed": false,
          "internalType": "uint8",
          "name": "support",
          "type": "uint8"
        },
        {
          "indexed": false,
          "internalType": "uint256",
          "name": "weight",
          "type": "uint256"
        },
        {
          "indexed": false,
          "internalType": "string",
          "name": "reason",
          "type": "string"
        },
        {
          "indexed": false,
          "internalType": "bytes",
          "name": "params",
          "type": "bytes"
        }
      ],
      "name": "VoteCastWithParams",
      "type": "event"
    },
    {
      "anonymous": false,
      "inputs": [
        {
          "indexed": false,
          "internalType": "uint256",
          "name": "oldVotingDelay",
          "type": "uint256"
        },
        {
          "indexed": false,
          "internalType": "uint256",
          "name": "newVotingDelay",
          "type": "uint256"
        }
      ],
      "name": "VotingDelaySet",
      "type": "event"
    },
    {
      "anonymous": false,
      "inputs": [
        {
          "indexed": false,
          "internalType": "uint256",
          "name": "oldVotingPeriod",
          "type": "uint256"
        },
        {
          "indexed": false,
          "internalType": "uint256",
          "name": "newVotingPeriod",
          "type": "uint256"
        }
      ],
      "name": "VotingPeriodSet",
      "type": "event"
    },
    {
      "inputs": [],
      "name": "BALLOT_TYPEHASH",
      "outputs": [
        {
          "internalType": "bytes32",
          "name": "",
          "type": "bytes32"
        }
      ],
      "stateMutability": "view",
      "type": "function"
    },
    {
      "inputs": [],
      "name": "COUNTING_MODE",
      "outputs": [
        {
          "internalType": "string",
          "name": "",
          "type": "string"
        }
      ],
      "stateMutability": "pure",
      "type": "function"
    },
    {
      "inputs": [],
      "name": "EXTENDED_BALLOT_TYPEHASH",
      "outputs": [
        {
          "internalType": "bytes32",
          "name": "",
          "type": "bytes32"
        }
      ],
      "stateMutability": "view",
      "type": "function"
    },
    {
      "inputs": [
        {
          "internalType": "uint256",
          "name": "proposalId",
          "type": "uint256"
        },
        {
          "internalType": "uint8",
          "name": "support",
          "type": "uint8"
        }
      ],
      "name": "castVote",
      "outputs": [
        {
          "internalType": "uint256",
          "name": "",
          "type": "uint256"
        }
      ],
      "stateMutability": "nonpayable",
      "type": "function"
    },
    {
      "inputs": [
        {
          "internalType": "uint256",
          "name": "proposalId",
          "type": "uint256"
        },
        {
          "internalType": "uint8",
          "name": "support",
          "type": "uint8"
        },
        {
          "internalType": "uint8",
          "name": "v",
          "type": "uint8"
        },
        {
          "internalType": "bytes32",
          "name": "r",
          "type": "bytes32"
        },
        {
          "internalType": "bytes32",
          "name": "s",
          "type": "bytes32"
        }
      ],
      "name": "castVoteBySig",
      "outputs": [
        {
          "internalType": "uint256",
          "name": "",
          "type": "uint256"
        }
      ],
      "stateMutability": "nonpayable",
      "type": "function"
    },
    {
      "inputs": [
        {
          "internalType": "uint256",
          "name": "proposalId",
          "type": "uint256"
        },
        {
          "internalType": "uint8",
          "name": "support",
          "type": "uint8"
        },
        {
          "internalType": "string",
          "name": "reason",
          "type": "string"
        }
      ],
      "name": "castVoteWithReason",
      "outputs": [
        {
          "internalType": "uint256",
          "name": "",
          "type": "uint256"
        }
      ],
      "stateMutability": "nonpayable",
      "type": "function"
    },
    {
      "inputs": [
        {
          "internalType": "uint256",
          "name": "proposalId",
          "type": "uint256"
        },
        {
          "internalType": "uint8",
          "name": "support",
          "type": "uint8"
        },
        {
          "internalType": "string",
          "name": "reason",
          "type": "string"
        },
        {
          "internalType": "bytes",
          "name": "params",
          "type": "bytes"
        }
      ],
      "name": "castVoteWithReasonAndParams",
      "outputs": [
        {
          "internalType": "uint256",
          "name": "",
          "type": "uint256"
        }
      ],
      "stateMutability": "nonpayable",
      "type": "function"
    },
    {
      "inputs": [
        {
          "internalType": "uint256",
          "name": "proposalId",
          "type": "uint256"
        },
        {
          "internalType": "uint8",
          "name": "support",
          "type": "uint8"
        },
        {
          "internalType": "string",
          "name": "reason",
          "type": "string"
        },
        {
          "internalType": "bytes",
          "name": "params",
          "type": "bytes"
        },
        {
          "internalType": "uint8",
          "name": "v",
          "type": "uint8"
        },
        {
          "internalType": "bytes32",
          "name": "r",
          "type": "bytes32"
        },
        {
          "internalType": "bytes32",
          "name": "s",
          "type": "bytes32"
        }
      ],
      "name": "castVoteWithReasonAndParamsBySig",
      "outputs": [
        {
          "internalType": "uint256",
          "name": "",
          "type": "uint256"
        }
      ],
      "stateMutability": "nonpayable",
      "type": "function"
    },
    {
      "inputs": [
        {
          "internalType": "uint256",
          "name": "",
          "type": "uint256"
        }
      ],
      "name": "descriptions",
      "outputs": [
        {
          "internalType": "string",
          "name": "",
          "type": "string"
        }
      ],
      "stateMutability": "view",
      "type": "function"
    },
    {
      "inputs": [
        {
          "internalType": "address[]",
          "name": "targets",
          "type": "address[]"
        },
        {
          "internalType": "uint256[]",
          "name": "values",
          "type": "uint256[]"
        },
        {
          "internalType": "bytes[]",
          "name": "calldatas",
          "type": "bytes[]"
        },
        {
          "internalType": "bytes32",
          "name": "descriptionHash",
          "type": "bytes32"
        }
      ],
      "name": "execute",
      "outputs": [
        {
          "internalType": "uint256",
          "name": "",
          "type": "uint256"
        }
      ],
      "stateMutability": "payable",
      "type": "function"
    },
    {
      "inputs": [
        {
          "internalType": "uint256",
          "name": "proposalId",
          "type": "uint256"
        }
      ],
      "name": "getDescription",
      "outputs": [
        {
          "internalType": "string",
          "name": "",
          "type": "string"
        }
      ],
      "stateMutability": "view",
      "type": "function"
    },
    {
      "inputs": [
        {
          "internalType": "address",
          "name": "account",
          "type": "address"
        },
        {
          "internalType": "uint256",
          "name": "blockNumber",
          "type": "uint256"
        }
      ],
      "name": "getVotes",
      "outputs": [
        {
          "internalType": "uint256",
          "name": "",
          "type": "uint256"
        }
      ],
      "stateMutability": "view",
      "type": "function"
    },
    {
      "inputs": [
        {
          "internalType": "address",
          "name": "account",
          "type": "address"
        },
        {
          "internalType": "uint256",
          "name": "blockNumber",
          "type": "uint256"
        },
        {
          "internalType": "bytes",
          "name": "params",
          "type": "bytes"
        }
      ],
      "name": "getVotesWithParams",
      "outputs": [
        {
          "internalType": "uint256",
          "name": "",
          "type": "uint256"
        }
      ],
      "stateMutability": "view",
      "type": "function"
    },
    {
      "inputs": [
        {
          "internalType": "uint256",
          "name": "proposalId",
          "type": "uint256"
        },
        {
          "internalType": "address",
          "name": "account",
          "type": "address"
        }
      ],
      "name": "hasVoted",
      "outputs": [
        {
          "internalType": "bool",
          "name": "",
          "type": "bool"
        }
      ],
      "stateMutability": "view",
      "type": "function"
    },
    {
      "inputs": [
        {
          "internalType": "address[]",
          "name": "targets",
          "type": "address[]"
        },
        {
          "internalType": "uint256[]",
          "name": "values",
          "type": "uint256[]"
        },
        {
          "internalType": "bytes[]",
          "name": "calldatas",
          "type": "bytes[]"
        },
        {
          "internalType": "bytes32",
          "name": "descriptionHash",
          "type": "bytes32"
        }
      ],
      "name": "hashProposal",
      "outputs": [
        {
          "internalType": "uint256",
          "name": "",
          "type": "uint256"
        }
      ],
      "stateMutability": "pure",
      "type": "function"
    },
    {
      "inputs": [],
      "name": "name",
      "outputs": [
        {
          "internalType": "string",
          "name": "",
          "type": "string"
        }
      ],
      "stateMutability": "view",
      "type": "function"
    },
    {
      "inputs": [
        {
          "internalType": "address",
          "name": "",
          "type": "address"
        },
        {
          "internalType": "address",
          "name": "",
          "type": "address"
        },
        {
          "internalType": "uint256[]",
          "name": "",
          "type": "uint256[]"
        },
        {
          "internalType": "uint256[]",
          "name": "",
          "type": "uint256[]"
        },
        {
          "internalType": "bytes",
          "name": "",
          "type": "bytes"
        }
      ],
      "name": "onERC1155BatchReceived",
      "outputs": [
        {
          "internalType": "bytes4",
          "name": "",
          "type": "bytes4"
        }
      ],
      "stateMutability": "nonpayable",
      "type": "function"
    },
    {
      "inputs": [
        {
          "internalType": "address",
          "name": "",
          "type": "address"
        },
        {
          "internalType": "address",
          "name": "",
          "type": "address"
        },
        {
          "internalType": "uint256",
          "name": "",
          "type": "uint256"
        },
        {
          "internalType": "uint256",
          "name": "",
          "type": "uint256"
        },
        {
          "internalType": "bytes",
          "name": "",
          "type": "bytes"
        }
      ],
      "name": "onERC1155Received",
      "outputs": [
        {
          "internalType": "bytes4",
          "name": "",
          "type": "bytes4"
        }
      ],
      "stateMutability": "nonpayable",
      "type": "function"
    },
    {
      "inputs": [
        {
          "internalType": "address",
          "name": "",
          "type": "address"
        },
        {
          "internalType": "address",
          "name": "",
          "type": "address"
        },
        {
          "internalType": "uint256",
          "name": "",
          "type": "uint256"
        },
        {
          "internalType": "bytes",
          "name": "",
          "type": "bytes"
        }
      ],
      "name": "onERC721Received",
      "outputs": [
        {
          "internalType": "bytes4",
          "name": "",
          "type": "bytes4"
        }
      ],
      "stateMutability": "nonpayable",
      "type": "function"
    },
    {
      "inputs": [
        {
          "internalType": "uint256",
          "name": "proposalId",
          "type": "uint256"
        }
      ],
      "name": "proposalDeadline",
      "outputs": [
        {
          "internalType": "uint256",
          "name": "",
          "type": "uint256"
        }
      ],
      "stateMutability": "view",
      "type": "function"
    },
    {
      "inputs": [
        {
          "internalType": "uint256",
          "name": "proposalId",
          "type": "uint256"
        }
      ],
      "name": "proposalSnapshot",
      "outputs": [
        {
          "internalType": "uint256",
          "name": "",
          "type": "uint256"
        }
      ],
      "stateMutability": "view",
      "type": "function"
    },
    {
      "inputs": [],
      "name": "proposalThreshold",
      "outputs": [
        {
          "internalType": "uint256",
          "name": "",
          "type": "uint256"
        }
      ],
      "stateMutability": "view",
      "type": "function"
    },
    {
      "inputs": [
        {
          "internalType": "uint256",
          "name": "proposalId",
          "type": "uint256"
        }
      ],
      "name": "proposalVotes",
      "outputs": [
        {
          "internalType": "uint256",
          "name": "againstVotes",
          "type": "uint256"
        },
        {
          "internalType": "uint256",
          "name": "forVotes",
          "type": "uint256"
        },
        {
          "internalType": "uint256",
          "name": "abstainVotes",
          "type": "uint256"
        }
      ],
      "stateMutability": "view",
      "type": "function"
    },
    {
      "inputs": [
        {
          "internalType": "address[]",
          "name": "targets",
          "type": "address[]"
        },
        {
          "internalType": "uint256[]",
          "name": "values",
          "type": "uint256[]"
        },
        {
          "internalType": "bytes[]",
          "name": "calldatas",
          "type": "bytes[]"
        },
        {
          "internalType": "string",
          "name": "description",
          "type": "string"
        }
      ],
      "name": "propose",
      "outputs": [
        {
          "internalType": "uint256",
          "name": "",
          "type": "uint256"
        }
      ],
      "stateMutability": "nonpayable",
      "type": "function"
    },
    {
      "inputs": [
        {
          "internalType": "uint256",
          "name": "blockNumber",
          "type": "uint256"
        }
      ],
      "name": "quorum",
      "outputs": [
        {
          "internalType": "uint256",
          "name": "",
          "type": "uint256"
        }
      ],
      "stateMutability": "view",
      "type": "function"
    },
    {
      "inputs": [],
      "name": "quorumDenominator",
      "outputs": [
        {
          "internalType": "uint256",
          "name": "",
          "type": "uint256"
        }
      ],
      "stateMutability": "view",
      "type": "function"
    },
    {
      "inputs": [
        {
          "internalType": "uint256",
          "name": "blockNumber",
          "type": "uint256"
        }
      ],
      "name": "quorumNumerator",
      "outputs": [
        {
          "internalType": "uint256",
          "name": "",
          "type": "uint256"
        }
      ],
      "stateMutability": "view",
      "type": "function"
    },
    {
      "inputs": [],
      "name": "quorumNumerator",
      "outputs": [
        {
          "internalType": "uint256",
          "name": "",
          "type": "uint256"
        }
      ],
      "stateMutability": "view",
      "type": "function"
    },
    {
      "inputs": [
        {
          "internalType": "address",
          "name": "target",
          "type": "address"
        },
        {
          "internalType": "uint256",
          "name": "value",
          "type": "uint256"
        },
        {
          "internalType": "bytes",
          "name": "data",
          "type": "bytes"
        }
      ],
      "name": "relay",
      "outputs": [],
      "stateMutability": "nonpayable",
      "type": "function"
    },
    {
      "inputs": [
        {
          "internalType": "uint256",
          "name": "newProposalThreshold",
          "type": "uint256"
        }
      ],
      "name": "setProposalThreshold",
      "outputs": [],
      "stateMutability": "nonpayable",
      "type": "function"
    },
    {
      "inputs": [
        {
          "internalType": "uint256",
          "name": "newVotingDelay",
          "type": "uint256"
        }
      ],
      "name": "setVotingDelay",
      "outputs": [],
      "stateMutability": "nonpayable",
      "type": "function"
    },
    {
      "inputs": [
        {
          "internalType": "uint256",
          "name": "newVotingPeriod",
          "type": "uint256"
        }
      ],
      "name": "setVotingPeriod",
      "outputs": [],
      "stateMutability": "nonpayable",
      "type": "function"
    },
    {
      "inputs": [
        {
          "internalType": "uint256",
          "name": "proposalId",
          "type": "uint256"
        }
      ],
      "name": "state",
      "outputs": [
        {
          "internalType": "enum IGovernor.ProposalState",
          "name": "",
          "type": "uint8"
        }
      ],
      "stateMutability": "view",
      "type": "function"
    },
    {
      "inputs": [
        {
          "internalType": "bytes4",
          "name": "interfaceId",
          "type": "bytes4"
        }
      ],
      "name": "supportsInterface",
      "outputs": [
        {
          "internalType": "bool",
          "name": "",
          "type": "bool"
        }
      ],
      "stateMutability": "view",
      "type": "function"
    },
    {
      "inputs": [],
      "name": "token",
      "outputs": [
        {
          "internalType": "contract IVotes",
          "name": "",
          "type": "address"
        }
      ],
      "stateMutability": "view",
      "type": "function"
    },
    {
      "inputs": [
        {
          "internalType": "uint256",
          "name": "newQuorumNumerator",
          "type": "uint256"
        }
      ],
      "name": "updateQuorumNumerator",
      "outputs": [],
      "stateMutability": "nonpayable",
      "type": "function"
    },
    {
      "inputs": [],
      "name": "version",
      "outputs": [
        {
          "internalType": "string",
          "name": "",
          "type": "string"
        }
      ],
      "stateMutability": "view",
      "type": "function"
    },
    {
      "inputs": [],
      "name": "votingDelay",
      "outputs": [
        {
          "internalType": "uint256",
          "name": "",
          "type": "uint256"
        }
      ],
      "stateMutability": "view",
      "type": "function"
    },
    {
      "inputs": [],
      "name": "votingPeriod",
      "outputs": [
        {
          "internalType": "uint256",
          "name": "",
          "type": "uint256"
        }
      ],
      "stateMutability": "view",
      "type": "function"
    },
    {
      "stateMutability": "payable",
      "type": "receive"
    }
  ],
  "bytecode": "0x6101606040523480156200001257600080fd5b5060405162003f4138038062003f4183398101604081905262000035916200077e565b600481600161c4e060006040518060400160405280600c81526020016b21a920a323b7bb32b93737b960a11b81525080620000756200016260201b60201c565b815160208084019190912082518383012060e08290526101008190524660a0818152604080517f8b73c3c69bb8fe3d512ecc4cf759cc79239f7b179b0ffacaa9a75d522b39400f81880181905281830187905260608201869052608082019490945230818401528151808203909301835260c00190528051940193909320919290916080523060c05261012052505082516200011b9250600091506020840190620006e2565b50620001299050836200017d565b6200013482620001be565b6200013f8162000265565b5050506001600160a01b0316610140526200015a81620002a6565b505062000829565b6040805180820190915260018152603160f81b602082015290565b60045460408051918252602082018390527fc565b045403dc03c2eea82b81a0465edad9e2e7fc4d97e11421c209da93d7a93910160405180910390a1600455565b60008111620002245760405162461bcd60e51b815260206004820152602760248201527f476f7665726e6f7253657474696e67733a20766f74696e6720706572696f6420604482015266746f6f206c6f7760c81b60648201526084015b60405180910390fd5b60055460408051918252602082018390527f7e3f7f0708a84de9203036abaa450dccc85ad5ff52f78c170f3edb55cf5e8828910160405180910390a1600555565b60065460408051918252602082018390527fccb45da8d5717e6c4544694297c4ba5cf151d455c9bb0ed4fc7a38411bc05461910160405180910390a1600655565b60648111156200032b5760405162461bcd60e51b815260206004820152604360248201527f476f7665726e6f72566f74657351756f72756d4672616374696f6e3a2071756f60448201527f72756d4e756d657261746f72206f7665722071756f72756d44656e6f6d696e616064820152623a37b960e91b608482015260a4016200021b565b6000620003376200041e565b90508015801590620003495750600954155b15620003c45760096000016040518060400160405280600063ffffffff16815260200162000382846200044d60201b620011001760201c565b6001600160e01b0390811690915282546001810184556000938452602093849020835194909301519091166401000000000263ffffffff909316929092179101555b620003df826009620004bc60201b6200116d1790919060201c565b505060408051828152602081018490527f0553476bf02ef2726e8ce5ced78d63e26e602e4a2257b1f559418e24b4633997910160405180910390a15050565b6009546000901562000446576200044160096200061860201b620012981760201c565b905090565b5060085490565b60006001600160e01b03821115620004b85760405162461bcd60e51b815260206004820152602760248201527f53616665436173743a2076616c756520646f65736e27742066697420696e20326044820152663234206269747360c81b60648201526084016200021b565b5090565b8154600090819081620004cf8662000618565b90506000821180156200051357504386620004ec600185620007b0565b81548110620004ff57620004ff620007d6565b60009182526020909120015463ffffffff16145b1562000587576200052f856200044d60201b620011001760201c565b866200053d600185620007b0565b81548110620005505762000550620007d6565b9060005260206000200160000160046101000a8154816001600160e01b0302191690836001600160e01b031602179055506200060f565b856000016040518060400160405280620005ac436200067b60201b620012f41760201c565b63ffffffff168152602001620005cd886200044d60201b620011001760201c565b6001600160e01b0390811690915282546001810184556000938452602093849020835194909301519091166401000000000263ffffffff909316929092179101555b95939450505050565b8054600090801562000668578262000632600183620007b0565b81548110620006455762000645620007d6565b60009182526020909120015464010000000090046001600160e01b03166200066b565b60005b6001600160e01b03169392505050565b600063ffffffff821115620004b85760405162461bcd60e51b815260206004820152602660248201527f53616665436173743a2076616c756520646f65736e27742066697420696e203360448201526532206269747360d01b60648201526084016200021b565b828054620006f090620007ec565b90600052602060002090601f0160209004810192826200071457600085556200075f565b82601f106200072f57805160ff19168380011785556200075f565b828001600101855582156200075f579182015b828111156200075f57825182559160200191906001019062000742565b50620004b89291505b80821115620004b8576000815560010162000768565b6000602082840312156200079157600080fd5b81516001600160a01b0381168114620007a957600080fd5b9392505050565b600082821015620007d157634e487b7160e01b600052601160045260246000fd5b500390565b634e487b7160e01b600052603260045260246000fd5b600181811c908216806200080157607f821691505b602082108114156200082357634e487b7160e01b600052602260045260246000fd5b50919050565b60805160a05160c05160e0516101005161012051610140516136af62000892600039600081816107f401528181611d6c0152611f1301526000612033015260006120820152600061205d01526000611fb601526000611fe00152600061200a01526136af6000f3fe6080604052600436106102345760003560e01c806370b0f6601161012e578063c59057e4116100ab578063eb9019d41161006f578063eb9019d414610756578063ece40cc114610776578063f23a6e6114610796578063f8ce560a146107c2578063fc0c546a146107e257600080fd5b8063c59057e41461067c578063dd4e2ba51461069c578063deaaa7cc146106e2578063e6f859e714610716578063ea0217cf1461073657600080fd5b8063a7713a70116100f2578063a7713a70146105e6578063b58131b0146105fb578063bc197c8114610610578063c01f9e371461063c578063c28bc2fa1461065c57600080fd5b806370b0f660146105525780637b3c71d3146105725780637d5e81e21461059257806397c3d334146105b25780639a802a6d146105c657600080fd5b80633932abb1116101bc578063544ffc9c11610180578063544ffc9c1461047357806354fd4d50146104c857806356781388146104f25780635f398a141461051257806360c4247f1461053257600080fd5b80633932abb1146103a75780633bccf4fd146103bc5780633e4f49e6146103dc57806343859632146104095780634925ec551461045357600080fd5b806306fdde031161020357806306fdde03146102da578063150b7a02146102fc5780632656227d146103405780632d63f693146103535780632fe3e2611461037357600080fd5b806301ffc9a71461024257806302a251a314610277578063034201811461029a57806306f3f9e6146102ba57600080fd5b3661023d57005b005b600080fd5b34801561024e57600080fd5b5061026261025d3660046128d7565b610833565b60405190151581526020015b60405180910390f35b34801561028357600080fd5b5061028c610844565b60405190815260200161026e565b3480156102a657600080fd5b5061028c6102b5366004612a15565b61084f565b3480156102c657600080fd5b5061023b6102d5366004612abb565b610947565b3480156102e657600080fd5b506102ef610997565b60405161026e9190612b30565b34801561030857600080fd5b50610327610317366004612b5a565b630a85bd0160e11b949350505050565b6040516001600160e01b0319909116815260200161026e565b61028c61034e366004612d30565b610a29565b34801561035f57600080fd5b5061028c61036e366004612abb565b610b50565b34801561037f57600080fd5b5061028c7fb3b3f3b703cd84ce352197dcff232b1b5d3cfb2025ce47cf04742d0651f1af8881565b3480156103b357600080fd5b5061028c610b87565b3480156103c857600080fd5b5061028c6103d7366004612dbf565b610b92565b3480156103e857600080fd5b506103fc6103f7366004612abb565b610c08565b60405161026e9190612e23565b34801561041557600080fd5b50610262610424366004612e4b565b60008281526007602090815260408083206001600160a01b038516845260030190915290205460ff1692915050565b34801561045f57600080fd5b506102ef61046e366004612abb565b610c13565b34801561047f57600080fd5b506104ad61048e366004612abb565b6000908152600760205260409020805460018201546002909201549092565b6040805193845260208401929092529082015260600161026e565b3480156104d457600080fd5b506040805180820190915260018152603160f81b60208201526102ef565b3480156104fe57600080fd5b5061028c61050d366004612e77565b610cb5565b34801561051e57600080fd5b5061028c61052d366004612e9a565b610cde565b34801561053e57600080fd5b5061028c61054d366004612abb565b610d28565b34801561055e57600080fd5b5061023b61056d366004612abb565b610dbe565b34801561057e57600080fd5b5061028c61058d366004612f1d565b610e02565b34801561059e57600080fd5b5061028c6105ad366004612f76565b610e54565b3480156105be57600080fd5b50606461028c565b3480156105d257600080fd5b5061028c6105e136600461302a565b610e87565b3480156105f257600080fd5b5061028c610e9e565b34801561060757600080fd5b5061028c610eba565b34801561061c57600080fd5b5061032761062b366004613080565b63bc197c8160e01b95945050505050565b34801561064857600080fd5b5061028c610657366004612abb565b610ec5565b34801561066857600080fd5b5061023b61067736600461310f565b610ef4565b34801561068857600080fd5b5061028c610697366004612d30565b610f78565b3480156106a857600080fd5b506040805180820190915260208082527f737570706f72743d627261766f2671756f72756d3d666f722c6162737461696e908201526102ef565b3480156106ee57600080fd5b5061028c7f150214d74d59b7d1e90c73fc22ef3d991dd0a76b046543d4d80ab92d2a50328f81565b34801561072257600080fd5b506102ef610731366004612abb565b610fb2565b34801561074257600080fd5b5061023b610751366004612abb565b61104c565b34801561076257600080fd5b5061028c610771366004613150565b611090565b34801561078257600080fd5b5061023b610791366004612abb565b6110b1565b3480156107a257600080fd5b506103276107b136600461317a565b63f23a6e6160e01b95945050505050565b3480156107ce57600080fd5b5061028c6107dd366004612abb565b6110f5565b3480156107ee57600080fd5b506108167f000000000000000000000000000000000000000000000000000000000000000081565b6040516001600160a01b03909116815260200161026e565b905090565b600061083e82611359565b92915050565b600061082e60055490565b6000806108f36108eb7fb3b3f3b703cd84ce352197dcff232b1b5d3cfb2025ce47cf04742d0651f1af888c8c8c8c60405161088b9291906131de565b60405180910390208b805190602001206040516020016108d0959493929190948552602085019390935260ff9190911660408401526060830152608082015260a00190565b604051602081830303815290604052805190602001206113c4565b868686611412565b90506109398a828b8b8b8080601f0160208091040260200160405190810160405280939291908181526020018383808284376000920191909152508d9250611430915050565b9a9950505050505050505050565b33301461096f5760405162461bcd60e51b8152600401610966906131ee565b60405180910390fd5b61098b565b8061097f6002611592565b1461098957610974565b505b61099481611611565b50565b6060600080546109a690613225565b80601f01602080910402602001604051908101604052809291908181526020018280546109d290613225565b8015610a1f5780601f106109f457610100808354040283529160200191610a1f565b820191906000526020600020905b815481529060010190602001808311610a0257829003601f168201915b5050505050905090565b600080610a3886868686610f78565b90506000610a4582610c08565b90506004816007811115610a5b57610a5b612e0d565b1480610a7857506005816007811115610a7657610a76612e0d565b145b610ace5760405162461bcd60e51b815260206004820152602160248201527f476f7665726e6f723a2070726f706f73616c206e6f74207375636365737366756044820152601b60fa1b6064820152608401610966565b600082815260016020818152604092839020600201805460ff191690921790915590518381527f712ae1383f79ac853f8d882153778e0260ef8f03b504e2866e0593e04d2b291f910160405180910390a1610b2c828888888861175e565b610b3982888888886117eb565b610b46828888888861175e565b5095945050505050565b60008181526001602090815260408083208151928301909152546001600160401b0316908190525b6001600160401b031692915050565b600061082e60045490565b604080517f150214d74d59b7d1e90c73fc22ef3d991dd0a76b046543d4d80ab92d2a50328f602082015290810186905260ff851660608201526000908190610be0906108eb906080016108d0565b9050610bfd878288604051806020016040528060008152506117f8565b979650505050505050565b600061083e82611824565b6000818152600a60205260409020805460609190610c3090613225565b80601f0160208091040260200160405190810160405280929190818152602001828054610c5c90613225565b8015610ca95780601f10610c7e57610100808354040283529160200191610ca9565b820191906000526020600020905b815481529060010190602001808311610c8c57829003601f168201915b50505050509050919050565b600080339050610cd6848285604051806020016040528060008152506117f8565b949350505050565b600080339050610bfd87828888888080601f0160208091040260200160405190810160405280939291908181526020018383808284376000920191909152508a9250611430915050565b60095460009080610d3d575050600854919050565b60006009610d4c600184613276565b81548110610d5c57610d5c61328d565b60009182526020918290206040805180820190915291015463ffffffff81168083526401000000009091046001600160e01b03169282019290925291508410610db357602001516001600160e01b03169392505050565b610cd6600985611930565b333014610ddd5760405162461bcd60e51b8152600401610966906131ee565b610df9565b80610ded6002611592565b14610df757610de2565b505b61099481611a3f565b600080339050610e4a86828787878080601f0160208091040260200160405190810160405280939291908181526020018383808284376000920191909152506117f892505050565b9695505050505050565b600080610e6386868686611a80565b6000818152600a602090815260409091208551929350610b46929091860190612847565b6000610e94848484611d43565b90505b9392505050565b60095460009015610eb35761082e6009611298565b5060085490565b600061082e60065490565b60008181526001602081815260408084208151928301909152909101546001600160401b031690819052610b78565b333014610f135760405162461bcd60e51b8152600401610966906131ee565b610f2f565b80610f236002611592565b14610f2d57610f18565b505b610f718483838080601f016020809104026020016040519081016040528093929190818152602001838380828437600092019190915250889250611de8915050565b5050505050565b600084848484604051602001610f91949392919061336c565b60408051601f19818403018152919052805160209091012095945050505050565b600a6020526000908152604090208054610fcb90613225565b80601f0160208091040260200160405190810160405280929190818152602001828054610ff790613225565b80156110445780601f1061101957610100808354040283529160200191611044565b820191906000526020600020905b81548152906001019060200180831161102757829003601f168201915b505050505081565b33301461106b5760405162461bcd60e51b8152600401610966906131ee565b611087565b8061107b6002611592565b1461108557611070565b505b61099481611e0e565b6000610e9783836110ac60408051602081019091526000815290565b611d43565b3330146110d05760405162461bcd60e51b8152600401610966906131ee565b6110ec565b806110e06002611592565b146110ea576110d5565b505b61099481611eaf565b600061083e82611ef0565b60006001600160e01b038211156111695760405162461bcd60e51b815260206004820152602760248201527f53616665436173743a2076616c756520646f65736e27742066697420696e20326044820152663234206269747360c81b6064820152608401610966565b5090565b815460009081908161117e86611298565b90506000821180156111bc57504386611198600185613276565b815481106111a8576111a861328d565b60009182526020909120015463ffffffff16145b1561121c576111ca85611100565b866111d6600185613276565b815481106111e6576111e661328d565b9060005260206000200160000160046101000a8154816001600160e01b0302191690836001600160e01b0316021790555061128a565b856000016040518060400160405280611234436112f4565b63ffffffff16815260200161124888611100565b6001600160e01b0390811690915282546001810184556000938452602093849020835194909301519091166401000000000263ffffffff909316929092179101555b9250839150505b9250929050565b805460009080156112e157826112af600183613276565b815481106112bf576112bf61328d565b60009182526020909120015464010000000090046001600160e01b03166112e4565b60005b6001600160e01b03169392505050565b600063ffffffff8211156111695760405162461bcd60e51b815260206004820152602660248201527f53616665436173743a2076616c756520646f65736e27742066697420696e203360448201526532206269747360d01b6064820152608401610966565b60006001600160e01b0319821663bf26d89760e01b148061138a57506001600160e01b031982166379dd796f60e01b145b806113a557506001600160e01b03198216630271189760e51b145b8061083e57506301ffc9a760e01b6001600160e01b031983161461083e565b600061083e6113d1611fa9565b8360405161190160f01b6020820152602281018390526042810182905260009060620160405160208183030381529060405280519060200120905092915050565b6000806000611423878787876120d0565b91509150610b46816121bd565b600085815260016020819052604082209061144a88610c08565b600781111561145b5761145b612e0d565b146114b45760405162461bcd60e51b815260206004820152602360248201527f476f7665726e6f723a20766f7465206e6f742063757272656e746c792061637460448201526269766560e81b6064820152608401610966565b604080516020810190915281546001600160401b0316908190526000906114dd90889086611d43565b90506114ec8888888488612378565b835161153e57866001600160a01b03167fb8e138887d0aa13bab447e82de9d5c1777041ecd21ca36ba824ff1e6c07ddda48988848960405161153194939291906133b7565b60405180910390a2610bfd565b866001600160a01b03167fe2babfbac5889a709b63bb7f598b324e08bc5a4fb9ec647fb3cbc9ec07eb8712898884898960405161157f9594939291906133df565b60405180910390a2979650505050505050565b60006115ad8254600f81810b600160801b909204900b131590565b156115cb57604051631ed9509560e11b815260040160405180910390fd5b508054600f0b6000818152600180840160205260408220805492905583546fffffffffffffffffffffffffffffffff191692016001600160801b03169190911790915590565b60648111156116945760405162461bcd60e51b815260206004820152604360248201527f476f7665726e6f72566f74657351756f72756d4672616374696f6e3a2071756f60448201527f72756d4e756d657261746f72206f7665722071756f72756d44656e6f6d696e616064820152623a37b960e91b608482015260a401610966565b600061169e610e9e565b905080158015906116af5750600954155b15611714576040805180820190915260008152600990602081016116d284611100565b6001600160e01b0390811690915282546001810184556000938452602093849020835194909301519091166401000000000263ffffffff909316929092179101555b61171f60098361116d565b505060408051828152602081018490527f0553476bf02ef2726e8ce5ced78d63e26e602e4a2257b1f559418e24b4633997910160405180910390a15050565b610f71565b84518110156117e357306001600160a01b03168582815181106117885761178861328d565b60200260200101516001600160a01b031614156117d3576117d38382815181106117b4576117b461328d565b60200260200101518051906020012060026124f790919063ffffffff16565b6117dc81613425565b9050611763565b505050505050565b610f718585858585612533565b600061181b8585858561181660408051602081019091526000815290565b611430565b95945050505050565b6000818152600160205260408120600281015460ff16156118485750600792915050565b6002810154610100900460ff16156118635750600292915050565b600061186e84610b50565b9050806118bd5760405162461bcd60e51b815260206004820152601d60248201527f476f7665726e6f723a20756e6b6e6f776e2070726f706f73616c2069640000006044820152606401610966565b4381106118ce575060009392505050565b60006118d985610ec5565b90504381106118ed57506001949350505050565b6118f685612632565b8015611915575060008581526007602052604090208054600190910154115b1561192557506004949350505050565b506003949350505050565b60004382106119815760405162461bcd60e51b815260206004820181905260248201527f436865636b706f696e74733a20626c6f636b206e6f7420796574206d696e65646044820152606401610966565b825460005b818110156119e657600061199a8284612669565b9050848660000182815481106119b2576119b261328d565b60009182526020909120015463ffffffff1611156119d2578092506119e0565b6119dd816001613440565b91505b50611986565b8115611a2a57846119f8600184613276565b81548110611a0857611a0861328d565b60009182526020909120015464010000000090046001600160e01b0316611a2d565b60005b6001600160e01b031695945050505050565b60045460408051918252602082018390527fc565b045403dc03c2eea82b81a0465edad9e2e7fc4d97e11421c209da93d7a93910160405180910390a1600455565b6000611a8a610eba565b611a9933610771600143613276565b1015611b015760405162461bcd60e51b815260206004820152603160248201527f476f7665726e6f723a2070726f706f73657220766f7465732062656c6f7720706044820152701c9bdc1bdcd85b081d1a1c995cda1bdb19607a1b6064820152608401610966565b6000611b168686868680519060200120610f78565b90508451865114611b395760405162461bcd60e51b815260040161096690613458565b8351865114611b5a5760405162461bcd60e51b815260040161096690613458565b6000865111611bab5760405162461bcd60e51b815260206004820152601860248201527f476f7665726e6f723a20656d7074792070726f706f73616c00000000000000006044820152606401610966565b600081815260016020908152604091829020825191820190925281546001600160401b03169081905215611c2b5760405162461bcd60e51b815260206004820152602160248201527f476f7665726e6f723a2070726f706f73616c20616c72656164792065786973746044820152607360f81b6064820152608401610966565b6000611c3d611c38610b87565b612684565b611c4643612684565b611c509190613499565b90506000611c5f611c38610844565b611c699083613499565b835467ffffffffffffffff19166001600160401b038416178455905060018301805467ffffffffffffffff19166001600160401b0383161790557f7d84a6263ae0d98d3329bd7b46bb4e8d6f98cd35a7adb45c274c8b7fd5ebd5e084338b8b8d516001600160401b03811115611ce157611ce1612958565b604051908082528060200260200182016040528015611d1457816020015b6060815260200190600190039081611cff5790505b508c88888e604051611d2e999897969594939291906134c4565b60405180910390a15091979650505050505050565b604051630748d63560e31b81526001600160a01b038481166004830152602482018490526000917f000000000000000000000000000000000000000000000000000000000000000090911690633a46b1a89060440160206040518083038186803b158015611db057600080fd5b505afa158015611dc4573d6000803e3d6000fd5b505050506040513d601f19601f82011682018060405250810190610e9491906135b3565b6060610e94848484604051806060016040528060298152602001613651602991396126ec565b60008111611e6e5760405162461bcd60e51b815260206004820152602760248201527f476f7665726e6f7253657474696e67733a20766f74696e6720706572696f6420604482015266746f6f206c6f7760c81b6064820152608401610966565b60055460408051918252602082018390527f7e3f7f0708a84de9203036abaa450dccc85ad5ff52f78c170f3edb55cf5e8828910160405180910390a1600555565b60065460408051918252602082018390527fccb45da8d5717e6c4544694297c4ba5cf151d455c9bb0ed4fc7a38411bc05461910160405180910390a1600655565b60006064611efd83610d28565b604051632394e7a360e21b8152600481018590527f00000000000000000000000000000000000000000000000000000000000000006001600160a01b031690638e539e8c9060240160206040518083038186803b158015611f5d57600080fd5b505afa158015611f71573d6000803e3d6000fd5b505050506040513d601f19601f82011682018060405250810190611f9591906135b3565b611f9f91906135cc565b61083e91906135eb565b6000306001600160a01b037f00000000000000000000000000000000000000000000000000000000000000001614801561200257507f000000000000000000000000000000000000000000000000000000000000000046145b1561202c57507f000000000000000000000000000000000000000000000000000000000000000090565b50604080517f00000000000000000000000000000000000000000000000000000000000000006020808301919091527f0000000000000000000000000000000000000000000000000000000000000000828401527f000000000000000000000000000000000000000000000000000000000000000060608301524660808301523060a0808401919091528351808403909101815260c0909201909252805191012090565b6000807f7fffffffffffffffffffffffffffffff5d576e7357a4501ddfe92f46681b20a083111561210757506000905060036121b4565b8460ff16601b1415801561211f57508460ff16601c14155b1561213057506000905060046121b4565b6040805160008082526020820180845289905260ff881692820192909252606081018690526080810185905260019060a0016020604051602081039080840390855afa158015612184573d6000803e3d6000fd5b5050604051601f1901519150506001600160a01b0381166121ad576000600192509250506121b4565b9150600090505b94509492505050565b60008160048111156121d1576121d1612e0d565b14156121da5750565b60018160048111156121ee576121ee612e0d565b141561223c5760405162461bcd60e51b815260206004820152601860248201527f45434453413a20696e76616c6964207369676e617475726500000000000000006044820152606401610966565b600281600481111561225057612250612e0d565b141561229e5760405162461bcd60e51b815260206004820152601f60248201527f45434453413a20696e76616c6964207369676e6174757265206c656e677468006044820152606401610966565b60038160048111156122b2576122b2612e0d565b141561230b5760405162461bcd60e51b815260206004820152602260248201527f45434453413a20696e76616c6964207369676e6174757265202773272076616c604482015261756560f01b6064820152608401610966565b600481600481111561231f5761231f612e0d565b14156109945760405162461bcd60e51b815260206004820152602260248201527f45434453413a20696e76616c6964207369676e6174757265202776272076616c604482015261756560f01b6064820152608401610966565b60008581526007602090815260408083206001600160a01b0388168452600381019092529091205460ff16156124005760405162461bcd60e51b815260206004820152602760248201527f476f7665726e6f72566f74696e6753696d706c653a20766f746520616c726561604482015266191e4818d85cdd60ca1b6064820152608401610966565b6001600160a01b03851660009081526003820160205260408120805460ff1916600117905560ff168460ff16141561245157828160000160008282546124469190613440565b909155506117e39050565b60ff84166001141561247157828160010160008282546124469190613440565b60ff84166002141561249157828160020160008282546124469190613440565b60405162461bcd60e51b815260206004820152603560248201527f476f7665726e6f72566f74696e6753696d706c653a20696e76616c69642076616044820152746c756520666f7220656e756d20566f74655479706560581b6064820152608401610966565b8154600160801b90819004600f0b6000818152600180860160205260409091209390935583546001600160801b03908116939091011602179055565b600060405180606001604052806027815260200161362a60279139905060005b8551811015612629576000808783815181106125715761257161328d565b60200260200101516001600160a01b03168784815181106125945761259461328d565b60200260200101518785815181106125ae576125ae61328d565b60200260200101516040516125c3919061360d565b60006040518083038185875af1925050503d8060008114612600576040519150601f19603f3d011682016040523d82523d6000602084013e612605565b606091505b509150915061261582828661280e565b5050508061262290613425565b9050612553565b50505050505050565b6000818152600760205260408120600281015460018201546126549190613440565b6126606107dd85610b50565b11159392505050565b600061267860028484186135eb565b610e9790848416613440565b60006001600160401b038211156111695760405162461bcd60e51b815260206004820152602660248201527f53616665436173743a2076616c756520646f65736e27742066697420696e203660448201526534206269747360d01b6064820152608401610966565b60608247101561274d5760405162461bcd60e51b815260206004820152602660248201527f416464726573733a20696e73756666696369656e742062616c616e636520666f6044820152651c8818d85b1b60d21b6064820152608401610966565b6001600160a01b0385163b6127a45760405162461bcd60e51b815260206004820152601d60248201527f416464726573733a2063616c6c20746f206e6f6e2d636f6e74726163740000006044820152606401610966565b600080866001600160a01b031685876040516127c0919061360d565b60006040518083038185875af1925050503d80600081146127fd576040519150601f19603f3d011682016040523d82523d6000602084013e612802565b606091505b5091509150610bfd8282865b6060831561281d575081610e97565b82511561282d5782518084602001fd5b8160405162461bcd60e51b81526004016109669190612b30565b82805461285390613225565b90600052602060002090601f01602090048101928261287557600085556128bb565b82601f1061288e57805160ff19168380011785556128bb565b828001600101855582156128bb579182015b828111156128bb5782518255916020019190600101906128a0565b506111699291505b8082111561116957600081556001016128c3565b6000602082840312156128e957600080fd5b81356001600160e01b031981168114610e9757600080fd5b803560ff8116811461291257600080fd5b919050565b60008083601f84011261292957600080fd5b5081356001600160401b0381111561294057600080fd5b60208301915083602082850101111561129157600080fd5b634e487b7160e01b600052604160045260246000fd5b604051601f8201601f191681016001600160401b038111828210171561299657612996612958565b604052919050565b60006001600160401b038311156129b7576129b7612958565b6129ca601f8401601f191660200161296e565b90508281528383830111156129de57600080fd5b828260208301376000602084830101529392505050565b600082601f830112612a0657600080fd5b610e978383356020850161299e565b60008060008060008060008060e0898b031215612a3157600080fd5b88359750612a4160208a01612901565b965060408901356001600160401b0380821115612a5d57600080fd5b612a698c838d01612917565b909850965060608b0135915080821115612a8257600080fd5b50612a8f8b828c016129f5565b945050612a9e60808a01612901565b925060a0890135915060c089013590509295985092959890939650565b600060208284031215612acd57600080fd5b5035919050565b60005b83811015612aef578181015183820152602001612ad7565b83811115612afe576000848401525b50505050565b60008151808452612b1c816020860160208601612ad4565b601f01601f19169290920160200192915050565b602081526000610e976020830184612b04565b80356001600160a01b038116811461291257600080fd5b60008060008060808587031215612b7057600080fd5b612b7985612b43565b9350612b8760208601612b43565b92506040850135915060608501356001600160401b03811115612ba957600080fd5b612bb5878288016129f5565b91505092959194509250565b60006001600160401b03821115612bda57612bda612958565b5060051b60200190565b600082601f830112612bf557600080fd5b81356020612c0a612c0583612bc1565b61296e565b82815260059290921b84018101918181019086841115612c2957600080fd5b8286015b84811015612c4b57612c3e81612b43565b8352918301918301612c2d565b509695505050505050565b600082601f830112612c6757600080fd5b81356020612c77612c0583612bc1565b82815260059290921b84018101918181019086841115612c9657600080fd5b8286015b84811015612c4b5780358352918301918301612c9a565b600082601f830112612cc257600080fd5b81356020612cd2612c0583612bc1565b82815260059290921b84018101918181019086841115612cf157600080fd5b8286015b84811015612c4b5780356001600160401b03811115612d145760008081fd5b612d228986838b01016129f5565b845250918301918301612cf5565b60008060008060808587031215612d4657600080fd5b84356001600160401b0380821115612d5d57600080fd5b612d6988838901612be4565b95506020870135915080821115612d7f57600080fd5b612d8b88838901612c56565b94506040870135915080821115612da157600080fd5b50612dae87828801612cb1565b949793965093946060013593505050565b600080600080600060a08688031215612dd757600080fd5b85359450612de760208701612901565b9350612df560408701612901565b94979396509394606081013594506080013592915050565b634e487b7160e01b600052602160045260246000fd5b6020810160088310612e4557634e487b7160e01b600052602160045260246000fd5b91905290565b60008060408385031215612e5e57600080fd5b82359150612e6e60208401612b43565b90509250929050565b60008060408385031215612e8a57600080fd5b82359150612e6e60208401612901565b600080600080600060808688031215612eb257600080fd5b85359450612ec260208701612901565b935060408601356001600160401b0380821115612ede57600080fd5b612eea89838a01612917565b90955093506060880135915080821115612f0357600080fd5b50612f10888289016129f5565b9150509295509295909350565b60008060008060608587031215612f3357600080fd5b84359350612f4360208601612901565b925060408501356001600160401b03811115612f5e57600080fd5b612f6a87828801612917565b95989497509550505050565b60008060008060808587031215612f8c57600080fd5b84356001600160401b0380821115612fa357600080fd5b612faf88838901612be4565b95506020870135915080821115612fc557600080fd5b612fd188838901612c56565b94506040870135915080821115612fe757600080fd5b612ff388838901612cb1565b9350606087013591508082111561300957600080fd5b508501601f8101871361301b57600080fd5b612bb58782356020840161299e565b60008060006060848603121561303f57600080fd5b61304884612b43565b92506020840135915060408401356001600160401b0381111561306a57600080fd5b613076868287016129f5565b9150509250925092565b600080600080600060a0868803121561309857600080fd5b6130a186612b43565b94506130af60208701612b43565b935060408601356001600160401b03808211156130cb57600080fd5b6130d789838a01612c56565b945060608801359150808211156130ed57600080fd5b6130f989838a01612c56565b93506080880135915080821115612f0357600080fd5b6000806000806060858703121561312557600080fd5b61312e85612b43565b93506020850135925060408501356001600160401b03811115612f5e57600080fd5b6000806040838503121561316357600080fd5b61316c83612b43565b946020939093013593505050565b600080600080600060a0868803121561319257600080fd5b61319b86612b43565b94506131a960208701612b43565b9350604086013592506060860135915060808601356001600160401b038111156131d257600080fd5b612f10888289016129f5565b8183823760009101908152919050565b60208082526018908201527f476f7665726e6f723a206f6e6c79476f7665726e616e63650000000000000000604082015260600190565b600181811c9082168061323957607f821691505b6020821081141561325a57634e487b7160e01b600052602260045260246000fd5b50919050565b634e487b7160e01b600052601160045260246000fd5b60008282101561328857613288613260565b500390565b634e487b7160e01b600052603260045260246000fd5b600081518084526020808501945080840160005b838110156132dc5781516001600160a01b0316875295820195908201906001016132b7565b509495945050505050565b600081518084526020808501945080840160005b838110156132dc578151875295820195908201906001016132fb565b600081518084526020808501808196508360051b8101915082860160005b8581101561335f57828403895261334d848351612b04565b98850198935090840190600101613335565b5091979650505050505050565b60808152600061337f60808301876132a3565b828103602084015261339181876132e7565b905082810360408401526133a58186613317565b91505082606083015295945050505050565b84815260ff84166020820152826040820152608060608201526000610e4a6080830184612b04565b85815260ff8516602082015283604082015260a06060820152600061340760a0830185612b04565b82810360808401526134198185612b04565b98975050505050505050565b600060001982141561343957613439613260565b5060010190565b6000821982111561345357613453613260565b500190565b60208082526021908201527f476f7665726e6f723a20696e76616c69642070726f706f73616c206c656e67746040820152600d60fb1b606082015260800190565b60006001600160401b038083168185168083038211156134bb576134bb613260565b01949350505050565b60006101208b8352602060018060a01b038c16818501528160408501526134ed8285018c6132a3565b91508382036060850152613501828b6132e7565b915083820360808501528189518084528284019150828160051b850101838c0160005b8381101561355257601f19878403018552613540838351612b04565b94860194925090850190600101613524565b505086810360a0880152613566818c613317565b94505050505061358160c08401876001600160401b03169052565b6001600160401b03851660e08401528281036101008401526135a38185612b04565b9c9b505050505050505050505050565b6000602082840312156135c557600080fd5b5051919050565b60008160001904831182151516156135e6576135e6613260565b500290565b60008261360857634e487b7160e01b600052601260045260246000fd5b500490565b6000825161361f818460208701612ad4565b919091019291505056fe476f7665726e6f723a2063616c6c20726576657274656420776974686f7574206d657373616765416464726573733a206c6f772d6c6576656c2063616c6c20776974682076616c7565206661696c6564a264697066735822122063a15f0a98e265ee4a6b7357b38695bc0a5af3fe35ef49a4d60cb435bda978ae64736f6c63430008090033",
  "linkReferences": {},
  "deployedLinkReferences": {}
}