{
  "_format": "hh-sol-artifact-1",
  "contractName": "CRAFGovernor",
  "sourceName": "contracts/CRAFGovernor.sol",
  "abi": [
    {
      "inputs": [
        {
          "internalType": "contract IVotes",
          "name": "_token",
          "type": "address"
        }
      ],
      "stateMutability": "nonpayable",
      "type": "constructor"
    },
    {
      "inputs": [],
      "name": "Empty",
      "type": "error"
    },
    {
      "anonymous": false,
      "inputs": [
        {
          "indexed": false,
          "internalType": "uint256",
          "name": "proposalId",
          "type": "uint256"
        }
      ],
      "name": "ProposalCanceled",
      "type": "event"
    },
    {
      "anonymous": false,
      "inputs": [
        {
          "indexed": false,
          "internalType": "uint256",
          "name": "proposalId",
          "type": "uint256"
        },
        {
          "indexed": false,
          "internalType": "address",
          "name": "proposer",
          "type": "address"
        },
        {
          "indexed": false,
          "internalType": "address[]",
          "name": "targets",
          "type": "address[]"
        },
        {
          "indexed": false,
          "internalType": "uint256[]",
          "name": "values",
          "type": "uint256[]"
        },
        {
          "indexed": false,
          "internalType": "string[]",
          "name": "signatures",
          "type": "string[]"
        },
        {
          "indexed": false,
          "internalType": "bytes[]",
          "name": "calldatas",
          "type": "bytes[]"
        },
        {
          "indexed": false,
          "internalType": "uint256",
          "name": "startBlock",
          "type": "uint256"
        },
        {
          "indexed": false,
          "internalType": "uint256",
          "name": "endBlock",
          "type": "uint256"
        },
        {
          "indexed": false,
          "internalType": "string",
          "name": "description",
          "type": "string"
        }
      ],
      "name": "ProposalCreated",
      "type": "event"
    },
    {
      "anonymous": false,
      "inputs": [
        {
          "indexed": false,
          "internalType": "uint256",
          "name": "proposalId",
          "type": "uint256"
        }
      ],
      "name": "ProposalExecuted",
      "type": "event"
    },
    {
      "anonymous": false,
      "inputs": [
        {
          "indexed": false,
          "internalType": "uint256",
          "name": "oldProposalThreshold",
          "type": "uint256"
        },
        {
          "indexed": false,
          "internalType": "uint256",
          "name": "newProposalThreshold",
          "type": "uint256"
        }
      ],
      "name": "ProposalThresholdSet",
      "type": "event"
    },
    {
      "anonymous": false,
      "inputs": [
        {
          "indexed": false,
          "internalType": "uint256",
          "name": "oldQuorumNumerator",
          "type": "uint256"
        },
        {
          "indexed": false,
          "internalType": "uint256",
          "name": "newQuorumNumerator",
          "type": "uint256"
        }
      ],
      "name": "QuorumNumeratorUpdated",
      "type": "event"
    },
    {
      "anonymous": false,
      "inputs": [
        {
          "indexed": true,
          "internalType": "address",
          "name": "voter",
          "type": "address"
        },
        {
          "indexed": false,
          "internalType": "uint256",
          "name": "proposalId",
          "type": "uint256"
        },
        {
          "indexed": false,
          "internalType": "uint8",
          "name": "support",
          "type": "uint8"
        },
        {
          "indexed": false,
          "internalType": "uint256",
          "name": "weight",
          "type": "uint256"
        },
        {
          "indexed": false,
          "internalType": "string",
          "name": "reason",
          "type": "string"
        }
      ],
      "name": "VoteCast",
      "type": "event"
    },
    {
      "anonymous": false,
      "inputs": [
        {
          "indexed": true,
          "internalType": "address",
          "name": "voter",
          "type": "address"
        },
        {
          "indexed": false,
          "internalType": "uint256",
          "name": "proposalId",
          "type": "uint256"
        },
        {
          "indexed": false,
          "internalType": "uint8",
          "name": "support",
          "type": "uint8"
        },
        {
          "indexed": false,
          "internalType": "uint256",
          "name": "weight",
          "type": "uint256"
        },
        {
          "indexed": false,
          "internalType": "string",
          "name": "reason",
          "type": "string"
        },
        {
          "indexed": false,
          "internalType": "bytes",
          "name": "params",
          "type": "bytes"
        }
      ],
      "name": "VoteCastWithParams",
      "type": "event"
    },
    {
      "anonymous": false,
      "inputs": [
        {
          "indexed": false,
          "internalType": "uint256",
          "name": "oldVotingDelay",
          "type": "uint256"
        },
        {
          "indexed": false,
          "internalType": "uint256",
          "name": "newVotingDelay",
          "type": "uint256"
        }
      ],
      "name": "VotingDelaySet",
      "type": "event"
    },
    {
      "anonymous": false,
      "inputs": [
        {
          "indexed": false,
          "internalType": "uint256",
          "name": "oldVotingPeriod",
          "type": "uint256"
        },
        {
          "indexed": false,
          "internalType": "uint256",
          "name": "newVotingPeriod",
          "type": "uint256"
        }
      ],
      "name": "VotingPeriodSet",
      "type": "event"
    },
    {
      "inputs": [],
      "name": "BALLOT_TYPEHASH",
      "outputs": [
        {
          "internalType": "bytes32",
          "name": "",
          "type": "bytes32"
        }
      ],
      "stateMutability": "view",
      "type": "function"
    },
    {
      "inputs": [],
      "name": "COUNTING_MODE",
      "outputs": [
        {
          "internalType": "string",
          "name": "",
          "type": "string"
        }
      ],
      "stateMutability": "pure",
      "type": "function"
    },
    {
      "inputs": [],
      "name": "EXTENDED_BALLOT_TYPEHASH",
      "outputs": [
        {
          "internalType": "bytes32",
          "name": "",
          "type": "bytes32"
        }
      ],
      "stateMutability": "view",
      "type": "function"
    },
    {
      "inputs": [
        {
          "internalType": "uint256",
          "name": "proposalId",
          "type": "uint256"
        },
        {
          "internalType": "uint8",
          "name": "support",
          "type": "uint8"
        }
      ],
      "name": "castVote",
      "outputs": [
        {
          "internalType": "uint256",
          "name": "",
          "type": "uint256"
        }
      ],
      "stateMutability": "nonpayable",
      "type": "function"
    },
    {
      "inputs": [
        {
          "internalType": "uint256",
          "name": "proposalId",
          "type": "uint256"
        },
        {
          "internalType": "uint8",
          "name": "support",
          "type": "uint8"
        },
        {
          "internalType": "uint8",
          "name": "v",
          "type": "uint8"
        },
        {
          "internalType": "bytes32",
          "name": "r",
          "type": "bytes32"
        },
        {
          "internalType": "bytes32",
          "name": "s",
          "type": "bytes32"
        }
      ],
      "name": "castVoteBySig",
      "outputs": [
        {
          "internalType": "uint256",
          "name": "",
          "type": "uint256"
        }
      ],
      "stateMutability": "nonpayable",
      "type": "function"
    },
    {
      "inputs": [
        {
          "internalType": "uint256",
          "name": "proposalId",
          "type": "uint256"
        },
        {
          "internalType": "uint8",
          "name": "support",
          "type": "uint8"
        },
        {
          "internalType": "string",
          "name": "reason",
          "type": "string"
        }
      ],
      "name": "castVoteWithReason",
      "outputs": [
        {
          "internalType": "uint256",
          "name": "",
          "type": "uint256"
        }
      ],
      "stateMutability": "nonpayable",
      "type": "function"
    },
    {
      "inputs": [
        {
          "internalType": "uint256",
          "name": "proposalId",
          "type": "uint256"
        },
        {
          "internalType": "uint8",
          "name": "support",
          "type": "uint8"
        },
        {
          "internalType": "string",
          "name": "reason",
          "type": "string"
        },
        {
          "internalType": "bytes",
          "name": "params",
          "type": "bytes"
        }
      ],
      "name": "castVoteWithReasonAndParams",
      "outputs": [
        {
          "internalType": "uint256",
          "name": "",
          "type": "uint256"
        }
      ],
      "stateMutability": "nonpayable",
      "type": "function"
    },
    {
      "inputs": [
        {
          "internalType": "uint256",
          "name": "proposalId",
          "type": "uint256"
        },
        {
          "internalType": "uint8",
          "name": "support",
          "type": "uint8"
        },
        {
          "internalType": "string",
          "name": "reason",
          "type": "string"
        },
        {
          "internalType": "bytes",
          "name": "params",
          "type": "bytes"
        },
        {
          "internalType": "uint8",
          "name": "v",
          "type": "uint8"
        },
        {
          "internalType": "bytes32",
          "name": "r",
          "type": "bytes32"
        },
        {
          "internalType": "bytes32",
          "name": "s",
          "type": "bytes32"
        }
      ],
      "name": "castVoteWithReasonAndParamsBySig",
      "outputs": [
        {
          "internalType": "uint256",
          "name": "",
          "type": "uint256"
        }
      ],
      "stateMutability": "nonpayable",
      "type": "function"
    },
    {
      "inputs": [
        {
          "internalType": "address[]",
          "name": "targets",
          "type": "address[]"
        },
        {
          "internalType": "uint256[]",
          "name": "values",
          "type": "uint256[]"
        },
        {
          "internalType": "bytes[]",
          "name": "calldatas",
          "type": "bytes[]"
        },
        {
          "internalType": "bytes32",
          "name": "descriptionHash",
          "type": "bytes32"
        }
      ],
      "name": "execute",
      "outputs": [
        {
          "internalType": "uint256",
          "name": "",
          "type": "uint256"
        }
      ],
      "stateMutability": "payable",
      "type": "function"
    },
    {
      "inputs": [
        {
          "internalType": "uint256",
          "name": "proposalId",
          "type": "uint256"
        }
      ],
      "name": "getDescription",
      "outputs": [
        {
          "internalType": "string",
          "name": "",
          "type": "string"
        }
      ],
      "stateMutability": "view",
      "type": "function"
    },
    {
      "inputs": [
        {
          "internalType": "address",
          "name": "account",
          "type": "address"
        },
        {
          "internalType": "uint256",
          "name": "blockNumber",
          "type": "uint256"
        }
      ],
      "name": "getVotes",
      "outputs": [
        {
          "internalType": "uint256",
          "name": "",
          "type": "uint256"
        }
      ],
      "stateMutability": "view",
      "type": "function"
    },
    {
      "inputs": [
        {
          "internalType": "address",
          "name": "account",
          "type": "address"
        },
        {
          "internalType": "uint256",
          "name": "blockNumber",
          "type": "uint256"
        },
        {
          "internalType": "bytes",
          "name": "params",
          "type": "bytes"
        }
      ],
      "name": "getVotesWithParams",
      "outputs": [
        {
          "internalType": "uint256",
          "name": "",
          "type": "uint256"
        }
      ],
      "stateMutability": "view",
      "type": "function"
    },
    {
      "inputs": [
        {
          "internalType": "uint256",
          "name": "proposalId",
          "type": "uint256"
        },
        {
          "internalType": "address",
          "name": "account",
          "type": "address"
        }
      ],
      "name": "hasVoted",
      "outputs": [
        {
          "internalType": "bool",
          "name": "",
          "type": "bool"
        }
      ],
      "stateMutability": "view",
      "type": "function"
    },
    {
      "inputs": [
        {
          "internalType": "address[]",
          "name": "targets",
          "type": "address[]"
        },
        {
          "internalType": "uint256[]",
          "name": "values",
          "type": "uint256[]"
        },
        {
          "internalType": "bytes[]",
          "name": "calldatas",
          "type": "bytes[]"
        },
        {
          "internalType": "bytes32",
          "name": "descriptionHash",
          "type": "bytes32"
        }
      ],
      "name": "hashProposal",
      "outputs": [
        {
          "internalType": "uint256",
          "name": "",
          "type": "uint256"
        }
      ],
      "stateMutability": "pure",
      "type": "function"
    },
    {
      "inputs": [],
      "name": "name",
      "outputs": [
        {
          "internalType": "string",
          "name": "",
          "type": "string"
        }
      ],
      "stateMutability": "view",
      "type": "function"
    },
    {
      "inputs": [],
      "name": "numberOfProposals",
      "outputs": [
        {
          "internalType": "uint256",
          "name": "",
          "type": "uint256"
        }
      ],
      "stateMutability": "view",
      "type": "function"
    },
    {
      "inputs": [
        {
          "internalType": "address",
          "name": "",
          "type": "address"
        },
        {
          "internalType": "address",
          "name": "",
          "type": "address"
        },
        {
          "internalType": "uint256[]",
          "name": "",
          "type": "uint256[]"
        },
        {
          "internalType": "uint256[]",
          "name": "",
          "type": "uint256[]"
        },
        {
          "internalType": "bytes",
          "name": "",
          "type": "bytes"
        }
      ],
      "name": "onERC1155BatchReceived",
      "outputs": [
        {
          "internalType": "bytes4",
          "name": "",
          "type": "bytes4"
        }
      ],
      "stateMutability": "nonpayable",
      "type": "function"
    },
    {
      "inputs": [
        {
          "internalType": "address",
          "name": "",
          "type": "address"
        },
        {
          "internalType": "address",
          "name": "",
          "type": "address"
        },
        {
          "internalType": "uint256",
          "name": "",
          "type": "uint256"
        },
        {
          "internalType": "uint256",
          "name": "",
          "type": "uint256"
        },
        {
          "internalType": "bytes",
          "name": "",
          "type": "bytes"
        }
      ],
      "name": "onERC1155Received",
      "outputs": [
        {
          "internalType": "bytes4",
          "name": "",
          "type": "bytes4"
        }
      ],
      "stateMutability": "nonpayable",
      "type": "function"
    },
    {
      "inputs": [
        {
          "internalType": "address",
          "name": "",
          "type": "address"
        },
        {
          "internalType": "address",
          "name": "",
          "type": "address"
        },
        {
          "internalType": "uint256",
          "name": "",
          "type": "uint256"
        },
        {
          "internalType": "bytes",
          "name": "",
          "type": "bytes"
        }
      ],
      "name": "onERC721Received",
      "outputs": [
        {
          "internalType": "bytes4",
          "name": "",
          "type": "bytes4"
        }
      ],
      "stateMutability": "nonpayable",
      "type": "function"
    },
    {
      "inputs": [
        {
          "internalType": "uint256",
          "name": "proposalId",
          "type": "uint256"
        }
      ],
      "name": "proposalDeadline",
      "outputs": [
        {
          "internalType": "uint256",
          "name": "",
          "type": "uint256"
        }
      ],
      "stateMutability": "view",
      "type": "function"
    },
    {
      "inputs": [
        {
          "internalType": "uint256",
          "name": "proposalId",
          "type": "uint256"
        }
      ],
      "name": "proposalSnapshot",
      "outputs": [
        {
          "internalType": "uint256",
          "name": "",
          "type": "uint256"
        }
      ],
      "stateMutability": "view",
      "type": "function"
    },
    {
      "inputs": [],
      "name": "proposalThreshold",
      "outputs": [
        {
          "internalType": "uint256",
          "name": "",
          "type": "uint256"
        }
      ],
      "stateMutability": "view",
      "type": "function"
    },
    {
      "inputs": [
        {
          "internalType": "uint256",
          "name": "proposalId",
          "type": "uint256"
        }
      ],
      "name": "proposalVotes",
      "outputs": [
        {
          "internalType": "uint256",
          "name": "againstVotes",
          "type": "uint256"
        },
        {
          "internalType": "uint256",
          "name": "forVotes",
          "type": "uint256"
        },
        {
          "internalType": "uint256",
          "name": "abstainVotes",
          "type": "uint256"
        }
      ],
      "stateMutability": "view",
      "type": "function"
    },
    {
      "inputs": [
        {
          "internalType": "address[]",
          "name": "targets",
          "type": "address[]"
        },
        {
          "internalType": "uint256[]",
          "name": "values",
          "type": "uint256[]"
        },
        {
          "internalType": "bytes[]",
          "name": "calldatas",
          "type": "bytes[]"
        },
        {
          "internalType": "string",
          "name": "description",
          "type": "string"
        }
      ],
      "name": "propose",
      "outputs": [
        {
          "internalType": "uint256",
          "name": "",
          "type": "uint256"
        }
      ],
      "stateMutability": "nonpayable",
      "type": "function"
    },
    {
      "inputs": [
        {
          "internalType": "uint256",
          "name": "blockNumber",
          "type": "uint256"
        }
      ],
      "name": "quorum",
      "outputs": [
        {
          "internalType": "uint256",
          "name": "",
          "type": "uint256"
        }
      ],
      "stateMutability": "view",
      "type": "function"
    },
    {
      "inputs": [],
      "name": "quorumDenominator",
      "outputs": [
        {
          "internalType": "uint256",
          "name": "",
          "type": "uint256"
        }
      ],
      "stateMutability": "view",
      "type": "function"
    },
    {
      "inputs": [
        {
          "internalType": "uint256",
          "name": "blockNumber",
          "type": "uint256"
        }
      ],
      "name": "quorumNumerator",
      "outputs": [
        {
          "internalType": "uint256",
          "name": "",
          "type": "uint256"
        }
      ],
      "stateMutability": "view",
      "type": "function"
    },
    {
      "inputs": [],
      "name": "quorumNumerator",
      "outputs": [
        {
          "internalType": "uint256",
          "name": "",
          "type": "uint256"
        }
      ],
      "stateMutability": "view",
      "type": "function"
    },
    {
      "inputs": [
        {
          "internalType": "address",
          "name": "target",
          "type": "address"
        },
        {
          "internalType": "uint256",
          "name": "value",
          "type": "uint256"
        },
        {
          "internalType": "bytes",
          "name": "data",
          "type": "bytes"
        }
      ],
      "name": "relay",
      "outputs": [],
      "stateMutability": "nonpayable",
      "type": "function"
    },
    {
      "inputs": [
        {
          "internalType": "uint256",
          "name": "newProposalThreshold",
          "type": "uint256"
        }
      ],
      "name": "setProposalThreshold",
      "outputs": [],
      "stateMutability": "nonpayable",
      "type": "function"
    },
    {
      "inputs": [
        {
          "internalType": "uint256",
          "name": "newVotingDelay",
          "type": "uint256"
        }
      ],
      "name": "setVotingDelay",
      "outputs": [],
      "stateMutability": "nonpayable",
      "type": "function"
    },
    {
      "inputs": [
        {
          "internalType": "uint256",
          "name": "newVotingPeriod",
          "type": "uint256"
        }
      ],
      "name": "setVotingPeriod",
      "outputs": [],
      "stateMutability": "nonpayable",
      "type": "function"
    },
    {
      "inputs": [
        {
          "internalType": "uint256",
          "name": "proposalId",
          "type": "uint256"
        }
      ],
      "name": "state",
      "outputs": [
        {
          "internalType": "enum IGovernor.ProposalState",
          "name": "",
          "type": "uint8"
        }
      ],
      "stateMutability": "view",
      "type": "function"
    },
    {
      "inputs": [
        {
          "internalType": "bytes4",
          "name": "interfaceId",
          "type": "bytes4"
        }
      ],
      "name": "supportsInterface",
      "outputs": [
        {
          "internalType": "bool",
          "name": "",
          "type": "bool"
        }
      ],
      "stateMutability": "view",
      "type": "function"
    },
    {
      "inputs": [],
      "name": "token",
      "outputs": [
        {
          "internalType": "contract IVotes",
          "name": "",
          "type": "address"
        }
      ],
      "stateMutability": "view",
      "type": "function"
    },
    {
      "inputs": [
        {
          "internalType": "uint256",
          "name": "newQuorumNumerator",
          "type": "uint256"
        }
      ],
      "name": "updateQuorumNumerator",
      "outputs": [],
      "stateMutability": "nonpayable",
      "type": "function"
    },
    {
      "inputs": [],
      "name": "version",
      "outputs": [
        {
          "internalType": "string",
          "name": "",
          "type": "string"
        }
      ],
      "stateMutability": "view",
      "type": "function"
    },
    {
      "inputs": [],
      "name": "votingDelay",
      "outputs": [
        {
          "internalType": "uint256",
          "name": "",
          "type": "uint256"
        }
      ],
      "stateMutability": "view",
      "type": "function"
    },
    {
      "inputs": [],
      "name": "votingPeriod",
      "outputs": [
        {
          "internalType": "uint256",
          "name": "",
          "type": "uint256"
        }
      ],
      "stateMutability": "view",
      "type": "function"
    },
    {
      "stateMutability": "payable",
      "type": "receive"
    }
  ],
  "bytecode": "0x6101606040523480156200001257600080fd5b5060405162003eaf38038062003eaf83398101604081905262000035916200077e565b600481600161c4e060006040518060400160405280600c81526020016b21a920a323b7bb32b93737b960a11b81525080620000756200016260201b60201c565b815160208084019190912082518383012060e08290526101008190524660a0818152604080517f8b73c3c69bb8fe3d512ecc4cf759cc79239f7b179b0ffacaa9a75d522b39400f81880181905281830187905260608201869052608082019490945230818401528151808203909301835260c00190528051940193909320919290916080523060c05261012052505082516200011b9250600091506020840190620006e2565b50620001299050836200017d565b6200013482620001be565b6200013f8162000265565b5050506001600160a01b0316610140526200015a81620002a6565b505062000829565b6040805180820190915260018152603160f81b602082015290565b60045460408051918252602082018390527fc565b045403dc03c2eea82b81a0465edad9e2e7fc4d97e11421c209da93d7a93910160405180910390a1600455565b60008111620002245760405162461bcd60e51b815260206004820152602760248201527f476f7665726e6f7253657474696e67733a20766f74696e6720706572696f6420604482015266746f6f206c6f7760c81b60648201526084015b60405180910390fd5b60055460408051918252602082018390527f7e3f7f0708a84de9203036abaa450dccc85ad5ff52f78c170f3edb55cf5e8828910160405180910390a1600555565b60065460408051918252602082018390527fccb45da8d5717e6c4544694297c4ba5cf151d455c9bb0ed4fc7a38411bc05461910160405180910390a1600655565b60648111156200032b5760405162461bcd60e51b815260206004820152604360248201527f476f7665726e6f72566f74657351756f72756d4672616374696f6e3a2071756f60448201527f72756d4e756d657261746f72206f7665722071756f72756d44656e6f6d696e616064820152623a37b960e91b608482015260a4016200021b565b6000620003376200041e565b90508015801590620003495750600954155b15620003c45760096000016040518060400160405280600063ffffffff16815260200162000382846200044d60201b6200108c1760201c565b6001600160e01b0390811690915282546001810184556000938452602093849020835194909301519091166401000000000263ffffffff909316929092179101555b620003df826009620004bc60201b620010f91790919060201c565b505060408051828152602081018490527f0553476bf02ef2726e8ce5ced78d63e26e602e4a2257b1f559418e24b4633997910160405180910390a15050565b6009546000901562000446576200044160096200061860201b620012241760201c565b905090565b5060085490565b60006001600160e01b03821115620004b85760405162461bcd60e51b815260206004820152602760248201527f53616665436173743a2076616c756520646f65736e27742066697420696e20326044820152663234206269747360c81b60648201526084016200021b565b5090565b8154600090819081620004cf8662000618565b90506000821180156200051357504386620004ec600185620007b0565b81548110620004ff57620004ff620007d6565b60009182526020909120015463ffffffff16145b1562000587576200052f856200044d60201b6200108c1760201c565b866200053d600185620007b0565b81548110620005505762000550620007d6565b9060005260206000200160000160046101000a8154816001600160e01b0302191690836001600160e01b031602179055506200060f565b856000016040518060400160405280620005ac436200067b60201b620012801760201c565b63ffffffff168152602001620005cd886200044d60201b6200108c1760201c565b6001600160e01b0390811690915282546001810184556000938452602093849020835194909301519091166401000000000263ffffffff909316929092179101555b95939450505050565b8054600090801562000668578262000632600183620007b0565b81548110620006455762000645620007d6565b60009182526020909120015464010000000090046001600160e01b03166200066b565b60005b6001600160e01b03169392505050565b600063ffffffff821115620004b85760405162461bcd60e51b815260206004820152602660248201527f53616665436173743a2076616c756520646f65736e27742066697420696e203360448201526532206269747360d01b60648201526084016200021b565b828054620006f090620007ec565b90600052602060002090601f0160209004810192826200071457600085556200075f565b82601f106200072f57805160ff19168380011785556200075f565b828001600101855582156200075f579182015b828111156200075f57825182559160200191906001019062000742565b50620004b89291505b80821115620004b8576000815560010162000768565b6000602082840312156200079157600080fd5b81516001600160a01b0381168114620007a957600080fd5b9392505050565b600082821015620007d157634e487b7160e01b600052601160045260246000fd5b500390565b634e487b7160e01b600052603260045260246000fd5b600181811c908216806200080157607f821691505b602082108114156200082357634e487b7160e01b600052602260045260246000fd5b50919050565b60805160a05160c05160e05161010051610120516101405161361d62000892600039600081816107e901528181611cf80152611e9001526000611fa101526000611ff001526000611fcb01526000611f2401526000611f4e01526000611f78015261361d6000f3fe6080604052600436106102345760003560e01c806370b0f6601161012e578063c28bc2fa116100ab578063eb9019d41161006f578063eb9019d41461074b578063ece40cc11461076b578063f23a6e611461078b578063f8ce560a146107b7578063fc0c546a146107d757600080fd5b8063c28bc2fa14610671578063c59057e414610691578063dd4e2ba5146106b1578063deaaa7cc146106f7578063ea0217cf1461072b57600080fd5b80639a802a6d116100f25780639a802a6d146105db578063a7713a70146105fb578063b58131b014610610578063bc197c8114610625578063c01f9e371461065157600080fd5b806370b0f660146105525780637b3c71d3146105725780637d5e81e2146105925780638d7af473146105b257806397c3d334146105c757600080fd5b80633932abb1116101bc578063544ffc9c11610180578063544ffc9c1461047357806354fd4d50146104c857806356781388146104f25780635f398a141461051257806360c4247f1461053257600080fd5b80633932abb1146103a75780633bccf4fd146103bc5780633e4f49e6146103dc57806343859632146104095780634925ec551461045357600080fd5b806306fdde031161020357806306fdde03146102da578063150b7a02146102fc5780632656227d146103405780632d63f693146103535780632fe3e2611461037357600080fd5b806301ffc9a71461024257806302a251a314610277578063034201811461029a57806306f3f9e6146102ba57600080fd5b3661023d57005b005b600080fd5b34801561024e57600080fd5b5061026261025d366004612845565b610828565b60405190151581526020015b60405180910390f35b34801561028357600080fd5b5061028c610839565b60405190815260200161026e565b3480156102a657600080fd5b5061028c6102b5366004612983565b610844565b3480156102c657600080fd5b5061023b6102d5366004612a29565b61093c565b3480156102e657600080fd5b506102ef61098c565b60405161026e9190612a9e565b34801561030857600080fd5b50610327610317366004612ac8565b630a85bd0160e11b949350505050565b6040516001600160e01b0319909116815260200161026e565b61028c61034e366004612c9e565b610a1e565b34801561035f57600080fd5b5061028c61036e366004612a29565b610b45565b34801561037f57600080fd5b5061028c7fb3b3f3b703cd84ce352197dcff232b1b5d3cfb2025ce47cf04742d0651f1af8881565b3480156103b357600080fd5b5061028c610b7c565b3480156103c857600080fd5b5061028c6103d7366004612d2d565b610b87565b3480156103e857600080fd5b506103fc6103f7366004612a29565b610bfd565b60405161026e9190612d91565b34801561041557600080fd5b50610262610424366004612db9565b60008281526007602090815260408083206001600160a01b038516845260030190915290205460ff1692915050565b34801561045f57600080fd5b506102ef61046e366004612a29565b610c08565b34801561047f57600080fd5b506104ad61048e366004612a29565b6000908152600760205260409020805460018201546002909201549092565b6040805193845260208401929092529082015260600161026e565b3480156104d457600080fd5b506040805180820190915260018152603160f81b60208201526102ef565b3480156104fe57600080fd5b5061028c61050d366004612de5565b610cb7565b34801561051e57600080fd5b5061028c61052d366004612e08565b610ce0565b34801561053e57600080fd5b5061028c61054d366004612a29565b610d2a565b34801561055e57600080fd5b5061023b61056d366004612a29565b610dc0565b34801561057e57600080fd5b5061028c61058d366004612e8b565b610e04565b34801561059e57600080fd5b5061028c6105ad366004612ee4565b610e56565b3480156105be57600080fd5b50600a5461028c565b3480156105d357600080fd5b50606461028c565b3480156105e757600080fd5b5061028c6105f6366004612f98565b610ead565b34801561060757600080fd5b5061028c610ec4565b34801561061c57600080fd5b5061028c610ee0565b34801561063157600080fd5b50610327610640366004612fee565b63bc197c8160e01b95945050505050565b34801561065d57600080fd5b5061028c61066c366004612a29565b610eeb565b34801561067d57600080fd5b5061023b61068c36600461307d565b610f1a565b34801561069d57600080fd5b5061028c6106ac366004612c9e565b610f9e565b3480156106bd57600080fd5b506040805180820190915260208082527f737570706f72743d627261766f2671756f72756d3d666f722c6162737461696e908201526102ef565b34801561070357600080fd5b5061028c7f150214d74d59b7d1e90c73fc22ef3d991dd0a76b046543d4d80ab92d2a50328f81565b34801561073757600080fd5b5061023b610746366004612a29565b610fd8565b34801561075757600080fd5b5061028c6107663660046130be565b61101c565b34801561077757600080fd5b5061023b610786366004612a29565b61103d565b34801561079757600080fd5b506103276107a63660046130e8565b63f23a6e6160e01b95945050505050565b3480156107c357600080fd5b5061028c6107d2366004612a29565b611081565b3480156107e357600080fd5b5061080b7f000000000000000000000000000000000000000000000000000000000000000081565b6040516001600160a01b03909116815260200161026e565b905090565b6000610833826112e5565b92915050565b600061082360055490565b6000806108e86108e07fb3b3f3b703cd84ce352197dcff232b1b5d3cfb2025ce47cf04742d0651f1af888c8c8c8c60405161088092919061314c565b60405180910390208b805190602001206040516020016108c5959493929190948552602085019390935260ff9190911660408401526060830152608082015260a00190565b60405160208183030381529060405280519060200120611350565b86868661139e565b905061092e8a828b8b8b8080601f0160208091040260200160405190810160405280939291908181526020018383808284376000920191909152508d92506113bc915050565b9a9950505050505050505050565b3330146109645760405162461bcd60e51b815260040161095b9061315c565b60405180910390fd5b610980565b80610974600261151e565b1461097e57610969565b505b6109898161159d565b50565b60606000805461099b90613193565b80601f01602080910402602001604051908101604052809291908181526020018280546109c790613193565b8015610a145780601f106109e957610100808354040283529160200191610a14565b820191906000526020600020905b8154815290600101906020018083116109f757829003601f168201915b5050505050905090565b600080610a2d86868686610f9e565b90506000610a3a82610bfd565b90506004816007811115610a5057610a50612d7b565b1480610a6d57506005816007811115610a6b57610a6b612d7b565b145b610ac35760405162461bcd60e51b815260206004820152602160248201527f476f7665726e6f723a2070726f706f73616c206e6f74207375636365737366756044820152601b60fa1b606482015260840161095b565b600082815260016020818152604092839020600201805460ff191690921790915590518381527f712ae1383f79ac853f8d882153778e0260ef8f03b504e2866e0593e04d2b291f910160405180910390a1610b2182888888886116ea565b610b2e8288888888611777565b610b3b82888888886116ea565b5095945050505050565b60008181526001602090815260408083208151928301909152546001600160401b0316908190525b6001600160401b031692915050565b600061082360045490565b604080517f150214d74d59b7d1e90c73fc22ef3d991dd0a76b046543d4d80ab92d2a50328f602082015290810186905260ff851660608201526000908190610bd5906108e0906080016108c5565b9050610bf287828860405180602001604052806000815250611784565b979650505050505050565b6000610833826117b0565b6060600a8281548110610c1d57610c1d6131ce565b906000526020600020018054610c3290613193565b80601f0160208091040260200160405190810160405280929190818152602001828054610c5e90613193565b8015610cab5780601f10610c8057610100808354040283529160200191610cab565b820191906000526020600020905b815481529060010190602001808311610c8e57829003601f168201915b50505050509050919050565b600080339050610cd884828560405180602001604052806000815250611784565b949350505050565b600080339050610bf287828888888080601f0160208091040260200160405190810160405280939291908181526020018383808284376000920191909152508a92506113bc915050565b60095460009080610d3f575050600854919050565b60006009610d4e6001846131fa565b81548110610d5e57610d5e6131ce565b60009182526020918290206040805180820190915291015463ffffffff81168083526401000000009091046001600160e01b03169282019290925291508410610db557602001516001600160e01b03169392505050565b610cd86009856118bc565b333014610ddf5760405162461bcd60e51b815260040161095b9061315c565b610dfb565b80610def600261151e565b14610df957610de4565b505b610989816119cb565b600080339050610e4c86828787878080601f01602080910402602001604051908101604052809392919081815260200183838082843760009201919091525061178492505050565b9695505050505050565b600080610e6586868686611a0c565b600a80546001810182556000919091528451919250610b3b917fc65a7bb8d6351c1cf70c95a316cc6a92839c986682d98bc35f958f4883f9d2a89091019060208601906127b5565b6000610eba848484611ccf565b90505b9392505050565b60095460009015610ed9576108236009611224565b5060085490565b600061082360065490565b60008181526001602081815260408084208151928301909152909101546001600160401b031690819052610b6d565b333014610f395760405162461bcd60e51b815260040161095b9061315c565b610f55565b80610f49600261151e565b14610f5357610f3e565b505b610f978483838080601f016020809104026020016040519081016040528093929190818152602001838380828437600092019190915250889250611d65915050565b5050505050565b600084848484604051602001610fb794939291906132da565b60408051601f19818403018152919052805160209091012095945050505050565b333014610ff75760405162461bcd60e51b815260040161095b9061315c565b611013565b80611007600261151e565b1461101157610ffc565b505b61098981611d8b565b6000610ebd838361103860408051602081019091526000815290565b611ccf565b33301461105c5760405162461bcd60e51b815260040161095b9061315c565b611078565b8061106c600261151e565b1461107657611061565b505b61098981611e2c565b600061083382611e6d565b60006001600160e01b038211156110f55760405162461bcd60e51b815260206004820152602760248201527f53616665436173743a2076616c756520646f65736e27742066697420696e20326044820152663234206269747360c81b606482015260840161095b565b5090565b815460009081908161110a86611224565b9050600082118015611148575043866111246001856131fa565b81548110611134576111346131ce565b60009182526020909120015463ffffffff16145b156111a8576111568561108c565b866111626001856131fa565b81548110611172576111726131ce565b9060005260206000200160000160046101000a8154816001600160e01b0302191690836001600160e01b03160217905550611216565b8560000160405180604001604052806111c043611280565b63ffffffff1681526020016111d48861108c565b6001600160e01b0390811690915282546001810184556000938452602093849020835194909301519091166401000000000263ffffffff909316929092179101555b9250839150505b9250929050565b8054600090801561126d578261123b6001836131fa565b8154811061124b5761124b6131ce565b60009182526020909120015464010000000090046001600160e01b0316611270565b60005b6001600160e01b03169392505050565b600063ffffffff8211156110f55760405162461bcd60e51b815260206004820152602660248201527f53616665436173743a2076616c756520646f65736e27742066697420696e203360448201526532206269747360d01b606482015260840161095b565b60006001600160e01b0319821663bf26d89760e01b148061131657506001600160e01b031982166379dd796f60e01b145b8061133157506001600160e01b03198216630271189760e51b145b8061083357506301ffc9a760e01b6001600160e01b0319831614610833565b600061083361135d611f17565b8360405161190160f01b6020820152602281018390526042810182905260009060620160405160208183030381529060405280519060200120905092915050565b60008060006113af8787878761203e565b91509150610b3b8161212b565b60008581526001602081905260408220906113d688610bfd565b60078111156113e7576113e7612d7b565b146114405760405162461bcd60e51b815260206004820152602360248201527f476f7665726e6f723a20766f7465206e6f742063757272656e746c792061637460448201526269766560e81b606482015260840161095b565b604080516020810190915281546001600160401b03169081905260009061146990889086611ccf565b905061147888888884886122e6565b83516114ca57866001600160a01b03167fb8e138887d0aa13bab447e82de9d5c1777041ecd21ca36ba824ff1e6c07ddda4898884896040516114bd9493929190613325565b60405180910390a2610bf2565b866001600160a01b03167fe2babfbac5889a709b63bb7f598b324e08bc5a4fb9ec647fb3cbc9ec07eb8712898884898960405161150b95949392919061334d565b60405180910390a2979650505050505050565b60006115398254600f81810b600160801b909204900b131590565b1561155757604051631ed9509560e11b815260040160405180910390fd5b508054600f0b6000818152600180840160205260408220805492905583546fffffffffffffffffffffffffffffffff191692016001600160801b03169190911790915590565b60648111156116205760405162461bcd60e51b815260206004820152604360248201527f476f7665726e6f72566f74657351756f72756d4672616374696f6e3a2071756f60448201527f72756d4e756d657261746f72206f7665722071756f72756d44656e6f6d696e616064820152623a37b960e91b608482015260a40161095b565b600061162a610ec4565b9050801580159061163b5750600954155b156116a05760408051808201909152600081526009906020810161165e8461108c565b6001600160e01b0390811690915282546001810184556000938452602093849020835194909301519091166401000000000263ffffffff909316929092179101555b6116ab6009836110f9565b505060408051828152602081018490527f0553476bf02ef2726e8ce5ced78d63e26e602e4a2257b1f559418e24b4633997910160405180910390a15050565b610f97565b845181101561176f57306001600160a01b0316858281518110611714576117146131ce565b60200260200101516001600160a01b0316141561175f5761175f838281518110611740576117406131ce565b602002602001015180519060200120600261246590919063ffffffff16565b61176881613393565b90506116ef565b505050505050565b610f9785858585856124a1565b60006117a7858585856117a260408051602081019091526000815290565b6113bc565b95945050505050565b6000818152600160205260408120600281015460ff16156117d45750600792915050565b6002810154610100900460ff16156117ef5750600292915050565b60006117fa84610b45565b9050806118495760405162461bcd60e51b815260206004820152601d60248201527f476f7665726e6f723a20756e6b6e6f776e2070726f706f73616c206964000000604482015260640161095b565b43811061185a575060009392505050565b600061186585610eeb565b905043811061187957506001949350505050565b611882856125a0565b80156118a1575060008581526007602052604090208054600190910154115b156118b157506004949350505050565b506003949350505050565b600043821061190d5760405162461bcd60e51b815260206004820181905260248201527f436865636b706f696e74733a20626c6f636b206e6f7420796574206d696e6564604482015260640161095b565b825460005b8181101561197257600061192682846125d7565b90508486600001828154811061193e5761193e6131ce565b60009182526020909120015463ffffffff16111561195e5780925061196c565b6119698160016133ae565b91505b50611912565b81156119b657846119846001846131fa565b81548110611994576119946131ce565b60009182526020909120015464010000000090046001600160e01b03166119b9565b60005b6001600160e01b031695945050505050565b60045460408051918252602082018390527fc565b045403dc03c2eea82b81a0465edad9e2e7fc4d97e11421c209da93d7a93910160405180910390a1600455565b6000611a16610ee0565b611a25336107666001436131fa565b1015611a8d5760405162461bcd60e51b815260206004820152603160248201527f476f7665726e6f723a2070726f706f73657220766f7465732062656c6f7720706044820152701c9bdc1bdcd85b081d1a1c995cda1bdb19607a1b606482015260840161095b565b6000611aa28686868680519060200120610f9e565b90508451865114611ac55760405162461bcd60e51b815260040161095b906133c6565b8351865114611ae65760405162461bcd60e51b815260040161095b906133c6565b6000865111611b375760405162461bcd60e51b815260206004820152601860248201527f476f7665726e6f723a20656d7074792070726f706f73616c0000000000000000604482015260640161095b565b600081815260016020908152604091829020825191820190925281546001600160401b03169081905215611bb75760405162461bcd60e51b815260206004820152602160248201527f476f7665726e6f723a2070726f706f73616c20616c72656164792065786973746044820152607360f81b606482015260840161095b565b6000611bc9611bc4610b7c565b6125f2565b611bd2436125f2565b611bdc9190613407565b90506000611beb611bc4610839565b611bf59083613407565b835467ffffffffffffffff19166001600160401b038416178455905060018301805467ffffffffffffffff19166001600160401b0383161790557f7d84a6263ae0d98d3329bd7b46bb4e8d6f98cd35a7adb45c274c8b7fd5ebd5e084338b8b8d516001600160401b03811115611c6d57611c6d6128c6565b604051908082528060200260200182016040528015611ca057816020015b6060815260200190600190039081611c8b5790505b508c88888e604051611cba99989796959493929190613432565b60405180910390a15091979650505050505050565b604051630748d63560e31b81526001600160a01b038481166004830152602482018490526000917f000000000000000000000000000000000000000000000000000000000000000090911690633a46b1a890604401602060405180830381865afa158015611d41573d6000803e3d6000fd5b505050506040513d601f19601f82011682018060405250810190610eba9190613521565b6060610eba8484846040518060600160405280602981526020016135bf6029913961265a565b60008111611deb5760405162461bcd60e51b815260206004820152602760248201527f476f7665726e6f7253657474696e67733a20766f74696e6720706572696f6420604482015266746f6f206c6f7760c81b606482015260840161095b565b60055460408051918252602082018390527f7e3f7f0708a84de9203036abaa450dccc85ad5ff52f78c170f3edb55cf5e8828910160405180910390a1600555565b60065460408051918252602082018390527fccb45da8d5717e6c4544694297c4ba5cf151d455c9bb0ed4fc7a38411bc05461910160405180910390a1600655565b60006064611e7a83610d2a565b604051632394e7a360e21b8152600481018590527f00000000000000000000000000000000000000000000000000000000000000006001600160a01b031690638e539e8c90602401602060405180830381865afa158015611edf573d6000803e3d6000fd5b505050506040513d601f19601f82011682018060405250810190611f039190613521565b611f0d919061353a565b6108339190613559565b6000306001600160a01b037f000000000000000000000000000000000000000000000000000000000000000016148015611f7057507f000000000000000000000000000000000000000000000000000000000000000046145b15611f9a57507f000000000000000000000000000000000000000000000000000000000000000090565b50604080517f00000000000000000000000000000000000000000000000000000000000000006020808301919091527f0000000000000000000000000000000000000000000000000000000000000000828401527f000000000000000000000000000000000000000000000000000000000000000060608301524660808301523060a0808401919091528351808403909101815260c0909201909252805191012090565b6000807f7fffffffffffffffffffffffffffffff5d576e7357a4501ddfe92f46681b20a08311156120755750600090506003612122565b8460ff16601b1415801561208d57508460ff16601c14155b1561209e5750600090506004612122565b6040805160008082526020820180845289905260ff881692820192909252606081018690526080810185905260019060a0016020604051602081039080840390855afa1580156120f2573d6000803e3d6000fd5b5050604051601f1901519150506001600160a01b03811661211b57600060019250925050612122565b9150600090505b94509492505050565b600081600481111561213f5761213f612d7b565b14156121485750565b600181600481111561215c5761215c612d7b565b14156121aa5760405162461bcd60e51b815260206004820152601860248201527f45434453413a20696e76616c6964207369676e61747572650000000000000000604482015260640161095b565b60028160048111156121be576121be612d7b565b141561220c5760405162461bcd60e51b815260206004820152601f60248201527f45434453413a20696e76616c6964207369676e6174757265206c656e67746800604482015260640161095b565b600381600481111561222057612220612d7b565b14156122795760405162461bcd60e51b815260206004820152602260248201527f45434453413a20696e76616c6964207369676e6174757265202773272076616c604482015261756560f01b606482015260840161095b565b600481600481111561228d5761228d612d7b565b14156109895760405162461bcd60e51b815260206004820152602260248201527f45434453413a20696e76616c6964207369676e6174757265202776272076616c604482015261756560f01b606482015260840161095b565b60008581526007602090815260408083206001600160a01b0388168452600381019092529091205460ff161561236e5760405162461bcd60e51b815260206004820152602760248201527f476f7665726e6f72566f74696e6753696d706c653a20766f746520616c726561604482015266191e4818d85cdd60ca1b606482015260840161095b565b6001600160a01b03851660009081526003820160205260408120805460ff1916600117905560ff168460ff1614156123bf57828160000160008282546123b491906133ae565b9091555061176f9050565b60ff8416600114156123df57828160010160008282546123b491906133ae565b60ff8416600214156123ff57828160020160008282546123b491906133ae565b60405162461bcd60e51b815260206004820152603560248201527f476f7665726e6f72566f74696e6753696d706c653a20696e76616c69642076616044820152746c756520666f7220656e756d20566f74655479706560581b606482015260840161095b565b8154600160801b90819004600f0b6000818152600180860160205260409091209390935583546001600160801b03908116939091011602179055565b600060405180606001604052806027815260200161359860279139905060005b8551811015612597576000808783815181106124df576124df6131ce565b60200260200101516001600160a01b0316878481518110612502576125026131ce565b602002602001015187858151811061251c5761251c6131ce565b6020026020010151604051612531919061357b565b60006040518083038185875af1925050503d806000811461256e576040519150601f19603f3d011682016040523d82523d6000602084013e612573565b606091505b509150915061258382828661277c565b5050508061259090613393565b90506124c1565b50505050505050565b6000818152600760205260408120600281015460018201546125c291906133ae565b6125ce6107d285610b45565b11159392505050565b60006125e66002848418613559565b610ebd908484166133ae565b60006001600160401b038211156110f55760405162461bcd60e51b815260206004820152602660248201527f53616665436173743a2076616c756520646f65736e27742066697420696e203660448201526534206269747360d01b606482015260840161095b565b6060824710156126bb5760405162461bcd60e51b815260206004820152602660248201527f416464726573733a20696e73756666696369656e742062616c616e636520666f6044820152651c8818d85b1b60d21b606482015260840161095b565b6001600160a01b0385163b6127125760405162461bcd60e51b815260206004820152601d60248201527f416464726573733a2063616c6c20746f206e6f6e2d636f6e7472616374000000604482015260640161095b565b600080866001600160a01b0316858760405161272e919061357b565b60006040518083038185875af1925050503d806000811461276b576040519150601f19603f3d011682016040523d82523d6000602084013e612770565b606091505b5091509150610bf28282865b6060831561278b575081610ebd565b82511561279b5782518084602001fd5b8160405162461bcd60e51b815260040161095b9190612a9e565b8280546127c190613193565b90600052602060002090601f0160209004810192826127e35760008555612829565b82601f106127fc57805160ff1916838001178555612829565b82800160010185558215612829579182015b8281111561282957825182559160200191906001019061280e565b506110f59291505b808211156110f55760008155600101612831565b60006020828403121561285757600080fd5b81356001600160e01b031981168114610ebd57600080fd5b803560ff8116811461288057600080fd5b919050565b60008083601f84011261289757600080fd5b5081356001600160401b038111156128ae57600080fd5b60208301915083602082850101111561121d57600080fd5b634e487b7160e01b600052604160045260246000fd5b604051601f8201601f191681016001600160401b0381118282101715612904576129046128c6565b604052919050565b60006001600160401b03831115612925576129256128c6565b612938601f8401601f19166020016128dc565b905082815283838301111561294c57600080fd5b828260208301376000602084830101529392505050565b600082601f83011261297457600080fd5b610ebd8383356020850161290c565b60008060008060008060008060e0898b03121561299f57600080fd5b883597506129af60208a0161286f565b965060408901356001600160401b03808211156129cb57600080fd5b6129d78c838d01612885565b909850965060608b01359150808211156129f057600080fd5b506129fd8b828c01612963565b945050612a0c60808a0161286f565b925060a0890135915060c089013590509295985092959890939650565b600060208284031215612a3b57600080fd5b5035919050565b60005b83811015612a5d578181015183820152602001612a45565b83811115612a6c576000848401525b50505050565b60008151808452612a8a816020860160208601612a42565b601f01601f19169290920160200192915050565b602081526000610ebd6020830184612a72565b80356001600160a01b038116811461288057600080fd5b60008060008060808587031215612ade57600080fd5b612ae785612ab1565b9350612af560208601612ab1565b92506040850135915060608501356001600160401b03811115612b1757600080fd5b612b2387828801612963565b91505092959194509250565b60006001600160401b03821115612b4857612b486128c6565b5060051b60200190565b600082601f830112612b6357600080fd5b81356020612b78612b7383612b2f565b6128dc565b82815260059290921b84018101918181019086841115612b9757600080fd5b8286015b84811015612bb957612bac81612ab1565b8352918301918301612b9b565b509695505050505050565b600082601f830112612bd557600080fd5b81356020612be5612b7383612b2f565b82815260059290921b84018101918181019086841115612c0457600080fd5b8286015b84811015612bb95780358352918301918301612c08565b600082601f830112612c3057600080fd5b81356020612c40612b7383612b2f565b82815260059290921b84018101918181019086841115612c5f57600080fd5b8286015b84811015612bb95780356001600160401b03811115612c825760008081fd5b612c908986838b0101612963565b845250918301918301612c63565b60008060008060808587031215612cb457600080fd5b84356001600160401b0380821115612ccb57600080fd5b612cd788838901612b52565b95506020870135915080821115612ced57600080fd5b612cf988838901612bc4565b94506040870135915080821115612d0f57600080fd5b50612d1c87828801612c1f565b949793965093946060013593505050565b600080600080600060a08688031215612d4557600080fd5b85359450612d556020870161286f565b9350612d636040870161286f565b94979396509394606081013594506080013592915050565b634e487b7160e01b600052602160045260246000fd5b6020810160088310612db357634e487b7160e01b600052602160045260246000fd5b91905290565b60008060408385031215612dcc57600080fd5b82359150612ddc60208401612ab1565b90509250929050565b60008060408385031215612df857600080fd5b82359150612ddc6020840161286f565b600080600080600060808688031215612e2057600080fd5b85359450612e306020870161286f565b935060408601356001600160401b0380821115612e4c57600080fd5b612e5889838a01612885565b90955093506060880135915080821115612e7157600080fd5b50612e7e88828901612963565b9150509295509295909350565b60008060008060608587031215612ea157600080fd5b84359350612eb16020860161286f565b925060408501356001600160401b03811115612ecc57600080fd5b612ed887828801612885565b95989497509550505050565b60008060008060808587031215612efa57600080fd5b84356001600160401b0380821115612f1157600080fd5b612f1d88838901612b52565b95506020870135915080821115612f3357600080fd5b612f3f88838901612bc4565b94506040870135915080821115612f5557600080fd5b612f6188838901612c1f565b93506060870135915080821115612f7757600080fd5b508501601f81018713612f8957600080fd5b612b238782356020840161290c565b600080600060608486031215612fad57600080fd5b612fb684612ab1565b92506020840135915060408401356001600160401b03811115612fd857600080fd5b612fe486828701612963565b9150509250925092565b600080600080600060a0868803121561300657600080fd5b61300f86612ab1565b945061301d60208701612ab1565b935060408601356001600160401b038082111561303957600080fd5b61304589838a01612bc4565b9450606088013591508082111561305b57600080fd5b61306789838a01612bc4565b93506080880135915080821115612e7157600080fd5b6000806000806060858703121561309357600080fd5b61309c85612ab1565b93506020850135925060408501356001600160401b03811115612ecc57600080fd5b600080604083850312156130d157600080fd5b6130da83612ab1565b946020939093013593505050565b600080600080600060a0868803121561310057600080fd5b61310986612ab1565b945061311760208701612ab1565b9350604086013592506060860135915060808601356001600160401b0381111561314057600080fd5b612e7e88828901612963565b8183823760009101908152919050565b60208082526018908201527f476f7665726e6f723a206f6e6c79476f7665726e616e63650000000000000000604082015260600190565b600181811c908216806131a757607f821691505b602082108114156131c857634e487b7160e01b600052602260045260246000fd5b50919050565b634e487b7160e01b600052603260045260246000fd5b634e487b7160e01b600052601160045260246000fd5b60008282101561320c5761320c6131e4565b500390565b600081518084526020808501945080840160005b8381101561324a5781516001600160a01b031687529582019590820190600101613225565b509495945050505050565b600081518084526020808501945080840160005b8381101561324a57815187529582019590820190600101613269565b600081518084526020808501808196508360051b8101915082860160005b858110156132cd5782840389526132bb848351612a72565b988501989350908401906001016132a3565b5091979650505050505050565b6080815260006132ed6080830187613211565b82810360208401526132ff8187613255565b905082810360408401526133138186613285565b91505082606083015295945050505050565b84815260ff84166020820152826040820152608060608201526000610e4c6080830184612a72565b85815260ff8516602082015283604082015260a06060820152600061337560a0830185612a72565b82810360808401526133878185612a72565b98975050505050505050565b60006000198214156133a7576133a76131e4565b5060010190565b600082198211156133c1576133c16131e4565b500190565b60208082526021908201527f476f7665726e6f723a20696e76616c69642070726f706f73616c206c656e67746040820152600d60fb1b606082015260800190565b60006001600160401b03808316818516808303821115613429576134296131e4565b01949350505050565b60006101208b8352602060018060a01b038c168185015281604085015261345b8285018c613211565b9150838203606085015261346f828b613255565b915083820360808501528189518084528284019150828160051b850101838c0160005b838110156134c057601f198784030185526134ae838351612a72565b94860194925090850190600101613492565b505086810360a08801526134d4818c613285565b9450505050506134ef60c08401876001600160401b03169052565b6001600160401b03851660e08401528281036101008401526135118185612a72565b9c9b505050505050505050505050565b60006020828403121561353357600080fd5b5051919050565b6000816000190483118215151615613554576135546131e4565b500290565b60008261357657634e487b7160e01b600052601260045260246000fd5b500490565b6000825161358d818460208701612a42565b919091019291505056fe476f7665726e6f723a2063616c6c20726576657274656420776974686f7574206d657373616765416464726573733a206c6f772d6c6576656c2063616c6c20776974682076616c7565206661696c6564a26469706673582212207193819f7a310d0a9acd120c42e37cbf7267f24c9ab9f10fc61805e8ed0ce6cc64736f6c634300080c0033",
  "linkReferences": {},
  "deployedLinkReferences": {}
}