{
  "_format": "hh-sol-artifact-1",
  "contractName": "CRAFTreasury",
  "sourceName": "contracts/CRAFTreasury.sol",
  "abi": [
    {
      "inputs": [
        {
          "internalType": "address",
          "name": "governanceAddress",
          "type": "address"
        },
        {
          "internalType": "string",
          "name": "name",
          "type": "string"
        },
        {
          "internalType": "string",
          "name": "symbol",
          "type": "string"
        }
      ],
      "stateMutability": "nonpayable",
      "type": "constructor"
    },
    {
      "anonymous": false,
      "inputs": [
        {
          "indexed": true,
          "internalType": "address",
          "name": "owner",
          "type": "address"
        },
        {
          "indexed": true,
          "internalType": "address",
          "name": "approved",
          "type": "address"
        },
        {
          "indexed": true,
          "internalType": "uint256",
          "name": "tokenId",
          "type": "uint256"
        }
      ],
      "name": "Approval",
      "type": "event"
    },
    {
      "anonymous": false,
      "inputs": [
        {
          "indexed": true,
          "internalType": "address",
          "name": "owner",
          "type": "address"
        },
        {
          "indexed": true,
          "internalType": "address",
          "name": "operator",
          "type": "address"
        },
        {
          "indexed": false,
          "internalType": "bool",
          "name": "approved",
          "type": "bool"
        }
      ],
      "name": "ApprovalForAll",
      "type": "event"
    },
    {
      "anonymous": false,
      "inputs": [
        {
          "indexed": true,
          "internalType": "address",
          "name": "token",
          "type": "address"
        },
        {
          "indexed": true,
          "internalType": "address",
          "name": "from",
          "type": "address"
        },
        {
          "indexed": false,
          "internalType": "uint256",
          "name": "amount",
          "type": "uint256"
        },
        {
          "indexed": false,
          "internalType": "uint256",
          "name": "balance",
          "type": "uint256"
        }
      ],
      "name": "FundTreasury",
      "type": "event"
    },
    {
      "anonymous": false,
      "inputs": [
        {
          "indexed": true,
          "internalType": "address",
          "name": "previousOwner",
          "type": "address"
        },
        {
          "indexed": true,
          "internalType": "address",
          "name": "newOwner",
          "type": "address"
        }
      ],
      "name": "OwnershipTransferred",
      "type": "event"
    },
    {
      "anonymous": false,
      "inputs": [
        {
          "indexed": true,
          "internalType": "address",
          "name": "from",
          "type": "address"
        },
        {
          "indexed": true,
          "internalType": "address",
          "name": "to",
          "type": "address"
        },
        {
          "indexed": true,
          "internalType": "uint256",
          "name": "tokenId",
          "type": "uint256"
        }
      ],
      "name": "Transfer",
      "type": "event"
    },
    {
      "inputs": [
        {
          "internalType": "address",
          "name": "to",
          "type": "address"
        },
        {
          "internalType": "uint256",
          "name": "tokenId",
          "type": "uint256"
        }
      ],
      "name": "approve",
      "outputs": [],
      "stateMutability": "nonpayable",
      "type": "function"
    },
    {
      "inputs": [
        {
          "internalType": "address",
          "name": "owner",
          "type": "address"
        }
      ],
      "name": "balanceOf",
      "outputs": [
        {
          "internalType": "uint256",
          "name": "",
          "type": "uint256"
        }
      ],
      "stateMutability": "view",
      "type": "function"
    },
    {
      "inputs": [
        {
          "internalType": "address",
          "name": "token",
          "type": "address"
        },
        {
          "internalType": "uint256",
          "name": "amount",
          "type": "uint256"
        }
      ],
      "name": "fundTreasury",
      "outputs": [
        {
          "internalType": "bool",
          "name": "",
          "type": "bool"
        }
      ],
      "stateMutability": "nonpayable",
      "type": "function"
    },
    {
      "inputs": [
        {
          "internalType": "uint256",
          "name": "tokenId",
          "type": "uint256"
        }
      ],
      "name": "getApproved",
      "outputs": [
        {
          "internalType": "address",
          "name": "",
          "type": "address"
        }
      ],
      "stateMutability": "view",
      "type": "function"
    },
    {
      "inputs": [
        {
          "internalType": "address",
          "name": "owner",
          "type": "address"
        },
        {
          "internalType": "address",
          "name": "operator",
          "type": "address"
        }
      ],
      "name": "isApprovedForAll",
      "outputs": [
        {
          "internalType": "bool",
          "name": "",
          "type": "bool"
        }
      ],
      "stateMutability": "view",
      "type": "function"
    },
    {
      "inputs": [],
      "name": "name",
      "outputs": [
        {
          "internalType": "string",
          "name": "",
          "type": "string"
        }
      ],
      "stateMutability": "view",
      "type": "function"
    },
    {
      "inputs": [],
      "name": "owner",
      "outputs": [
        {
          "internalType": "address",
          "name": "",
          "type": "address"
        }
      ],
      "stateMutability": "view",
      "type": "function"
    },
    {
      "inputs": [
        {
          "internalType": "uint256",
          "name": "tokenId",
          "type": "uint256"
        }
      ],
      "name": "ownerOf",
      "outputs": [
        {
          "internalType": "address",
          "name": "",
          "type": "address"
        }
      ],
      "stateMutability": "view",
      "type": "function"
    },
    {
      "inputs": [],
      "name": "renounceOwnership",
      "outputs": [],
      "stateMutability": "nonpayable",
      "type": "function"
    },
    {
      "inputs": [
        {
          "internalType": "address",
          "name": "from",
          "type": "address"
        },
        {
          "internalType": "address",
          "name": "to",
          "type": "address"
        },
        {
          "internalType": "uint256",
          "name": "tokenId",
          "type": "uint256"
        }
      ],
      "name": "safeTransferFrom",
      "outputs": [],
      "stateMutability": "nonpayable",
      "type": "function"
    },
    {
      "inputs": [
        {
          "internalType": "address",
          "name": "from",
          "type": "address"
        },
        {
          "internalType": "address",
          "name": "to",
          "type": "address"
        },
        {
          "internalType": "uint256",
          "name": "tokenId",
          "type": "uint256"
        },
        {
          "internalType": "bytes",
          "name": "data",
          "type": "bytes"
        }
      ],
      "name": "safeTransferFrom",
      "outputs": [],
      "stateMutability": "nonpayable",
      "type": "function"
    },
    {
      "inputs": [
        {
          "internalType": "address",
          "name": "operator",
          "type": "address"
        },
        {
          "internalType": "bool",
          "name": "approved",
          "type": "bool"
        }
      ],
      "name": "setApprovalForAll",
      "outputs": [],
      "stateMutability": "nonpayable",
      "type": "function"
    },
    {
      "inputs": [
        {
          "internalType": "bytes4",
          "name": "interfaceId",
          "type": "bytes4"
        }
      ],
      "name": "supportsInterface",
      "outputs": [
        {
          "internalType": "bool",
          "name": "",
          "type": "bool"
        }
      ],
      "stateMutability": "view",
      "type": "function"
    },
    {
      "inputs": [],
      "name": "symbol",
      "outputs": [
        {
          "internalType": "string",
          "name": "",
          "type": "string"
        }
      ],
      "stateMutability": "view",
      "type": "function"
    },
    {
      "inputs": [
        {
          "internalType": "uint256",
          "name": "tokenId",
          "type": "uint256"
        }
      ],
      "name": "tokenURI",
      "outputs": [
        {
          "internalType": "string",
          "name": "",
          "type": "string"
        }
      ],
      "stateMutability": "view",
      "type": "function"
    },
    {
      "inputs": [
        {
          "internalType": "address",
          "name": "from",
          "type": "address"
        },
        {
          "internalType": "address",
          "name": "to",
          "type": "address"
        },
        {
          "internalType": "uint256",
          "name": "tokenId",
          "type": "uint256"
        }
      ],
      "name": "transferFrom",
      "outputs": [],
      "stateMutability": "nonpayable",
      "type": "function"
    },
    {
      "inputs": [
        {
          "internalType": "address",
          "name": "newOwner",
          "type": "address"
        }
      ],
      "name": "transferOwnership",
      "outputs": [],
      "stateMutability": "nonpayable",
      "type": "function"
    },
    {
      "inputs": [
        {
          "internalType": "address",
          "name": "token",
          "type": "address"
        },
        {
          "internalType": "address",
          "name": "receiver",
          "type": "address"
        },
        {
          "internalType": "uint256",
          "name": "amount",
          "type": "uint256"
        }
      ],
      "name": "transferToken",
      "outputs": [
        {
          "internalType": "bool",
          "name": "transferred",
          "type": "bool"
        }
      ],
      "stateMutability": "nonpayable",
      "type": "function"
    },
    {
      "inputs": [
        {
          "internalType": "address",
          "name": "token",
          "type": "address"
        }
      ],
      "name": "treasuryBalanceOf",
      "outputs": [
        {
          "internalType": "uint256",
          "name": "",
          "type": "uint256"
        }
      ],
      "stateMutability": "view",
      "type": "function"
    },
    {
      "stateMutability": "payable",
      "type": "receive"
    }
  ],
  "bytecode": "0x60806040523480156200001157600080fd5b5060405162001a4d38038062001a4d833981016040819052620000349162000257565b8151829082906200004d906000906020850190620000e4565b50805162000063906001906020840190620000e4565b505050620000806200007a6200008e60201b60201c565b62000092565b50506000600755506200031e565b3390565b600680546001600160a01b038381166001600160a01b0319831681179093556040519116919082907f8be0079c531659141344cd1fd0a4f28419497f9722a3daafe3b4186f6b6457e090600090a35050565b828054620000f290620002e1565b90600052602060002090601f01602090048101928262000116576000855562000161565b82601f106200013157805160ff191683800117855562000161565b8280016001018555821562000161579182015b828111156200016157825182559160200191906001019062000144565b506200016f92915062000173565b5090565b5b808211156200016f576000815560010162000174565b634e487b7160e01b600052604160045260246000fd5b600082601f830112620001b257600080fd5b81516001600160401b0380821115620001cf57620001cf6200018a565b604051601f8301601f19908116603f01168101908282118183101715620001fa57620001fa6200018a565b816040528381526020925086838588010111156200021757600080fd5b600091505b838210156200023b57858201830151818301840152908201906200021c565b838211156200024d5760008385830101525b9695505050505050565b6000806000606084860312156200026d57600080fd5b83516001600160a01b03811681146200028557600080fd5b60208501519093506001600160401b0380821115620002a357600080fd5b620002b187838801620001a0565b93506040860151915080821115620002c857600080fd5b50620002d786828701620001a0565b9150509250925092565b600181811c90821680620002f657607f821691505b602082108114156200031857634e487b7160e01b600052602260045260246000fd5b50919050565b61171f806200032e6000396000f3fe6080604052600436106101185760003560e01c8063715018a6116100a0578063c87b56dd11610064578063c87b56dd1461030e578063cd88a6a81461032e578063e985e9c51461034e578063f2fde38b14610397578063f5537ede146103b757600080fd5b8063715018a6146102865780638da5cb5b1461029b57806395d89b41146102b9578063a22cb465146102ce578063b88d4fde146102ee57600080fd5b80630ad067a4116100e75780630ad067a4146101d857806323b872dd1461020657806342842e0e146102265780636352211e1461024657806370a082311461026657600080fd5b806301ffc9a71461012757806306fdde031461015c578063081812fc1461017e578063095ea7b3146101b657600080fd5b3661012257600080fd5b600080fd5b34801561013357600080fd5b50610147610142366004611219565b6103d7565b60405190151581526020015b60405180910390f35b34801561016857600080fd5b50610171610429565b604051610153919061128e565b34801561018a57600080fd5b5061019e6101993660046112a1565b6104bb565b6040516001600160a01b039091168152602001610153565b3480156101c257600080fd5b506101d66101d13660046112d6565b6104e2565b005b3480156101e457600080fd5b506101f86101f3366004611300565b6105fd565b604051908152602001610153565b34801561021257600080fd5b506101d661022136600461131b565b610677565b34801561023257600080fd5b506101d661024136600461131b565b6106a8565b34801561025257600080fd5b5061019e6102613660046112a1565b6106c3565b34801561027257600080fd5b506101f8610281366004611300565b610723565b34801561029257600080fd5b506101d66107a9565b3480156102a757600080fd5b506006546001600160a01b031661019e565b3480156102c557600080fd5b506101716107bd565b3480156102da57600080fd5b506101d66102e9366004611357565b6107cc565b3480156102fa57600080fd5b506101d66103093660046113a9565b6107db565b34801561031a57600080fd5b506101716103293660046112a1565b610813565b34801561033a57600080fd5b506101476103493660046112d6565b610828565b34801561035a57600080fd5b50610147610369366004611485565b6001600160a01b03918216600090815260056020908152604080832093909416825291909152205460ff1690565b3480156103a357600080fd5b506101d66103b2366004611300565b610857565b3480156103c357600080fd5b506101476103d236600461131b565b6108d0565b60006001600160e01b031982166380ac58cd60e01b148061040857506001600160e01b03198216635b5e139f60e01b145b8061042357506301ffc9a760e01b6001600160e01b03198316145b92915050565b606060008054610438906114b8565b80601f0160208091040260200160405190810160405280929190818152602001828054610464906114b8565b80156104b15780601f10610486576101008083540402835291602001916104b1565b820191906000526020600020905b81548152906001019060200180831161049457829003601f168201915b5050505050905090565b60006104c68261095f565b506000908152600460205260409020546001600160a01b031690565b60006104ed826106c3565b9050806001600160a01b0316836001600160a01b031614156105605760405162461bcd60e51b815260206004820152602160248201527f4552433732313a20617070726f76616c20746f2063757272656e74206f776e656044820152603960f91b60648201526084015b60405180910390fd5b336001600160a01b038216148061057c575061057c8133610369565b6105ee5760405162461bcd60e51b815260206004820152603e60248201527f4552433732313a20617070726f76652063616c6c6572206973206e6f7420746f60448201527f6b656e206f776e6572206e6f7220617070726f76656420666f7220616c6c00006064820152608401610557565b6105f883836109be565b505050565b6040516370a0823160e01b81523060048201526000906001600160a01b038316906370a082319060240160206040518083038186803b15801561063f57600080fd5b505afa158015610653573d6000803e3d6000fd5b505050506040513d601f19601f8201168201806040525081019061042391906114f3565b6106813382610a2c565b61069d5760405162461bcd60e51b81526004016105579061150c565b6105f8838383610aab565b6105f8838383604051806020016040528060008152506107db565b6000818152600260205260408120546001600160a01b0316806104235760405162461bcd60e51b8152602060048201526018602482015277115490cdcc8c4e881a5b9d985b1a59081d1bdad95b88125160421b6044820152606401610557565b60006001600160a01b03821661078d5760405162461bcd60e51b815260206004820152602960248201527f4552433732313a2061646472657373207a65726f206973206e6f7420612076616044820152683634b21037bbb732b960b91b6064820152608401610557565b506001600160a01b031660009081526003602052604090205490565b6107b1610c47565b6107bb6000610ca1565b565b606060018054610438906114b8565b6107d7338383610cf3565b5050565b6107e53383610a2c565b6108015760405162461bcd60e51b81526004016105579061150c565b61080d84848484610dc2565b50505050565b6060610423610823600584611570565b610df5565b600061083633600754610e69565b600160076000828254610849919061159a565b909155506001949350505050565b61085f610c47565b6001600160a01b0381166108c45760405162461bcd60e51b815260206004820152602660248201527f4f776e61626c653a206e6577206f776e657220697320746865207a65726f206160448201526564647265737360d01b6064820152608401610557565b6108cd81610ca1565b50565b604080516001600160a01b03841660248201526044808201849052825180830390910181526064909101909152602080820180516001600160e01b031663a9059cbb60e01b1781528251600093929184919082896127105a03f13d8015610942576020811461094a5760009350610955565b819350610955565b600051158215171593505b5050509392505050565b6000818152600260205260409020546001600160a01b03166108cd5760405162461bcd60e51b8152602060048201526018602482015277115490cdcc8c4e881a5b9d985b1a59081d1bdad95b88125160421b6044820152606401610557565b600081815260046020526040902080546001600160a01b0319166001600160a01b03841690811790915581906109f3826106c3565b6001600160a01b03167f8c5be1e5ebec7d5bd14f71427d1e84f3dd0314c0f7b2291e5b200ac8c7c3b92560405160405180910390a45050565b600080610a38836106c3565b9050806001600160a01b0316846001600160a01b03161480610a7f57506001600160a01b0380821660009081526005602090815260408083209388168352929052205460ff165b80610aa35750836001600160a01b0316610a98846104bb565b6001600160a01b0316145b949350505050565b826001600160a01b0316610abe826106c3565b6001600160a01b031614610b225760405162461bcd60e51b815260206004820152602560248201527f4552433732313a207472616e736665722066726f6d20696e636f72726563742060448201526437bbb732b960d91b6064820152608401610557565b6001600160a01b038216610b845760405162461bcd60e51b8152602060048201526024808201527f4552433732313a207472616e7366657220746f20746865207a65726f206164646044820152637265737360e01b6064820152608401610557565b610b8f6000826109be565b6001600160a01b0383166000908152600360205260408120805460019290610bb89084906115b2565b90915550506001600160a01b0382166000908152600360205260408120805460019290610be690849061159a565b909155505060008181526002602052604080822080546001600160a01b0319166001600160a01b0386811691821790925591518493918716917fddf252ad1be2c89b69c2b068fc378daa952ba7f163c4a11628f55a4df523b3ef91a4505050565b6006546001600160a01b031633146107bb5760405162461bcd60e51b815260206004820181905260248201527f4f776e61626c653a2063616c6c6572206973206e6f7420746865206f776e65726044820152606401610557565b600680546001600160a01b038381166001600160a01b0319831681179093556040519116919082907f8be0079c531659141344cd1fd0a4f28419497f9722a3daafe3b4186f6b6457e090600090a35050565b816001600160a01b0316836001600160a01b03161415610d555760405162461bcd60e51b815260206004820152601960248201527f4552433732313a20617070726f766520746f2063616c6c6572000000000000006044820152606401610557565b6001600160a01b03838116600081815260056020908152604080832094871680845294825291829020805460ff191686151590811790915591519182527f17307eab39ab6107e8899845ad3d59bd9653f200f220920489ca2b5937696c31910160405180910390a3505050565b610dcd848484610aab565b610dd984848484610e83565b61080d5760405162461bcd60e51b8152600401610557906115c9565b6060610e008261095f565b6000610e1760408051602081019091526000815290565b90506000815111610e375760405180602001604052806000815250610e62565b80610e4184610f90565b604051602001610e5292919061161b565b6040516020818303038152906040525b9392505050565b6107d782826040518060200160405280600081525061108e565b60006001600160a01b0384163b15610f8557604051630a85bd0160e11b81526001600160a01b0385169063150b7a0290610ec790339089908890889060040161164a565b602060405180830381600087803b158015610ee157600080fd5b505af1925050508015610f11575060408051601f3d908101601f19168201909252610f0e91810190611687565b60015b610f6b573d808015610f3f576040519150601f19603f3d011682016040523d82523d6000602084013e610f44565b606091505b508051610f635760405162461bcd60e51b8152600401610557906115c9565b805181602001fd5b6001600160e01b031916630a85bd0160e11b149050610aa3565b506001949350505050565b606081610fb45750506040805180820190915260018152600360fc1b602082015290565b8160005b8115610fde5780610fc8816116a4565b9150610fd79050600a836116bf565b9150610fb8565b60008167ffffffffffffffff811115610ff957610ff9611393565b6040519080825280601f01601f191660200182016040528015611023576020820181803683370190505b5090505b8415610aa3576110386001836115b2565b9150611045600a86611570565b61105090603061159a565b60f81b818381518110611065576110656116d3565b60200101906001600160f81b031916908160001a905350611087600a866116bf565b9450611027565b61109883836110c1565b6110a56000848484610e83565b6105f85760405162461bcd60e51b8152600401610557906115c9565b6001600160a01b0382166111175760405162461bcd60e51b815260206004820181905260248201527f4552433732313a206d696e7420746f20746865207a65726f20616464726573736044820152606401610557565b6000818152600260205260409020546001600160a01b03161561117c5760405162461bcd60e51b815260206004820152601c60248201527f4552433732313a20746f6b656e20616c7265616479206d696e746564000000006044820152606401610557565b6001600160a01b03821660009081526003602052604081208054600192906111a590849061159a565b909155505060008181526002602052604080822080546001600160a01b0319166001600160a01b03861690811790915590518392907fddf252ad1be2c89b69c2b068fc378daa952ba7f163c4a11628f55a4df523b3ef908290a45050565b6001600160e01b0319811681146108cd57600080fd5b60006020828403121561122b57600080fd5b8135610e6281611203565b60005b83811015611251578181015183820152602001611239565b8381111561080d5750506000910152565b6000815180845261127a816020860160208601611236565b601f01601f19169290920160200192915050565b602081526000610e626020830184611262565b6000602082840312156112b357600080fd5b5035919050565b80356001600160a01b03811681146112d157600080fd5b919050565b600080604083850312156112e957600080fd5b6112f2836112ba565b946020939093013593505050565b60006020828403121561131257600080fd5b610e62826112ba565b60008060006060848603121561133057600080fd5b611339846112ba565b9250611347602085016112ba565b9150604084013590509250925092565b6000806040838503121561136a57600080fd5b611373836112ba565b91506020830135801515811461138857600080fd5b809150509250929050565b634e487b7160e01b600052604160045260246000fd5b600080600080608085870312156113bf57600080fd5b6113c8856112ba565b93506113d6602086016112ba565b925060408501359150606085013567ffffffffffffffff808211156113fa57600080fd5b818701915087601f83011261140e57600080fd5b81358181111561142057611420611393565b604051601f8201601f19908116603f0116810190838211818310171561144857611448611393565b816040528281528a602084870101111561146157600080fd5b82602086016020830137600060208483010152809550505050505092959194509250565b6000806040838503121561149857600080fd5b6114a1836112ba565b91506114af602084016112ba565b90509250929050565b600181811c908216806114cc57607f821691505b602082108114156114ed57634e487b7160e01b600052602260045260246000fd5b50919050565b60006020828403121561150557600080fd5b5051919050565b6020808252602e908201527f4552433732313a2063616c6c6572206973206e6f7420746f6b656e206f776e6560408201526d1c881b9bdc88185c1c1c9bdd995960921b606082015260800190565b634e487b7160e01b600052601260045260246000fd5b60008261157f5761157f61155a565b500690565b634e487b7160e01b600052601160045260246000fd5b600082198211156115ad576115ad611584565b500190565b6000828210156115c4576115c4611584565b500390565b60208082526032908201527f4552433732313a207472616e7366657220746f206e6f6e20455243373231526560408201527131b2b4bb32b91034b6b83632b6b2b73a32b960711b606082015260800190565b6000835161162d818460208801611236565b835190830190611641818360208801611236565b01949350505050565b6001600160a01b038581168252841660208201526040810183905260806060820181905260009061167d90830184611262565b9695505050505050565b60006020828403121561169957600080fd5b8151610e6281611203565b60006000198214156116b8576116b8611584565b5060010190565b6000826116ce576116ce61155a565b500490565b634e487b7160e01b600052603260045260246000fdfea264697066735822122070da170ad560a59afcff4530f581cb203be3de072ee6d6143afdbe11cc57073b64736f6c63430008090033",
  "linkReferences": {},
  "deployedLinkReferences": {}
}