{
  "_format": "hh-sol-artifact-1",
  "contractName": "CRAFTreasury",
  "sourceName": "contracts/CRAFTreasury.sol",
  "abi": [
    {
      "inputs": [
        {
          "internalType": "address",
          "name": "governanceAddress",
          "type": "address"
        },
        {
          "internalType": "string",
          "name": "name",
          "type": "string"
        },
        {
          "internalType": "string",
          "name": "symbol",
          "type": "string"
        }
      ],
      "stateMutability": "nonpayable",
      "type": "constructor"
    },
    {
      "anonymous": false,
      "inputs": [
        {
          "indexed": true,
          "internalType": "address",
          "name": "owner",
          "type": "address"
        },
        {
          "indexed": true,
          "internalType": "address",
          "name": "approved",
          "type": "address"
        },
        {
          "indexed": true,
          "internalType": "uint256",
          "name": "tokenId",
          "type": "uint256"
        }
      ],
      "name": "Approval",
      "type": "event"
    },
    {
      "anonymous": false,
      "inputs": [
        {
          "indexed": true,
          "internalType": "address",
          "name": "owner",
          "type": "address"
        },
        {
          "indexed": true,
          "internalType": "address",
          "name": "operator",
          "type": "address"
        },
        {
          "indexed": false,
          "internalType": "bool",
          "name": "approved",
          "type": "bool"
        }
      ],
      "name": "ApprovalForAll",
      "type": "event"
    },
    {
      "anonymous": false,
      "inputs": [
        {
          "indexed": true,
          "internalType": "address",
          "name": "token",
          "type": "address"
        },
        {
          "indexed": true,
          "internalType": "address",
          "name": "from",
          "type": "address"
        },
        {
          "indexed": false,
          "internalType": "uint256",
          "name": "amount",
          "type": "uint256"
        },
        {
          "indexed": false,
          "internalType": "uint256",
          "name": "balance",
          "type": "uint256"
        }
      ],
      "name": "FundTreasury",
      "type": "event"
    },
    {
      "anonymous": false,
      "inputs": [
        {
          "indexed": true,
          "internalType": "address",
          "name": "previousOwner",
          "type": "address"
        },
        {
          "indexed": true,
          "internalType": "address",
          "name": "newOwner",
          "type": "address"
        }
      ],
      "name": "OwnershipTransferred",
      "type": "event"
    },
    {
      "anonymous": false,
      "inputs": [
        {
          "indexed": true,
          "internalType": "address",
          "name": "from",
          "type": "address"
        },
        {
          "indexed": true,
          "internalType": "address",
          "name": "to",
          "type": "address"
        },
        {
          "indexed": true,
          "internalType": "uint256",
          "name": "tokenId",
          "type": "uint256"
        }
      ],
      "name": "Transfer",
      "type": "event"
    },
    {
      "inputs": [
        {
          "internalType": "address",
          "name": "to",
          "type": "address"
        },
        {
          "internalType": "uint256",
          "name": "tokenId",
          "type": "uint256"
        }
      ],
      "name": "approve",
      "outputs": [],
      "stateMutability": "nonpayable",
      "type": "function"
    },
    {
      "inputs": [
        {
          "internalType": "address",
          "name": "owner",
          "type": "address"
        }
      ],
      "name": "balanceOf",
      "outputs": [
        {
          "internalType": "uint256",
          "name": "",
          "type": "uint256"
        }
      ],
      "stateMutability": "view",
      "type": "function"
    },
    {
      "inputs": [
        {
          "internalType": "address",
          "name": "token",
          "type": "address"
        },
        {
          "internalType": "uint256",
          "name": "amount",
          "type": "uint256"
        }
      ],
      "name": "fundTreasury",
      "outputs": [
        {
          "internalType": "bool",
          "name": "",
          "type": "bool"
        }
      ],
      "stateMutability": "nonpayable",
      "type": "function"
    },
    {
      "inputs": [
        {
          "internalType": "uint256",
          "name": "tokenId",
          "type": "uint256"
        }
      ],
      "name": "getApproved",
      "outputs": [
        {
          "internalType": "address",
          "name": "",
          "type": "address"
        }
      ],
      "stateMutability": "view",
      "type": "function"
    },
    {
      "inputs": [
        {
          "internalType": "address",
          "name": "owner",
          "type": "address"
        },
        {
          "internalType": "address",
          "name": "operator",
          "type": "address"
        }
      ],
      "name": "isApprovedForAll",
      "outputs": [
        {
          "internalType": "bool",
          "name": "",
          "type": "bool"
        }
      ],
      "stateMutability": "view",
      "type": "function"
    },
    {
      "inputs": [],
      "name": "name",
      "outputs": [
        {
          "internalType": "string",
          "name": "",
          "type": "string"
        }
      ],
      "stateMutability": "view",
      "type": "function"
    },
    {
      "inputs": [],
      "name": "owner",
      "outputs": [
        {
          "internalType": "address",
          "name": "",
          "type": "address"
        }
      ],
      "stateMutability": "view",
      "type": "function"
    },
    {
      "inputs": [
        {
          "internalType": "uint256",
          "name": "tokenId",
          "type": "uint256"
        }
      ],
      "name": "ownerOf",
      "outputs": [
        {
          "internalType": "address",
          "name": "",
          "type": "address"
        }
      ],
      "stateMutability": "view",
      "type": "function"
    },
    {
      "inputs": [],
      "name": "renounceOwnership",
      "outputs": [],
      "stateMutability": "nonpayable",
      "type": "function"
    },
    {
      "inputs": [
        {
          "internalType": "address",
          "name": "from",
          "type": "address"
        },
        {
          "internalType": "address",
          "name": "to",
          "type": "address"
        },
        {
          "internalType": "uint256",
          "name": "tokenId",
          "type": "uint256"
        }
      ],
      "name": "safeTransferFrom",
      "outputs": [],
      "stateMutability": "nonpayable",
      "type": "function"
    },
    {
      "inputs": [
        {
          "internalType": "address",
          "name": "from",
          "type": "address"
        },
        {
          "internalType": "address",
          "name": "to",
          "type": "address"
        },
        {
          "internalType": "uint256",
          "name": "tokenId",
          "type": "uint256"
        },
        {
          "internalType": "bytes",
          "name": "data",
          "type": "bytes"
        }
      ],
      "name": "safeTransferFrom",
      "outputs": [],
      "stateMutability": "nonpayable",
      "type": "function"
    },
    {
      "inputs": [
        {
          "internalType": "address",
          "name": "operator",
          "type": "address"
        },
        {
          "internalType": "bool",
          "name": "approved",
          "type": "bool"
        }
      ],
      "name": "setApprovalForAll",
      "outputs": [],
      "stateMutability": "nonpayable",
      "type": "function"
    },
    {
      "inputs": [
        {
          "internalType": "bytes4",
          "name": "interfaceId",
          "type": "bytes4"
        }
      ],
      "name": "supportsInterface",
      "outputs": [
        {
          "internalType": "bool",
          "name": "",
          "type": "bool"
        }
      ],
      "stateMutability": "view",
      "type": "function"
    },
    {
      "inputs": [],
      "name": "symbol",
      "outputs": [
        {
          "internalType": "string",
          "name": "",
          "type": "string"
        }
      ],
      "stateMutability": "view",
      "type": "function"
    },
    {
      "inputs": [
        {
          "internalType": "uint256",
          "name": "tokenId",
          "type": "uint256"
        }
      ],
      "name": "tokenURI",
      "outputs": [
        {
          "internalType": "string",
          "name": "",
          "type": "string"
        }
      ],
      "stateMutability": "view",
      "type": "function"
    },
    {
      "inputs": [
        {
          "internalType": "address",
          "name": "from",
          "type": "address"
        },
        {
          "internalType": "address",
          "name": "to",
          "type": "address"
        },
        {
          "internalType": "uint256",
          "name": "tokenId",
          "type": "uint256"
        }
      ],
      "name": "transferFrom",
      "outputs": [],
      "stateMutability": "nonpayable",
      "type": "function"
    },
    {
      "inputs": [
        {
          "internalType": "address",
          "name": "newOwner",
          "type": "address"
        }
      ],
      "name": "transferOwnership",
      "outputs": [],
      "stateMutability": "nonpayable",
      "type": "function"
    },
    {
      "inputs": [
        {
          "internalType": "address",
          "name": "token",
          "type": "address"
        },
        {
          "internalType": "address",
          "name": "receiver",
          "type": "address"
        },
        {
          "internalType": "uint256",
          "name": "amount",
          "type": "uint256"
        }
      ],
      "name": "transferToken",
      "outputs": [
        {
          "internalType": "bool",
          "name": "transferred",
          "type": "bool"
        }
      ],
      "stateMutability": "nonpayable",
      "type": "function"
    },
    {
      "inputs": [
        {
          "internalType": "address",
          "name": "token",
          "type": "address"
        }
      ],
      "name": "treasuryBalanceOf",
      "outputs": [
        {
          "internalType": "uint256",
          "name": "",
          "type": "uint256"
        }
      ],
      "stateMutability": "view",
      "type": "function"
    },
    {
      "stateMutability": "payable",
      "type": "receive"
    }
  ],
  "bytecode": "0x60806040523480156200001157600080fd5b5060405162001b3238038062001b32833981016040819052620000349162000257565b8151829082906200004d906000906020850190620000e4565b50805162000063906001906020840190620000e4565b505050620000806200007a6200008e60201b60201c565b62000092565b50506000600755506200031e565b3390565b600680546001600160a01b038381166001600160a01b0319831681179093556040519116919082907f8be0079c531659141344cd1fd0a4f28419497f9722a3daafe3b4186f6b6457e090600090a35050565b828054620000f290620002e1565b90600052602060002090601f01602090048101928262000116576000855562000161565b82601f106200013157805160ff191683800117855562000161565b8280016001018555821562000161579182015b828111156200016157825182559160200191906001019062000144565b506200016f92915062000173565b5090565b5b808211156200016f576000815560010162000174565b634e487b7160e01b600052604160045260246000fd5b600082601f830112620001b257600080fd5b81516001600160401b0380821115620001cf57620001cf6200018a565b604051601f8301601f19908116603f01168101908282118183101715620001fa57620001fa6200018a565b816040528381526020925086838588010111156200021757600080fd5b600091505b838210156200023b57858201830151818301840152908201906200021c565b838211156200024d5760008385830101525b9695505050505050565b6000806000606084860312156200026d57600080fd5b83516001600160a01b03811681146200028557600080fd5b60208501519093506001600160401b0380821115620002a357600080fd5b620002b187838801620001a0565b93506040860151915080821115620002c857600080fd5b50620002d786828701620001a0565b9150509250925092565b600181811c90821680620002f657607f821691505b602082108114156200031857634e487b7160e01b600052602260045260246000fd5b50919050565b611804806200032e6000396000f3fe6080604052600436106101185760003560e01c8063715018a6116100a0578063c87b56dd11610064578063c87b56dd1461030e578063cd88a6a81461032e578063e985e9c51461034e578063f2fde38b14610397578063f5537ede146103b757600080fd5b8063715018a6146102865780638da5cb5b1461029b57806395d89b41146102b9578063a22cb465146102ce578063b88d4fde146102ee57600080fd5b80630ad067a4116100e75780630ad067a4146101d857806323b872dd1461020657806342842e0e146102265780636352211e1461024657806370a082311461026657600080fd5b806301ffc9a71461012757806306fdde031461015c578063081812fc1461017e578063095ea7b3146101b657600080fd5b3661012257600080fd5b600080fd5b34801561013357600080fd5b50610147610142366004611271565b6103d7565b60405190151581526020015b60405180910390f35b34801561016857600080fd5b50610171610429565b60405161015391906112ed565b34801561018a57600080fd5b5061019e610199366004611300565b6104bb565b6040516001600160a01b039091168152602001610153565b3480156101c257600080fd5b506101d66101d1366004611335565b6104e2565b005b3480156101e457600080fd5b506101f86101f336600461135f565b6105fd565b604051908152602001610153565b34801561021257600080fd5b506101d661022136600461137a565b610668565b34801561023257600080fd5b506101d661024136600461137a565b610699565b34801561025257600080fd5b5061019e610261366004611300565b6106b4565b34801561027257600080fd5b506101f861028136600461135f565b610714565b34801561029257600080fd5b506101d661079a565b3480156102a757600080fd5b506006546001600160a01b031661019e565b3480156102c557600080fd5b506101716107ae565b3480156102da57600080fd5b506101d66102e93660046113c4565b6107bd565b3480156102fa57600080fd5b506101d6610309366004611411565b6107cc565b34801561031a57600080fd5b50610171610329366004611300565b610804565b34801561033a57600080fd5b50610147610349366004611335565b61086a565b34801561035a57600080fd5b506101476103693660046114ed565b6001600160a01b03918216600090815260056020908152604080832093909416825291909152205460ff1690565b3480156103a357600080fd5b506101d66103b236600461135f565b610912565b3480156103c357600080fd5b506101476103d236600461137a565b61098b565b60006001600160e01b031982166380ac58cd60e01b148061040857506001600160e01b03198216635b5e139f60e01b145b8061042357506301ffc9a760e01b6001600160e01b03198316145b92915050565b60606000805461043890611520565b80601f016020809104026020016040519081016040528092919081815260200182805461046490611520565b80156104b15780601f10610486576101008083540402835291602001916104b1565b820191906000526020600020905b81548152906001019060200180831161049457829003601f168201915b5050505050905090565b60006104c682610a1a565b506000908152600460205260409020546001600160a01b031690565b60006104ed826106b4565b9050806001600160a01b0316836001600160a01b031614156105605760405162461bcd60e51b815260206004820152602160248201527f4552433732313a20617070726f76616c20746f2063757272656e74206f776e656044820152603960f91b60648201526084015b60405180910390fd5b336001600160a01b038216148061057c575061057c8133610369565b6105ee5760405162461bcd60e51b815260206004820152603e60248201527f4552433732313a20617070726f76652063616c6c6572206973206e6f7420746f60448201527f6b656e206f776e6572206e6f7220617070726f76656420666f7220616c6c00006064820152608401610557565b6105f88383610a79565b505050565b6040516370a0823160e01b81523060048201526000906001600160a01b038316906370a0823190602401602060405180830381865afa158015610644573d6000803e3d6000fd5b505050506040513d601f19601f82011682018060405250810190610423919061155b565b6106723382610ae7565b61068e5760405162461bcd60e51b815260040161055790611574565b6105f8838383610b66565b6105f8838383604051806020016040528060008152506107cc565b6000818152600260205260408120546001600160a01b0316806104235760405162461bcd60e51b8152602060048201526018602482015277115490cdcc8c4e881a5b9d985b1a59081d1bdad95b88125160421b6044820152606401610557565b60006001600160a01b03821661077e5760405162461bcd60e51b815260206004820152602960248201527f4552433732313a2061646472657373207a65726f206973206e6f7420612076616044820152683634b21037bbb732b960b91b6064820152608401610557565b506001600160a01b031660009081526003602052604090205490565b6107a2610d02565b6107ac6000610d5c565b565b60606001805461043890611520565b6107c8338383610dae565b5050565b6107d63383610ae7565b6107f25760405162461bcd60e51b815260040161055790611574565b6107fe84848484610e7d565b50505050565b606061080f82610a1a565b6000610819610eb0565b90508061082584610ed0565b6040516020016108369291906115c2565b60408051601f1981840301815290829052610853916020016115f1565b604051602081830303815290604052915050919050565b6040516323b872dd60e01b8152336004820152306024820152604481018290526000906001600160a01b038416906323b872dd906064016020604051808303816000875af11580156108c0573d6000803e3d6000fd5b505050506040513d601f19601f820116820180604052508101906108e4919061161a565b506108f133600754610fce565b600160076000828254610904919061164d565b909155506001949350505050565b61091a610d02565b6001600160a01b03811661097f5760405162461bcd60e51b815260206004820152602660248201527f4f776e61626c653a206e6577206f776e657220697320746865207a65726f206160448201526564647265737360d01b6064820152608401610557565b61098881610d5c565b50565b604080516001600160a01b03841660248201526044808201849052825180830390910181526064909101909152602080820180516001600160e01b031663a9059cbb60e01b1781528251600093929184919082896127105a03f13d80156109fd5760208114610a055760009350610a10565b819350610a10565b600051158215171593505b5050509392505050565b6000818152600260205260409020546001600160a01b03166109885760405162461bcd60e51b8152602060048201526018602482015277115490cdcc8c4e881a5b9d985b1a59081d1bdad95b88125160421b6044820152606401610557565b600081815260046020526040902080546001600160a01b0319166001600160a01b0384169081179091558190610aae826106b4565b6001600160a01b03167f8c5be1e5ebec7d5bd14f71427d1e84f3dd0314c0f7b2291e5b200ac8c7c3b92560405160405180910390a45050565b600080610af3836106b4565b9050806001600160a01b0316846001600160a01b03161480610b3a57506001600160a01b0380821660009081526005602090815260408083209388168352929052205460ff165b80610b5e5750836001600160a01b0316610b53846104bb565b6001600160a01b0316145b949350505050565b826001600160a01b0316610b79826106b4565b6001600160a01b031614610bdd5760405162461bcd60e51b815260206004820152602560248201527f4552433732313a207472616e736665722066726f6d20696e636f72726563742060448201526437bbb732b960d91b6064820152608401610557565b6001600160a01b038216610c3f5760405162461bcd60e51b8152602060048201526024808201527f4552433732313a207472616e7366657220746f20746865207a65726f206164646044820152637265737360e01b6064820152608401610557565b610c4a600082610a79565b6001600160a01b0383166000908152600360205260408120805460019290610c73908490611665565b90915550506001600160a01b0382166000908152600360205260408120805460019290610ca190849061164d565b909155505060008181526002602052604080822080546001600160a01b0319166001600160a01b0386811691821790925591518493918716917fddf252ad1be2c89b69c2b068fc378daa952ba7f163c4a11628f55a4df523b3ef91a4505050565b6006546001600160a01b031633146107ac5760405162461bcd60e51b815260206004820181905260248201527f4f776e61626c653a2063616c6c6572206973206e6f7420746865206f776e65726044820152606401610557565b600680546001600160a01b038381166001600160a01b0319831681179093556040519116919082907f8be0079c531659141344cd1fd0a4f28419497f9722a3daafe3b4186f6b6457e090600090a35050565b816001600160a01b0316836001600160a01b03161415610e105760405162461bcd60e51b815260206004820152601960248201527f4552433732313a20617070726f766520746f2063616c6c6572000000000000006044820152606401610557565b6001600160a01b03838116600081815260056020908152604080832094871680845294825291829020805460ff191686151590811790915591519182527f17307eab39ab6107e8899845ad3d59bd9653f200f220920489ca2b5937696c31910160405180910390a3505050565b610e88848484610b66565b610e9484848484610fe8565b6107fe5760405162461bcd60e51b81526004016105579061167c565b606060405180606001604052806037815260200161179860379139905090565b606081610ef45750506040805180820190915260018152600360fc1b602082015290565b8160005b8115610f1e5780610f08816116ce565b9150610f179050600a836116ff565b9150610ef8565b60008167ffffffffffffffff811115610f3957610f396113fb565b6040519080825280601f01601f191660200182016040528015610f63576020820181803683370190505b5090505b8415610b5e57610f78600183611665565b9150610f85600a86611713565b610f9090603061164d565b60f81b818381518110610fa557610fa5611727565b60200101906001600160f81b031916908160001a905350610fc7600a866116ff565b9450610f67565b6107c88282604051806020016040528060008152506110e6565b60006001600160a01b0384163b156110db57604051630a85bd0160e11b81526001600160a01b0385169063150b7a029061102c90339089908890889060040161173d565b6020604051808303816000875af1925050508015611067575060408051601f3d908101601f191682019092526110649181019061177a565b60015b6110c1573d808015611095576040519150601f19603f3d011682016040523d82523d6000602084013e61109a565b606091505b5080516110b95760405162461bcd60e51b81526004016105579061167c565b805181602001fd5b6001600160e01b031916630a85bd0160e11b149050610b5e565b506001949350505050565b6110f08383611119565b6110fd6000848484610fe8565b6105f85760405162461bcd60e51b81526004016105579061167c565b6001600160a01b03821661116f5760405162461bcd60e51b815260206004820181905260248201527f4552433732313a206d696e7420746f20746865207a65726f20616464726573736044820152606401610557565b6000818152600260205260409020546001600160a01b0316156111d45760405162461bcd60e51b815260206004820152601c60248201527f4552433732313a20746f6b656e20616c7265616479206d696e746564000000006044820152606401610557565b6001600160a01b03821660009081526003602052604081208054600192906111fd90849061164d565b909155505060008181526002602052604080822080546001600160a01b0319166001600160a01b03861690811790915590518392907fddf252ad1be2c89b69c2b068fc378daa952ba7f163c4a11628f55a4df523b3ef908290a45050565b6001600160e01b03198116811461098857600080fd5b60006020828403121561128357600080fd5b813561128e8161125b565b9392505050565b60005b838110156112b0578181015183820152602001611298565b838111156107fe5750506000910152565b600081518084526112d9816020860160208601611295565b601f01601f19169290920160200192915050565b60208152600061128e60208301846112c1565b60006020828403121561131257600080fd5b5035919050565b80356001600160a01b038116811461133057600080fd5b919050565b6000806040838503121561134857600080fd5b61135183611319565b946020939093013593505050565b60006020828403121561137157600080fd5b61128e82611319565b60008060006060848603121561138f57600080fd5b61139884611319565b92506113a660208501611319565b9150604084013590509250925092565b801515811461098857600080fd5b600080604083850312156113d757600080fd5b6113e083611319565b915060208301356113f0816113b6565b809150509250929050565b634e487b7160e01b600052604160045260246000fd5b6000806000806080858703121561142757600080fd5b61143085611319565b935061143e60208601611319565b925060408501359150606085013567ffffffffffffffff8082111561146257600080fd5b818701915087601f83011261147657600080fd5b813581811115611488576114886113fb565b604051601f8201601f19908116603f011681019083821181831017156114b0576114b06113fb565b816040528281528a60208487010111156114c957600080fd5b82602086016020830137600060208483010152809550505050505092959194509250565b6000806040838503121561150057600080fd5b61150983611319565b915061151760208401611319565b90509250929050565b600181811c9082168061153457607f821691505b6020821081141561155557634e487b7160e01b600052602260045260246000fd5b50919050565b60006020828403121561156d57600080fd5b5051919050565b6020808252602e908201527f4552433732313a2063616c6c6572206973206e6f7420746f6b656e206f776e6560408201526d1c881b9bdc88185c1c1c9bdd995960921b606082015260800190565b600083516115d4818460208801611295565b8351908301906115e8818360208801611295565b01949350505050565b60008251611603818460208701611295565b64173539b7b760d91b920191825250600501919050565b60006020828403121561162c57600080fd5b815161128e816113b6565b634e487b7160e01b600052601160045260246000fd5b6000821982111561166057611660611637565b500190565b60008282101561167757611677611637565b500390565b60208082526032908201527f4552433732313a207472616e7366657220746f206e6f6e20455243373231526560408201527131b2b4bb32b91034b6b83632b6b2b73a32b960711b606082015260800190565b60006000198214156116e2576116e2611637565b5060010190565b634e487b7160e01b600052601260045260246000fd5b60008261170e5761170e6116e9565b500490565b600082611722576117226116e9565b500690565b634e487b7160e01b600052603260045260246000fd5b6001600160a01b0385811682528416602082015260408101839052608060608201819052600090611770908301846112c1565b9695505050505050565b60006020828403121561178c57600080fd5b815161128e8161125b56fe68747470733a2f2f6c616d6f72612d6c616e64696e672e73332e75732d776573742d312e616d617a6f6e6177732e636f6d2f6e6674732fa26469706673582212200e4bfdc0eb3d780603ba63fcd56e16ac1f01de8ae43bc3ddd607b21be41977d964736f6c634300080c0033",
  "linkReferences": {},
  "deployedLinkReferences": {}
}